:020000040800F2
:1000000040110020D9670008796300087B6300086D
:1000100000000000000000000000000000000000E0
:100020000000000000000000000000007F630008E6
:1000300000000000000000008163000883630008E6
:100040003B140008CF160008816400082B19000833
:10005000FF190008A963000897670008FD630008FE
:10006000A367000819680008856500081B68000878
:100070001D6800081F68000821680008CF64000898
:10008000236800082568000800000000FF630008DE
:10009000AF640008BF6400082768000829680008EA
:1000A0002B6800082D6800082F68000831680008D8
:1000B00033680008000000003568000800000000F8
:1000C00030B503000C0015006A1E002D04D0257801
:1000D0001D70641C5B1CF6E730BD10B503001400F6
:1000E000621E002C03D00C001C705B1CF7E710BDD7
:1000F00070B503001C000D0000201600721E002EBB
:1001000006D020782E78801B6D1C641C0028F4D04B
:1001100070BD00B50278002A04D002788A4201D06E
:10012000401CF7E7007800BDF8B506000F00F06A44
:100130000400BC4232D03079002821D001232200B3
:1001400031003031707801F03CF9002801D00120F5
:1001500025E000203071306AF169401884420FD2E6
:10016000F0780500EDB2022D0ADBF06924180123B6
:10017000220031003031707801F023F96D1EF1E773
:10018000002F0BD001233A0031003031707801F09C
:100190000BF9002801D0012001E0F7620020F2BD38
:1001A00000B50200891E9069801E814201D30020A3
:1001B00003E090784143906A081800BDF8B5070045
:1001C0000E00022E02D3B869864201D3012079E0E5
:1001D0003878012804D073D303284ED033D36FE08E
:1001E0003500280040082D18386A2900490A4118AE
:1001F0003800FFF799FF002862D12800802189008C
:1002000001F004F978183030007804006D1C386A69
:100210002900490A41183800FFF786FF00284FD10E
:1002200028008021890001F0F1F87818303000783A
:10023000000220430400F00702D52000000901E07D
:100240002005000D3EE0386A3100090A41183800E7
:10025000FFF76AFF002833D1022070438021890014
:1002600001F0D4F8781830300090009840780002FF
:1002700000990978084380B224E0386A3100C9093E
:1002800041183800FFF750FF002819D104207043AF
:100290008021890001F0BAF8781830300090009879
:1002A000C0780106009880780004084300994978D6
:1002B000090201430098007808430001000901E0A9
:1002C0000020C043F2BDF2B582B0060014000298CF
:1002D000022803D30298B169884203D368460221F9
:1002E0000170A4E03078012805D000D29AE00328FC
:1002F0006ED04FD396E002980500280040082D18D4
:10030000306A2900490A41183000FFF70DFF69469D
:10031000087068460078002800D086E02800802118
:10032000890001F073F87018303007000298C00798
:1003300006D538780107090F20000001084300E0C6
:10034000200038706D1C01203071306A2900490A84
:1003500041183000FFF7E8FE6946087068460078EB
:10036000002862D128008021890001F04FF8701820
:10037000303007000298C00702D52000000907E0CE
:100380003878F02101402000000A0007000F0843E0
:1003900038704AE0306A0299090A41183000FFF7C4
:1003A000C3FE694608706846007800283DD102986F
:1003B000022148438021890001F028F8701830306C
:1003C000070020003870200080B2000A78702CE00E
:1003D000306A0299C90941183000FFF7A5FE694645
:1003E00008706846007800281FD10298042148430D
:1003F0008021890001F00AF8701830300700F87881
:100400000006000F00072043040020003870200081
:1004100080B2000A78702000000CB8702000000E36
:10042000F87002E0684602210170012030716846D0
:100430000078FEBDF8B504000D00022D02D3A069BE
:10044000854202D3022007002CE000200700A069AB
:10045000854227D229002000FFF7B0FE0600002EBB
:1004600020D0012E02D1022007001BE00020C04353
:10047000864202D10120070014E00022290020005A
:10048000FFF721FF0700FFB2002F0BD120690021E9
:10049000C943884204D02069401C2061012060715A
:1004A0003500D4E73800C0B2F2BDF2B582B0050025
:1004B0000298002809D1E8680700002F02D0A86937
:1004C000874212D3012007000FE002992800FFF7AE
:1004D00075FE0600022E01D2012053E0A869864273
:1004E00001D230004EE0029807003C00641CA8696D
:1004F000844205D302200400A74201D2002041E03B
:1005000021002800FFF75AFE0600002E0BD11E4ADC
:1005100021002800FFF7D7FE69460870684600787A
:10052000002816D10BE00020C043864201D0012EE6
:1005300001D1300026E0BC42D8D1002022E0029850
:10054000002806D0220002992800FFF7BCFE694669
:1005500008706846007800280BD1EC6028690021FB
:10056000C94388420DD02869401E28610120687166
:1005700007E068460078012802D10024E44300E047
:1005800001242000FEBD0000FFFFFF0FF8B50500AD
:100590000C00EC80A8680600012E03D02868806952
:1005A000864201D302204EE0002E06D12868007852
:1005B000032802D12868406A0600002E0FD1EE60A1
:1005C00028680089A4B2844201D302203BE0286855
:1005D000406AA4B2210009094018286127E0286870
:1005E0008078102141430F00A4B2BFB2BC4214D3A3
:1005F00031002868FFF7E2FD06000020C043864274
:1006000001D101201FE0022E03D3286880698642B1
:1006100001D3022017E0E41BE6E7EE603100286812
:10062000FFF7BEFDA4B22100090940182861A4B259
:100630002000102100F0EAFE2020414328684018E5
:10064000303068610020F2BDF2B50400E088401C43
:100650000700BFB2002F02D02069002801D104207A
:100660008EE0BFB23800102100F0D0FE00297AD110
:100670002069401C2061E068002806D120680089BC
:10068000BFB287426FD304207AE0BFB238000009BE
:1006900021688978491E0140002964D1E1682068F9
:1006A000FFF78CFD0600022E01D2022068E0002038
:1006B000C043864201D1012062E020688069864201
:1006C0004BD30098002801D1042059E0E16820684C
:1006D000FFF7EBFE0600002E01D1072050E0012EAF
:1006E00001D102204CE00020C043864201D101200C
:1006F00046E000212068FFF717FD002801D0012007
:100700003EE080229200002120683030FFF7E5FCB7
:1007100031002068FFF744FD2168C8620020050011
:1007200020688078EDB2854211D2206801210171E4
:1007300000212068FFF7F8FC002801D001201FE00D
:100740002068C06A401C2168C8626D1CE8E7206808
:10075000C06AEDB2401B2168C862E66031002068C3
:10076000FFF71EFD2061E780BFB23800102100F0C6
:100770004DFE202041432068401830306061002049
:10078000F2BDF8B5050000212800FFF7FFFE0400C8
:10079000E4B2002C02D02000C0B225E0296928680C
:1007A000FFF7C2FC0400E4B2002C1BD1686906000C
:1007B00030780700FFB2002F02D10420040011E0BE
:1007C000F07A000706D40B22A9693000FFF790FCED
:1007D000002807D000212800FFF736FF0400E4B20C
:1007E000002CDBD02000C0B2F2BDF8B5040000211F
:1007F0002000FFF7CBFE0500EDB2002D19D12169D5
:100800002068FFF791FC0500EDB2002D11D1606961
:1008100000780600F6B2E52E02D0F6B2002E00D126
:1008200007E001212000FFF70FFF0500EDB2002DCA
:10083000E5D0EDB2002D16D121692068FFF774FCD8
:100840000500EDB2002D0ED16069070020220021C5
:100850003800FFF742FC0B22A1693800FFF730FC9B
:100860002068012101712800C0B2F2BDF3B585B046
:100870000598806900900B2220210098FFF72DFC3D
:1008800000200600C0B2050007000820019006986D
:10089000006803900398C05D04007F1CE4B2212C23
:1008A00005DBE4B22F2C02D0E4B25C2C07D1039814
:1008B000C01906990860E4B2212C6DDA6AE0E4B24E
:1008C0002E2C02D0019885420DD30198082802D120
:1008D000E4B22E2C01D0062081E0082005000B2078
:1008E0000190B600D6E7E4B2802C02DB300003268C
:1008F0000643E4B2812C02DBE4B2A02C05DBE4B2B7
:10090000E02C26DBE4B2FD2C23DA68460399C95DAE
:1009100001727F1C6846007A402803DB6846007A33
:100920007F2807DB6846007A802807DB6846007A64
:10093000FD2803DA0198401E854201D306204EE0CF
:10094000009844556D1C00986946097A41556D1C04
:10095000A0E7E4B221006848FFF7DBFB002801D0E4
:1009600006203CE0E4B2412C06DBE4B25B2C03DA67
:1009700030000226064309E0E4B2612C06DBE4B253
:100980007B2C03DA300001260643203C00984455B6
:100990006D1C7FE7042400E00024002D01D1062017
:1009A0001DE000980078E52802D10098052101702B
:1009B0000198082800D1B600F6B2B007800F0128D0
:1009C00002D1200010240443F6B20C203040042849
:1009D00002D12000082404430098C472002007B00C
:1009E000F0BDF2B50400009800782F2803D00098DD
:1009F00000785C2802D10098401C00900020A06084
:100A000000980078202807D200212000FFF7BEFDC3
:100A100005000020606130E069462000FFF726FFF6
:100A20000500EDB2002D28D12000FFF7AAFE050039
:100A3000A069C07A0700EDB2002D07D0EDB2042DF9
:100A40001BD1780701D40520050016E0780714D4DF
:100A500060690600F07AC00602D4052005000CE0AB
:100A6000707D0002317D08430004F17E0902B27EF0
:100A7000114389B20843A060CEE72800C0B2F2BD9E
:100A800038B504000D0001232A00210030316078C0
:100A900000F08AFC002801D003202AE01748205CDF
:100AA00000021749615C084380B21649884201D0B0
:100AB00002201EE06820205C00046721615C0902BE
:100AC00001436620205C08430F49884201D1002081
:100AD0000FE08420205C00048321615C0902014353
:100AE0008220205C08430849884201D1002000E0B0
:100AF000012032BD00000000B86700082F0200008E
:100B00002E02000055AA000046415400F7B588B0F7
:100B10000898006801900198007830380390039895
:100B20000A280AD2019840783A2806D10198801CF8
:100B3000019008980199016001E00020039003985A
:100B4000002801D00B20D5E1039804214843AD498A
:100B50000858040009990860002C01D10C20C9E153
:100B60002078002814D0607800F015FC69464870A1
:100B700068464078C0070BD40AA80078002805D042
:100B800068464078400701D50A20B3E10020B1E172
:100B90000020207003986070607800F0F3FB6946D5
:100BA000487068464078C00701D50320A2E10AA832
:100BB0000078002805D068464078400701D50A2013
:100BC00098E1002102912000FFF75AFF0700FFB2D1
:100BD000012F1BD1F72040002018049004980079C1
:100BE000002813D00498C07A01060498807A000483
:100BF00008430499497A090201430498007A08439A
:100C0000029002992000FFF73BFF0700FFB2032F7D
:100C100001D101206EE1FFB2002F01D00D2069E16A
:100C20003C20205C00023B21615C084380B28021B3
:100C30008900884201D00D205CE14720205C000241
:100C40004621615C084380B20600002E0ED1572079
:100C5000205C01065620205C000408435521615C9D
:100C6000090201435420205C08430600E66140204D
:100C7000205C69460870E07068460078012805D05D
:100C800068460078022801D00D2033E168460078DC
:100C900046433D20205C69460870A0706846007895
:100CA000002806D06846007869460978491E08423F
:100CB00001D00D201EE14220205C00024121615C38
:100CC000084320812089102100F0A0FB002901D0D9
:100CD0000D200FE14420205C00024321615C0843A9
:100CE00080B20690069800280ED15320205C0106A1
:100CF0005220205C000408435121615C0902014339
:100D00005020205C084306903F20205C00023E21DA
:100D1000615C08436946488068464088002801D1E4
:100D20000D20E7E0684640888019218909094018AC
:100D3000079006980799884201D20D20DAE00698BC
:100D40000799401AA17800F061FB059005980028EA
:100D500001D10D20CEE0012007000598804988428E
:100D600001D30220070005987E49884201D3032061
:100D700007000598801CA061029807994018A0629E
:100D800002986946498840182062FFB2032F18D1A3
:100D90002089002801D00D20ACE05F20205C0106F6
:100DA0005E20205C000408435D21615C0902014370
:100DB0005C20205C08436062A06904214843050070
:100DC00017E02089002801D10D2093E0206A8019C6
:100DD0006062FFB2022F03D1A5690220454308E0FB
:100DE000A069032148434008217E0A00D207D20FA0
:100DF0008518E0695C496918490A884204D20D20C7
:100E000078E000BFDC0C00200020C04320610020FF
:100E1000E060FFB2032F61D1002060710298612170
:100E2000615C09026022A25C114389B240186061D2
:100E30000123626921003031607800F0B5FA0028A2
:100E40004CD14A48205C00024949615C084380B2A9
:100E50004849884242D13320205C01063220205C80
:100E6000000408433121615C090201433020205C09
:100E700008434149884231D14048205C010640483E
:100E8000205C000408433F49615C0902014385205E
:100E90008000205C08433C4988421FD13B48205CCD
:100EA00001063B48205C000408433A49615C0902A2
:100EB000014387208000205C0843E0603648205CC6
:100EC00001063648205C000408433549615C09028C
:100ED000014386208000205C084320612770314850
:100EE0000088401C2F490880E0800020E06200203C
:100EF000207100200BB0F0BD38B505000C00002DAE
:100F000006D02878002803D0E888A4B2A04201D0F7
:100F1000092007E0687800F03EFAC00701D50320F9
:100F200000E0002032BD10B50200D2B2002A01D08C
:100F30000B2013E0D2B2042050431B4C2058030076
:100F4000002B01D000201870002901D0002008706B
:100F5000D2B204205043144C2150002010BD000098
:100F6000F60F0000F6FF0000FF0100002F02000056
:100F70002E02000055AA00005252614117020000E3
:100F80001602000015020000727241611F0200008B
:100F90001E0200001D0200001B0200001A020000D9
:100FA00019020000200D0020DC0C0020F2B58CB0EE
:100FB0000700150000203860ED06ED0EFE222A40E5
:100FC00002A90CA8FFF7A2FD060009A80890F6B236
:100FD000002E04D10C9902A8FFF703FD0600079824
:100FE0000400F6B2002E03D1002C01D10620060029
:100FF0001C20054267D0F6B2002E0CD0F6B2042EAB
:1010000003D102A8FFF7F1FB0600280008250543DD
:10101000079804000AE0680702D50820060005E0EA
:10102000E07A1121084201D007200600F6B2002E16
:1010300059D1280757D500F0D1F900900098A07336
:10104000009880B2000AE0730098000C20740098A9
:10105000000E60740020E07200202077002060778E
:101060000020A0770020E077607D0002217D08430A
:101070000004E17E0902A27E114389B20843019077
:101080000020A0760020E07600202075002060750A
:101090000298012101710198002824D00298C06AA9
:1010A000009001990298FFF7C5F90600F6B2002EEC
:1010B00019D102980199491EC16000990298FFF761
:1010C00033F806000FE0F6B2002E0CD1E07AC0062D
:1010D00002D50420060006E0A80704D5E07AC00780
:1010E00001D507200600F6B2002E08D1280702D548
:1010F0002800202505430298C06AF8613C62F6B2D8
:10110000002E20D1BD71607D0002217D08430004C6
:10111000E17E0902A27E114389B208433861E07F73
:101120000006A17F09040143607F00020843217F7C
:101130000143F9600020B8600020B861029838606F
:101140000298C088B8803000C0B20DB0F0BDFAB5CA
:1011500087B00400160007980390089800210160EA
:10116000A1882068FFF7C8FE694648716846407943
:10117000002802D068464079EDE0A079000601D54C
:101180000220E8E0A079C00701D40720E3E0E0688E
:10119000A168401A05900598B04201D20598060052
:1011A000002E00D1D6E0A0688021890000F02EF941
:1011B000002900D0A6E0A068400A21688978491E6D
:1011C00001406846017168460079002820D1A06876
:1011D000002802D12069049004E061692068FEF7CC
:1011E000EDFF04900498022805D2A07980210143E4
:1011F000A1710220AFE004980021C943884205D1C3
:10120000A07980210143A1710120A4E004986061CC
:1012100061692068FEF7C4FF0500002D05D1A079A3
:1012200080210143A171022095E0684600792D18C4
:101230003000400A02900298002838D02068807858
:1012400069460979029A8918884205D2206880780F
:1012500069460979401A0290029BDBB22A00039981
:101260002068407800F0A0F8002805D0A0798021FF
:101270000143A17101206EE0A079400611D5A0695B
:10128000401B029988420CD2802292002100243116
:10129000A069401B80239B005843039B1818FEF74E
:1012A0000FFF0298802189004843070045E0A0799C
:1012B000400613D50123A26921002431206840781B
:1012C00000F07FF8002805D0A07980210143A171AA
:1012D000012040E0A079BF210140A171A069A8428E
:1012E0000FD001232A00210024312068407800F02B
:1012F0005BF8002805D0A07980210143A17101206D
:1013000029E0A561802080000090A06880218900EC
:1013100000F07CF80098401A0700BE4200D2370067
:101320003A001700A0688021890000F06FF861186A
:1013300024313A000398FEF7C3FE0398C0190390C6
:10134000A068C019A06008980068C01908990860D2
:10135000F61B25E7002009B0F0BD38B401210022BA
:101360000368001D002B0BD00468001D0C4202D046
:101370004D466D1E64192260241D1B1FF0D0FAE734
:1013800032BC704738B50400FF2500F057F805005F
:101390002800C0B232BD00B50100C9B2002901D099
:1013A000012000E0002000BDF8B506000D0014008B
:1013B0001F00802292006102280000F053F80020F4
:1013C000F2BDF8B506000D0014001F008022920047
:1013D0006102280000F079F80020F2BD0048704753
:1013E000C0B34934CA0F00D0494203105A400DD04F
:1013F00004B500D3404200F009F8009AD20701D3A7
:101400004942124200D5404204BD0000094210D0BA
:1014100088420BD30122002300185B418B4200D38A
:101420005B1A5241F8D319001000704701000020E8
:10143000704708B500F04AF908BDFEE710B5002472
:1014400000F046F920213D4800F032FA0020040067
:101450000A2C04D2FF2000F001F9641CF8E700F028
:10146000CEF810BDF2B5050017000024FF2620219C
:10147000324800F020FAFF220099112000F060F8B5
:10148000002000F0AAF8002815D1FE2000F0A5F8F1
:10149000002810D100200400BFB2BC4205D200F0E9
:1014A000F4F828706D1C641CF6E700F0EEF800F00C
:1014B000ECF8002006002021204800F0F9F9FF2078
:1014C00000F0CCF83000C0B2F2BDF2B50500170054
:1014D0000024FF262021194800F0EDF9FF22009991
:1014E000182000F02DF8002000F077F800281AD11D
:1014F000FF2000F0B3F8FE2000F0B0F80020040058
:10150000BFB2BC4205D2287800F0A8F86D1C641C5C
:10151000F6E700F0BAF800F0B8F800F037F8052860
:1015200001D1002006002021044800F0C1F9FF206D
:1015300000F094F83000C0B2F2BD00000014004882
:10154000F0B583B004000D00170000266846402166
:10155000214301702800000E694648702800000CE5
:10156000694688702800000A6946C87068462900E4
:1015700001716846477100200600062E05D26846B4
:10158000805D00F06BF8761CF7E7F7BD70B50024BE
:10159000412C1BD200F079F80600F606F60EF6B2E2
:1015A0003000052804D00B2805D00D2805D006E012
:1015B0000520050005E00B200EE00D200CE0FF20CB
:1015C0000500EDB2052D01D0641CE1E700F05DF8E7
:1015D0000028FBD03000C0B270BD38B50400384DD3
:1015E00000F053F8E4B2A04203D0002D01D06D1EEC
:1015F000F6E7002D01D1FF2000E0002032BD80B5CC
:101600002021304800F057F9952200210020FFF7F3
:1016100097FF0120FFF7E1FF002801D0FF201CE029
:101620002021284800F044F9FF2000F017F820217D
:10163000244800F040F9FF2200210120FFF780FF3D
:101640000020FFF7CAFF0028EAD120211D4800F042
:101650002FF9FF2000F002F8002002BD10B50400B1
:101660000221194800F0BEF90028F9D02100C9B2C2
:10167000154800F0A1F90121134800F0B3F9002842
:10168000F9D0114800F09DF910BD10B500240221D9
:101690000D4800F0A7F90028F9D0FF210A4800F012
:1016A0008BF90121084800F09DF90028F9D006487F
:1016B00000F087F904002000C0B210BD0000000057
:1016C000FF0F000000140048003001407047FEE7A3
:1016D00000B587B001218420C00300F009FB01217F
:1016E0008020400100F014FB202000906846022179
:1016F0000171684603214171684600218171684685
:101700000121C17169469020C00500F063F84020B6
:10171000009069469020C00500F05CF880200090A1
:1017200069469020C00500F055F8202000906846DA
:101730000121017168460021817168460121C17152
:101740006846032141716946214800F043F80022B0
:1017500005219020C00500F0B0F80022062190205D
:10176000C00500F0AAF8002207219020C00500F073
:10177000A4F868460021018102A882214900418025
:1017800002A8E021C900818002A80221C18002A82C
:101790000121018102A880218900418102A8002144
:1017A000818102A80021C18102A80721018202A92A
:1017B000064800F0BBF880214901044800F0F4F825
:1017C0000121024800F0E2F807B000BD00300140FE
:1017D00000140048F0B500220023002400252A0050
:1017E000102A55D2012595402B000D681D402C0074
:1017F0009C424BD10D79012D02D00D79022D1DD1C6
:1018000086680327BC46150002277D436746AF4024
:10181000BE43866086684F79BC46150002277D432B
:101820006746AF4037438760858801269640B543B9
:10183000858085888E7996402E43868006680327AA
:10184000BC46150002277D436746AF40BE43066095
:1018500006680F79BC46150002277D436746AF40F6
:1018600037430760C6680327BC46150002277D433F
:101870006746AF40BE43C660C668CF79BC46150018
:1018800002277D436746AF403743C760521CA7E736
:10189000F0BD00B502000020138A89B20B40002B76
:1018A00002D00123180001E000231800C0B200BDDF
:1018B00089B28161704701857047F8B40023002424
:1018C000D2B20D006D076D0F042675431600AE40B1
:1018D000330089B20D00ED100426754345190095BB
:1018E00089B20D00ED100426754345192F6A0F25A6
:1018F000AC460D006E07760F04256E436546B54075
:10190000AF43009D2F6289B20D00ED100426754390
:1019100045192D6A1D432C0089B20D00ED100426D7
:10192000754345192C62F1BC7047FEE730B40023C3
:10193000028813001A00C1239B0113401A000B8870
:10194000CC891C43CB8823430C891C434D892543F8
:101950008B892B4313430380828813001A001C4B8E
:1019600013401A008B88134383800A8A02820288FC
:1019700013001A00174B13401A004B8813430380BF
:10198000828B154C1440848330BC704700B5C9B2BB
:10199000002904D0028840231343038003E0028817
:1019A0000E4B1340038000BD82880D4B1340838093
:1019B00082880A4382807047002202000C32117034
:1019C00070470100002008000C30007870470000CC
:1019D000FFF00000FBFF0000FFF70000BFFF00006A
:1019E000FFEF000000B50200002013890B4202D077
:1019F0000123180001E000231800C0B200BDFEE77B
:101A000000B5C0B2002806D01D49096801220A436A
:101A10001B490A6005E01A49096801229143184AE6
:101A2000116000BD00B5C0B2002806D01549096894
:101A300001220A4313490A6005E01249096801229C
:101A40009143104A116000BD0F4909680F4A0A40CE
:101A50000D490A600C49096882B20A430A490A60C2
:101A6000064909680A4A0A4004490A6003490968A4
:101A70000200120C0A4301490A607047301002400C
:101A8000341002402410024004100240FFBFFFFF48
:101A9000FFFEFFFFFEB50400002500260020029097
:101AA00000200190002000900027AA4800680C2127
:101AB00001400D002800002806D0042807D008287F
:101AC00008D00C2829D02BE0A34820602AE0A248A7
:101AD000206027E09F480068F021890301400E0044
:101AE0009C480068C021490201400291B60CB61C16
:101AF0000298002803D19948704307000BE0A048E2
:101B000000680007000F401C019093480199FFF7FF
:101B10007DFC70430700276004E0A248206001E0DC
:101B20008D4820608B480068F02101400D002D0990
:101B30009D48405D009020680099C84060608548DD
:101B40000068E021C90001400D002D0A9648405D63
:101B5000009060680099C840A0605A480068C005BD
:101B600002D49248E0600AE07A480068400403D456
:101B7000A0684008E06002E0A0688008E06051488A
:101B80000068400602D48A48206102E080200002FA
:101B900020614C480068C00602D46F48606101E0D3
:101BA00020686061474800688007800F002802D1E4
:101BB000A068A0611AE0434800688007800F0128F0
:101BC00002D12068A06111E03E4800688007800FC4
:101BD000022803D180200002A06107E03948006894
:101BE0008007800F032801D15B48A0613548006859
:101BF000C02189020140002902D1A068E06123E0F0
:101C000030480068C02189020140802040028142A2
:101C100002D12068E06117E02A480068C0218902EB
:101C2000014080208002814203D180200002E061D7
:101C30000AE024480068C02189020140C0208002D7
:101C4000814201D14448E0611E480068C021090377
:101C50000140002902D1A068206223E019480068F1
:101C6000C021090301408020C002814202D12068C6
:101C7000206217E013480068C0210903014080205A
:101C80000003814203D18020000220620AE00D4857
:101C90000068C02109030140C0200003814201D136
:101CA0002D48206207480068000602D43D48606263
:101CB00000E06762F7BD564909680143544A116064
:101CC000704700003010024000B5C0B2002807D0B5
:101CD0004F490968802212020A434D490A6005E013
:101CE0004B4909684B4A0A4049490A6000BD000057
:101CF00000B5C9B2002905D0474A12680243464BD5
:101D00001A6004E0444A12688243434B1A6000BDE3
:101D100000B5C9B2002905D0404A126802433F4BC2
:101D20001A6004E03D4A126882433C4B1A6000BDD1
:101D300000B5C9B2002905D0394A12680243384BB0
:101D40001A6004E0364A12688243354B1A6000BDBF
:101D5000000000000410024000127A0000093D005B
:101D600000B5C9B2002905D02E4A126802432D4B96
:101D70001A6004E02B4A126882432A4B1A6000BDA5
:101D80002C10024000B5C9B2002905D0264A1268BD
:101D90000243254B1A6004E0234A12688243224B17
:101DA0001A6000BD006CDC0200000020809FD5009E
:101DB0001280000010B501000022002300200C005A
:101DC000E4B26409E4B22200002A03D1174C24686B
:101DD00023000EE0012A03D10D4C2468230008E003
:101DE000022A03D1124C2468230002E0114C24681B
:101DF0002300C9B2CC06E40E22001C00D440E40744
:101E000002D50124200001E000242000C0B210BD52
:101E100020100240FF7FFFFF141002401810024004
:101E20001C1002400C100240101002400010024032
:101E300024100240341002400000000000000000A6
:101E40000000000000000000000000000000000092
:101E50000000000000000000000000000000000C76
:101E6000000C000C000C000C000C000C000C000C12
:101E7000000C000C0000000C000C00000000000032
:101E80000000001B001B001B001B001B00000000CB
:101E90000000000000000000000000000000000042
:101EA0000000000000008019801980198019C07F8F
:101EB000C07F80190033C07FC07F00330033003300
:101EC00000330000000000000000001E003F80758D
:101ED00080650074003C001E0007800580658065F9
:101EE0008075003F001E0004000400000000007028
:101EF00000D840D8C0D880D900730006000C801BE1
:101F0000C036C066C046C006800300000000000066
:101F10000000001E003F003300330033001E000CA1
:101F2000C03CC066806380618063C03E801C00004E
:101F3000000000000000000C000C000C000C000C65
:101F40000000000000000000000000000000000091
:101F500000000000000000008000000100030006F7
:101F600000060004000C000C000C000C000C000C1F
:101F7000000400060006000300018000002000109D
:101F80000018000C000C0004000600060006000605
:101F9000000600060004000C000C001800100020D1
:101FA0000000000C002D003F001E00330000000068
:101FB0000000000000000000000000000000000021
:101FC00000000000000000000000000C000C000CED
:101FD000000CC0FFC0FF000C000C000C000C000047
:101FE00000000000000000000000000000000000F1
:101FF00000000000000000000000000000000000E1
:102000000000000C000C00040004000800000000A8
:102010000000000000000000000000000000001EA2
:10202000001E000000000000000000000000000092
:1020300000000000000000000000000000000000A0
:1020400000000000000000000000000C000C000078
:10205000000000000000000300030003000600066B
:1020600000060006000C000C000C000C0018001804
:1020700000180000000000000000001E003F0033B8
:10208000806180618061806D806D80618061806130
:102090000033003F001E00000000000000000006AA
:1020A000000E001E00360026000600060006000690
:1020B0000006000600060006000600000000000002
:1020C0000000001E003F807380618061800100037A
:1020D0000006000C001800300060807F807F000048
:1020E000000000000000001C003E006300630003CD
:1020F000000E000E00038001800180618073003FAC
:10210000001E00000000000000000006000E000E8F
:10211000001E001E0016003600360066807F807F9D
:102120000006000600060000000000000000007F1E
:10213000007F006000600060006E007F80638001AF
:10214000800180618073003F001E000000000000DD
:102150000000001E003F803380610060006E007F41
:1021600080738061806180618033003F001E0000C9
:10217000000000000000807F807F800100030003DA
:1021800000060006000C000C000C000800180018E7
:1021900000180000000000000000001E003F8063E7
:1021A000806180610021001E003F8061806180614C
:1021B0008061003F001E0000000000000000001EC3
:1021C000003F00738061806180618073803F801D6B
:1021D000800180610073003F001E000000000000CD
:1021E00000000000000000000000000C000C0000D7
:1021F00000000000000000000000000C000C0000C7
:1022000000000000000000000000000000000000CE
:10221000000C000C00000000000000000000000C9A
:10222000000C000400040008000000000000000092
:1022300080008003000E003800600038000E80032C
:10224000800000000000000000000000000000000E
:10225000000000000000807F807F00000000807F81
:10226000807F00000000000000000000000000006F
:10227000000000000000000000400070001C00078B
:1022800080010007001C00700040000000000000FA
:10229000000000000000001F803FC071C060C0004F
:1022A000C00180030007000E000C000C0000000CB1
:1022B000000C0000000000000000001E003F803104
:1022C00080718063806F806D806D806F806700603B
:1022D0000032003E001C0000000000000000000E64
:1022E000000E001B001B001B001B80318031803F53
:1022F000803F8031C060C060C0600000000000000E
:102300000000007C007E0063006300630063007EC9
:10231000007E0063806180618063007F007E00003A
:10232000000000000000001E003F8031806100605E
:102330000060006000600060006080618031003FEC
:10234000001E0000000000000000007C007F006311
:1023500080638061806180618061806180610063F1
:102360000063007E007C0000000000000000807F11
:10237000807F0060006000600060007F007F006080
:10238000006000600060807F807F0000000000002F
:102390000000807F807F0060006000600060007F40
:1023A000007F00600060006000600060006000006E
:1023B000000000000000001E003F803180610060CE
:1023C0000060006080638063806180618031803F55
:1023D000001E00000000000000008061806180613C
:1023E000806180618061807F807F806180618061A9
:1023F0008061806180610000000000000000003FFB
:10240000003F000C000C000C000C000C000C000C39
:10241000000C000C000C003F003F0000000000001A
:102420000000800180018001800180018001800125
:1024300080018001806180618073003F001E000088
:10244000000000000000C06080610063006600665C
:10245000006C0078007C006600660063806180612B
:10246000C06000000000000000000060006000602C
:10247000006000600060006000600060006000605C
:102480000060807F807F0000000000000000C071BD
:10249000C071C07BC07AC06AC06AC06EC064C060D0
:1024A000C060C060C060C060C0600000000000008C
:1024B000000080718071807980798079806D806D75
:1024C000806D8065806780678067806380630000BF
:1024D000000000000000001E003F003380618061AA
:1024E0008061806180618061806180610033003F34
:1024F000001E0000000000000000007E007F8063DE
:102500008061806180618063007F007E0060006088
:102510000060006000600000000000000000001E7D
:10252000003F0033806180618061806180618061F3
:10253000806580670033803F401E0000000000007F
:102540000000007E007F8063806180618063007F87
:10255000007E00660063006380618061C0600000EF
:10256000000000000000000E001F803180310030AC
:102570000038001E00078003806180618031003FC9
:10258000001E0000000000000000C0FFC0FF000CA3
:10259000000C000C000C000C000C000C000C000CDB
:1025A000000C000C000C0000000000000000806126
:1025B0008061806180618061806180618061806113
:1025C000806180618073003F001E000000000000F9
:1025D0000000C060C060C060803180318031001B6D
:1025E000001B001B001B000E000E000E000400006C
:1025F000000000000000C0C0C0C0C0C0C0C0C0C05B
:10260000C0CC804C804C805E805280528073806150
:1026100080610000000000000000C0C08060806198
:102620000033003B001E000C000C001E001F003B8E
:1026300080718061C0C00000000000000000C0C0C8
:102640008061806100330033001E001E000C000C0E
:10265000000C000C000C000C000C0000000000003E
:102660000000803F803F8001000300030006000C53
:10267000000C0018001800300060807F807F000090
:1026800000000000000F000F000C000C000C000CFC
:10269000000C000C000C000C000C000C000C000CDA
:1026A000000C000C000F000F0000001800180018AC
:1026B000000C000C000C000C0006000600060006D2
:1026C000000300030003000000000000001E001EC5
:1026D00000060006000600060006000600060006CA
:1026E000000600060006000600060006001E001E8A
:1026F0000000000C000C001E00120033003380614B
:1027000080610000000000000000000000000000E8
:1027100000000000000000000000000000000000B9
:1027200000000000000000000000000000000000A9
:1027300000000000E0FF0000000000380018000C5E
:102740000000000000000000000000000000000089
:102750000000000000000000000000000000000079
:10276000000000000000001F803F80618001801F8A
:10277000803F80618063807FC038000000000000DF
:1027800000000060006000600060006E007F8073E9
:1027900080618061806180618073007F006E0000D5
:1027A0000000000000000000000000000000001E0B
:1027B000003F807380610060006080618073003F33
:1027C000001E000000000000000080018001800168
:1027D0008001801D803F80738061806180618061A5
:1027E0008073803F801D000000000000000000009A
:1027F000000000000000001E003F00738061807F29
:10280000807F00608071003F001E0000000000001B
:102810000000C007C00F000C000C807F807F000C00
:10282000000C000C000C000C000C000C000C000054
:10283000000000000000000000000000801D803F3C
:10284000807380618061806180618073803F801DC2
:1028500080018063007F003E000000600060006037
:102860000060006F807F8071806180618061806125
:1028700080618061806100000000000000000006AF
:10288000000600000000003E003E000600060006B4
:10289000000600060006000600060000000000001A
:1028A0000006000600000000003E003E0006000694
:1028B00000060006000600060006000600060046A8
:1028C000007E003C000000600060006000608061ED
:1028D00000630066006C007C00760063006380612A
:1028E000C0600000000000000000003E003E000646
:1028F00000060006000600060006000600060006A8
:1029000000060006000600000000000000000000B5
:1029100000000000000080DDC0FFC0CEC0CCC0CCF5
:10292000C0CCC0CCC0CCC0CCC0CC000000000000EB
:1029300000000000000000000000006F807F807138
:102940008061806180618061806180618061000060
:102950000000000000000000000000000000001E59
:10296000003F807380618061806180618073003F7F
:10297000001E000000000000000000000000000039
:10298000006E007F807380618061806180618073F0
:10299000007F006E006000600060006000000000CA
:1029A00000000000801D803F807380618061806135
:1029B00080618073803F801D8001800180018001E3
:1029C000000000000000000000000067803F0039A8
:1029D00000300030003000300030003000300000A7
:1029E0000000000000000000000000000000001EC9
:1029F000803F80610060007F803F80018061007FB8
:102A0000001E000000000000000000000008001888
:102A10000018007F007F0018001800180018001828
:102A20000018801F800F0000000000000000000060
:102A30000000000000008061806180618061806131
:102A4000806180618063807F803D00000000000025
:102A500000000000000000000000C06080318031F4
:102A60008031001B001B001B000E000E0006000042
:102A7000000000000000000000000000000080DDF9
:102A800080DD80DD0055005500550077007700227D
:102A90000022000000000000000000000000000014
:102AA0000000806100330033001E000C000C001E8B
:102AB00000330033806100000000000000000000CF
:102AC0000000000080618061803100330033001B12
:102AD000001B001B000E000E000E001C007C00708E
:102AE00000000000000000000000C07FC07F8001E7
:102AF00000030006000C00180030C07FC07F0000FB
:102B0000000000000000000000000000006380F7EB
:102B100080FF80FF80FF007F007F003E001C0008D8
:102B2000000000000000000000000000000080C164
:102B300080FF80FF80F780F780C180F780F780FFFB
:102B4000007F001C000800000000000000000000E2
:102B50000008001C003E003E0000003E003E003E1B
:102B6000003E003E003E001C003E00000000000051
:102B700000000000001C003A0076008E00EE00EE1F
:102B800000EE00EE00EE00EE00EE00EC00E800F0DB
:102B90000000000000000000000000000000000035
:102BA00000000000000000000010001000100010E5
:102BB0000010001000000010000000000028002895
:102BC00000280000000000000000000000000000DD
:102BD00000240024007C00240048007C00480048B9
:102BE0000000000000380054005000380014005469
:102BF000005400380010000000200054005800303D
:102C000000280054001400080000000000100028F4
:102C10000028001000340048004800340000000084
:102C20000010001000100000000000000000000074
:102C300000000000000800100020002000200020FC
:102C400000200020001000080020001000080008EC
:102C500000080008000800080010002000100038DC
:102C6000001000280000000000000000000000002C
:102C70000000000000100010007C00100010000098
:102C80000000000000000000000000000000000044
:102C90000000001000100010000000000000000004
:102CA00000000038000000000000000000000000EC
:102CB0000000000000000000000000100000000004
:102CC0000008000800100010001000100020002074
:102CD0000000000000380044004400540044004458
:102CE00000440038000000000010003000500010C8
:102CF0000010001000100010000000000038004418
:102D000000440004000800100020007C00000000C7
:102D10000038004400040018000400040044003897
:102D20000000000000080018002800280048007C6F
:102D30000008000800000000007C0040004000780F
:102D40000004000400440038000000000038004483
:102D500000400078004400440044003800000000B7
:102D6000007C00040008001000100020002000205B
:102D700000000000003800440044003800440044D3
:102D800000440038000000000038004400440044C3
:102D9000003C000400440038000000000000000077
:102DA0000010000000000000000000100000000003
:102DB00000000000000000100000000000000010F3
:102DC0000010001000000000000C00300040003037
:102DD000000C000000000000000000000000007C6B
:102DE0000000007C00000000000000000000000067
:102DF00000600018000400180060000000000000DF
:102E0000003800440004000800100010000000100A
:102E10000000000000380044004C0054005C0040FA
:102E200000400038000000000010002800280028A2
:102E30000028007C004400440000000000780044AA
:102E40000044007800440044004400780000000082
:102E5000003800440040004000400040004400387A
:102E6000000000000070004800440044004400449A
:102E70000048007000000000007C00400040007C22
:102E8000004000400040007C00000000007C00404A
:102E9000004000780040004000400040000000007A
:102EA0000038004400400040005C0044004400380A
:102EB00000000000004400440044007C0044004442
:102EC0000044004400000000003800100010001012
:102ED0000010001000100038000000000004000482
:102EE0000004000400040004004400380000000056
:102EF0000044004800500060005000480048004472
:102F00000000000000400040004000400040004041
:102F10000040007C000000000044006C006C005485
:102F200000440044004400440000000000440064E9
:102F3000006400540054004C004C004400000000A9
:102F40000038004400440044004400440044003879
:102F50000000000000780044004400440078004075
:102F600000400040000000000038004400440044DD
:102F7000004400440054003800040000007800447D
:102F8000004400440078004800480044000000006D
:102F900000380044004000300008000400440038BD
:102FA00000000000007C0010001000100010001055
:102FB00000100010000000000044004400440044E1
:102FC0000044004400440038000000000044004475
:102FD0000044002800280028001000100000000015
:102FE00000440044005400540054006C00280028A1
:102FF00000000000004400280028001000100028F5
:10300000002800440000000000440044002800287C
:10301000001000100010001000000000007C0004F0
:1030200000080010001000200040007C000000009C
:103030000018001000100010001000100010001008
:1030400000100018002000200010001000100010D8
:103050000008000800000000003000100010001000
:1030600000100010001000100010003000100028A8
:1030700000280044000000000000000000000000E4
:103080000000000000000000000000000000000040
:10309000000000FE00200010000000000000000002
:1030A00000000000000000000000000000380044A4
:1030B000003C0044004C0034000000000040004090
:1030C0000058006400440044006400580000000000
:1030D0000000000000380044004000400044003878
:1030E00000000000000400040034004C00440044D0
:1030F000004C0034000000000000000000380044D4
:10310000007C00400044003800000000000C00106B
:10311000007C0010001000100010001000000000E3
:10312000000000000034004C00440044004C003417
:10313000000400780040004000580064004400444F
:103140000044004400000000001000000070001067
:10315000001000100010001000000000001000001F
:10316000007000100010001000100010001000E0AF
:1031700000400040004800500060005000480044FB
:10318000000000000070001000100010001000107F
:103190000010001000000000000000000078005443
:1031A00000540054005400540000000000000000CF
:1031B0000058006400440044004400440000000043
:1031C000000000000038004400440044004400387F
:1031D00000000000000000000058006400440044AB
:1031E0000064005800400040000000000034004C23
:1031F00000440044004C00340004000400000000BF
:103200000058006400400040004000400000000002
:10321000000000000038004400300008004400387E
:103220000000000000200020007800200020002086
:1032300000200018000000000000000000440044CE
:1032400000440044004C0034000000000000000076
:10325000004400440028002800280010000000005E
:1032600000000000005400540054006C00280028A6
:1032700000000000000000000044002800100010C2
:10328000002800440000000000000000004400444A
:10329000002800280010001000100060000000004E
:1032A000007C0008001000200040007C00000000AE
:1032B0000018001000100010002000200010001066
:1032C0000010001800100010001000100010001076
:1032D000001000100010001000300010001000104E
:1032E000000800080010001000100030000000006E
:1032F00000000074004C000000000000000000000E
:103300001FB50400012180204002FEF701FD01A845
:1033100000F038FC8B482100FEF778F86946888079
:1033200001A8002141808848029001A80021018164
:1033300001A9864800F0F3FB684614210170684635
:1033400003214170684601218170684600F08EFEBD
:10335000012201217D4800F084FD01217B4800F01D
:10336000B5FD0021794800F02CFC1FBD80B57848E0
:1033700000214171764800218181754801218171C8
:103380007348642101717248002101817048002155
:1033900041816F48062101706D480A2141706C48D7
:1033A0000021C1706A480021C17169480321817000
:1033B00068481E21C18067486649C988818165487F
:1033C00004210181634863490989418161480921D8
:1033D0000171604896218900C1815E480121817494
:1033E0005C48012101825B49594800F001F801BDA8
:1033F00000220A600A68037813439A000A600A6888
:10340000C37813431A010A600A680B7913431A023E
:103410000A600A68437813439A020A60704780B5CD
:103420004C488089002821D020214B48FEF731FAF2
:1034300001281BD146488078032817D147480078D7
:10344000012813D14348006800F0F1FE414880890B
:10345000401E4049888141480021017001213B48BC
:1034600000F0AFFB3E4801F00BFB02E03D4801F0ED
:1034700007FB01BD80B537484089002810D034488B
:10348000807803280CD1374801F0FAFA3148008AD5
:1034900006214843344908702D480521817002E017
:1034A000304801F0EDFA01BD80B529488078052843
:1034B00018D12D480078002805D02B480078401EF0
:1034C000294908700EE02248032181702148408973
:1034D000401E204948811F481E49C98881812148D2
:1034E00001F0CEFA01BD80B51A488089002821D0AC
:1034F00001219020C005FEF7CCF901281AD115480A
:10350000807C002809D01348807C012812D110212A
:103510001148FEF7BEF901280CD10E48006800F0F2
:1035200086FE0C488089401E0A4988810C4801F0BB
:10353000A7FA06E00021054800F043FB07480121F7
:10354000017001BD60EA000080BB00000040014046
:10355000B00C0020800C002000040048290000204E
:10356000E8670008F46700083D0D002038B5040046
:103570000D00AF4800210170AE4800210170AE4837
:1035800000210170AD48002101702000E8400028B2
:1035900000D0D4E0E81F2100C140A54801702800F8
:1035A00009382100C140A4480170A3480078800771
:1035B000800FA149087028000D382100C1409F48A4
:1035C00001709E4800780007000F9C490870EDB21A
:1035D000152D0ADB280015382100C14095480170DF
:1035E000944894490978017002E0924800210170E2
:1035F000914800789249C978884210D18C48007867
:103600008F49097888420AD18A480078002805D075
:10361000884800788A494978884200D106E188487C
:103620008079002806D1844800788549C978884285
:1036300000D1FBE08148007810280BD18048407908
:10364000FF2800D1F2E07E48002101717C48012171
:103650008170EBE079480078002817D002281DD04F
:1036600018D3042822D01DD3062827D022D3082817
:103670002CD027D30A2831D02CD30C2836D031D3E4
:103680000E283BD036D30F283CD03FE06B480121B9
:1036900001703EE06948022101703AE06748042168
:1036A000017036E065480521017032E0634807216A
:1036B00001702EE061480A2101702AE05F480F2165
:1036C000017026E05D481121017022E05B48142161
:1036D00001701EE05948192101701AE057481E2157
:1036E000017016E055482321017012E0534828214B
:1036F00001700EE05148322101700AE04F484B2121
:10370000017006E04D486421017002E04B48002141
:1037100001704B48007949490978401A012806DAB6
:103720004748002101714648012181707EE04448EC
:10373000007942490978401A4149087176E0280029
:1037400017382100C140C9B2E8293DD1E91F200046
:10375000C840C0B280280ED0812814D0832827D03A
:10376000872818D088282BD08A2815D08B2817D0E6
:103770008C2819D028E0200029000F39C840C0B299
:1037800000F0B6F820E0200029000F39C840C0B290
:1037900000F099F818E017E0984801F071F913E08B
:1037A000964801F06DF90FE0944801F069F90BE0DB
:1037B000200029000F39C840C0B200F043F803E0F0
:1037C0008E4801F05DF9FFE70421002001F02CFC98
:1037D00001228B498B4801F00DFD0421042001F0EA
:1037E00023FC0123864A0021EDB2280080B201F0BB
:1037F0007FFC0122824984A001F0FCFC0123804A65
:103800000021200080B201F073FC1021042001F09F
:103810000BFC01F09FFD0123794A002180B201F0E9
:1038200067FC01F071FB754801F02AF931BD000019
:10383000390D00203A0D00203B0D00203C0D0020EA
:10384000B00C002010B50400E4B22000002816D00F
:10385000012817D0022816D0042815D0052814D026
:10386000062815D0072814D00B2813D00D2812D005
:10387000152811D0162810D017280FD00FE000F00F
:103880000FF80CE00BE00AE009E000F013F806E0A6
:1038900005E004E003E002E001E000E0FFE710BD26
:1038A00080B55A480021017158480021817000F00C
:1038B00030F801BD80B5554803218170FFF756FDF2
:1038C00000F027F801BD10B50400514800895049A7
:1038D0004989E4B20919884204DA4D484C490989FA
:1038E000418102E04A48E4B2448100F012F810BD80
:1038F00010B5040045480079E4B20019652803DBDF
:1039000042486421017101E04048047100F001F86F
:1039100010BD80B5002001F013FB3E49012001F0ED
:10392000B1FE04216A2001F07FFB0123344A032108
:103930003848807880B201F0DBFB0F21712001F064
:1039400073FB01232E4A02213048807880B201F0B7
:10395000CFFB19210E2001F067FB01222E492FA079
:1039600001F048FC01232C4A03212848007980B249
:1039700001F0BEFB0122284929A001F03BFC0123F4
:10398000254A03212248808901F0B2FB2D210E2017
:1039900001F04AFB0122204922A001F02BFC012367
:1039A0001D4A03211948407980B201F0A1FB012290
:1039B00019491DA001F01EFC0123174A03211448D8
:1039C000408901F095FB01F09FFA01BD10B504009C
:1039D000002001F0B5FA19210A2001F025FB01228F
:1039E0000D49200001F006FC01F08EFAFA20C0001B
:1039F00001F076FC014801F043F810BDF4670008BF
:103A000010000020C867000820000000B00C002053
:103A1000800C0020000D0020180000207B0000001A
:103A2000207D00007C000000207E000010B5040016
:103A30006B4884420AD1012180200001FEF790F9F1
:103A4000002180200001FEF78BF967E08020C0058F
:103A5000844208D101210120FEF794F900210120C0
:103A6000FEF790F95AE05F48844208D10121022014
:103A7000FEF788F900210220FEF784F94EE05A484B
:103A8000844208D101211020FEF77CF9002110208A
:103A9000FEF778F942E05548844208D10121202000
:103AA000FEF770F900212020FEF76CF936E050484F
:103AB00084420AD1012180204000FEF763F90021F1
:103AC00080204000FEF75EF928E04A4884420AD18F
:103AD000012180204002FEF743F9002180204002AE
:103AE000FEF73EF91AE0734884420AD10121802092
:103AF0008002FEF735F9002180208002FEF730F9C0
:103B00000CE06F48844209D101218020C002FEF7F9
:103B100027F900218020C002FEF722F910BD00B570
:103B2000002203881A002E4B984206D08023DB0522
:103B3000984202D02B4B984205D113005E4A1A409E
:103B400013004A881A43284B984205D013005B4A59
:103B50001A4013000A891A4302804B68C3620B881B
:103B600003851F4B984208D0224B984205D0514BF9
:103B7000984202D0524B984201D18B7A038601239E
:103B8000838200BD0021C9434160002101800021E2
:103B9000018100214180002181727047018582826C
:103BA0007047C162704700B589B2002904D002880D
:103BB00004231343038003E00288434B1340038034
:103BC00000BD00B5C9B2002904D002880123134307
:103BD000038003E002883E4B1340038000BD0000D9
:103BE000002C014000040040001000400014004080
:103BF000002000400040014000B5C9B2002907D0B4
:103C00004422825A80231B0213434422835205E03C
:103C10004422825A5204520C4423C25200BD70B551
:103C2000002200230024058C294E2E400684058C9A
:103C30002B0085882C00058B2A0015001E4A2A407F
:103C40001500244A2A4015000A882A431D001D4BEE
:103C50002B401D008B892B431D004B882B431E4D91
:103C6000A84208D01D4DA84205D0124DA84202D04E
:103C7000134DA84217D11D00144B2B401D00CB89BA
:103C80002B431D00104B2B401D008B882B43250020
:103C9000184C2C4025001D4C2C4025000C8A2C4330
:103CA00025004C8A2C43848002838D6845630384FD
:103CB00070BD0000004401408FFF0000FFFC0000C9
:103CC00000480140FDFF0000FBFF0000F7FF00007F
:103CD000FEFF0000FCFF0000002C014000400140FE
:103CE0000022038B1A001300094A1A400A43028378
:103CF00070470000FFFE00000022038B1A00130033
:103D0000044A1A400A43028370470000FFFD000086
:103D10008FFF0000F7FF000038B505000C00208879
:103D200000280AD12389A2886188280000F0F6F8CB
:103D3000E188280000F072F825E0208804280AD1E4
:103D40002389A2886188280000F005F9E18828000D
:103D500000F06CF817E0208808280AD12389A2888F
:103D60006188280000F020F9E188280000F067F859
:103D700009E02389A2886188280000F038F9E188E9
:103D8000280000F064F831BDF8B505000C000027EC
:103D900001266088002802D10220070001E00020EF
:103DA0000700A088012802D10220060001E00120BE
:103DB00006002088002816D12389A288618828005F
:103DC00000F0ACF8E188280000F028F823893200E0
:103DD00092B2390089B2280000F0BDF8E1882800CD
:103DE00000F024F815E02389A2886188280000F0FB
:103DF000B2F8E188280000F019F82389320092B265
:103E0000390089B2280000F089F8E188280000F024
:103E100005F8F1BD406B7047806B7047028B604BBB
:103E200013400383028B0A4302837047028B5D4B6E
:103E300013400383028B0B02134303837047828B6F
:103E4000574B13408383828B0A4382837047828B54
:103E5000544B13408383828B0B021343838370473D
:103E6000000000B5D2B2002A03D083890B438381BE
:103E700002E083898B43838100BD00B502000020EE
:103E8000138A0B4202D00123180001E0002318001E
:103E9000C0B200BD89B2CA430282704730B5020089
:103EA000002000230024158A0D402B0095890D4029
:103EB0002C009BB2002B05D0A4B2002C02D001250F
:103EC000280001E000252800C0B230BD89B2CA43F5
:103ED00002827047002203891A001300574A1A40D1
:103EE0000A43028170478288544B13408380828842
:103EF0000A438280704702894F4B13400381028935
:103F00000A430281704702894D4B134003810289A5
:103F10000A4302817047502281527047F0B4002456
:103F20000025068C474F37400784068B3400068CEB
:103F300035002600444C344026001C011443344311
:103F40002E00424D35402E0001250D43354304839C
:103F50000584F0BC7047F2B4002100240025068CD3
:103F60003B4F37400784068B3100068C34006E4689
:103F70003688360135000E00364931400E001903EF
:103F800031430E00110231432600334C34402600E9
:103F900010242C43344301830484F1BC7047000097
:103FA000F3FF0000FFF30000F2B40021002400251D
:103FB000068C2A4F37400784868B3100068C3400EC
:103FC0006E463688360235000E001F4931400E001D
:103FD0001901114331432600214C3440260080242E
:103FE00064002C43344381830484F1BC7047F2B4F1
:103FF000002100240025068C1A4F37400784868B49
:104000003100068C34006E463688360335000E00CB
:10401000104931400E00110231430E0019033143A3
:104020002600114C34402600802464012C43344384
:1040300081830484F1BC7047F8FF00008FFF00000B
:104040007FFF0000FEFF00000CFF0000F5FF0000F6
:10405000EFFF0000FF0C00005FFF0000FFFE00000C
:10406000FFF50000FFEF0000FF5F000010B500212A
:104070008278002A27D00278921004235A43164BE4
:104080009A581100FF2203789B079B0F0824634373
:104090009A4091430C0041788901C9B20278920795
:1040A000920F08235A43914021430278921004232F
:1040B0005A43094B995001220378DB06DB0E9A40E4
:1040C000064B1A6006E001220378DB06DB0E9A40FD
:1040D000034B1A6010BD000000E400E000E100E0C6
:1040E00080E100E000B58BB0012180208002FDF767
:1040F0000FFE01218020C002FDF70AFE8020800013
:10410000049004A80221017104A80321417104A8AC
:104110000021817104A80021C17104A98348FDF721
:1041200059FB002209218148FDF7C7FB8048FFF7B2
:104130007DFC8048029068460021818001A8002112
:10414000018101A80021418001A97948FFF7E7FC1E
:10415000012200217648FFF721FD68466021018396
:1041600006A801214180FF20AE30089006A800215A
:10417000818106A80021018206A96D48FFF74FFD45
:1041800008216B48FFF7B8FD01216948FFF719FDC9
:1041900001216748FFF730FD6748FFF747FC684695
:1041A0000021818001A8002141806448029001A87B
:1041B0000021018101A80021817201A95E48FFF759
:1041C000AEFC68460021018306A80121418006A8B3
:1041D000042181805948089006A80021818106A801
:1041E0000021C18106A80021018206A80021418288
:1041F00006A95148FFF713FD68461521017068466E
:10420000002141706846012181706846FFF72EFF4A
:1042100001214948FFF7F0FC002201214648FFF741
:1042200020FE00214448FFF7CCFC0BB000BD10B5C8
:1042300004002021200000F087F84149086041482F
:104240000121017008213A48FFF756FD0121384845
:10425000FFF7B7FC01213648FFF7CEFC0121BE482D
:10426000FFF7CAFC01220121BB48FFF7FAFD01213B
:10427000B948FFF7A6FC10BD80B532480078002889
:104280002ED0B6480078B6490978884228D3B54878
:1042900000210170B4480078002817D14021264839
:1042A000FFF71EFD26480068AD490978C840C007E1
:1042B00003D5AD480221017002E0AB480121017035
:1042C000A7480078401CA64908702DE050211A48E4
:1042D000FFF706FDA4480078401EA349087023E0BC
:1042E00040211548FFF7FCFC9D48002101709E48C5
:1042F000042101701248002101609A4801210170D7
:10430000104800210170002201210B48FFF7A9FD90
:1043100000210948FFF755FC00210548FFF7ECFC98
:1043200000210348FFF74DFC01BD000000040048D8
:104330000048014059030000004401407F70000024
:10434000E00C0020360D002030B5020000200023D4
:1043500000242300DBB2C9B28B4209D24000050021
:104360001400DC402000C007C00F28435B1CF1E7AD
:1043700030BD00B587B001210120FDF7D9FC012136
:104380008020C002FDF7B4FC0820019001A80221A2
:10439000017101A80121817101A80121C17101A848
:1043A0000321417101A99C48FDF714FA022203215F
:1043B0009948FDF782FA68460F210170684601218D
:1043C00041706846012181706846FFF74FFE012267
:1043D0002F218020C005FFF7E1FB68460421818181
:1043E00003A80221418003A80121818003A80021A4
:1043F000C18003A80F21018103A98020C005FFF718
:10440000C3FC00F047F9FA218900FCF7FFFFBE4921
:10441000086060218020C005FFF75CFD042180203A
:10442000C005FFF768FD80218020C005FFF76BFD08
:1044300001218020C005FFF7B6FBB3480068FA21D0
:1044400009014843FA218900FCF7E0FFA3490880ED
:10445000A348A24909880160012201218020C005EA
:10446000FFF7FFFC01218020C005FFF713FD0122AB
:1044700004218020C005FFF7F4FC04218020C00542
:10448000FFF724FD01218020C005FFF79AFB9E481D
:104490000068872109014843FA218900FCF7B6FF2B
:1044A000A549088098480068A52109014843FA21D8
:1044B0008900FCF7ABFFA149088093480068A04938
:1044C0004843FA218900FCF7A1FF9E4908808E48E5
:1044D00000689D494843FA218900FCF797FF9B49F2
:1044E000088089480068AF21C9004843FA21890043
:1044F000FCF78CFF9649088083480068C821490072
:104500004843FA218900FCF781FF924908807E48E0
:104510000068962189004843FA218900FCF776FF5C
:104520008D49088078480068C8214843FA218900ED
:10453000FCF76CFF89490880734800689621C90020
:104540004843FA218900FCF761FF8549088000F0A3
:10455000DDF807B000BD0000004401402600002047
:10456000370D0020270000202800002070B506002D
:104570000C007C484078012828D12100300000F050
:104580004DF80500EDB2FF2D14D0764800781F28B5
:1045900010DA74484068EDB22843724948607148A7
:1045A000406840006F4948606E480078401C6D4983
:1045B00008701AE06C48012101706A480178694866
:1045C0004068FEF7D3FF00F0A1F80EE065484078A0
:1045D00002280AD12100300000F008F80500EDB2F1
:1045E000002D02D15F480121417070BD00B502006D
:1045F0005148008882420DD350480088904209D328
:1046000050480088814205D350480088884201D331
:10461000002000E0FF2000BD0004004810B50200AB
:104620004C480088824233D34948008890422FD3B7
:104630004B480088484B1B8800245C430019474BBB
:104640001B88C01A81420DD345480088424B1B8805
:1046500000245C430019414B1B88C018884201D3D9
:10466000002016E03E4800883B4B1B88C0183B4B9F
:104670001B88C01A81420BD339480088364B1B88EF
:10468000C018364B1B88C018884201D3012000E0B7
:10469000FF2010BD70B58AB00024002600256846B2
:1046A000FDF7F8F931480068000A4007400F0400A0
:1046B000029806002F200500042C07D30220464351
:1046C00030006D1C2900FCF7A1FE04E030006D1CD9
:1046D0002900FCF79BFE0AB070BD0000340D0020DD
:1046E0002C00004080B51F48407801280AD11E48A0
:1046F000012101701B4801781A484068FEF736FF17
:1047000000F004F801BD0000E40C002080B515485D
:1047100000210170134802214170124800214160BC
:1047200001218020C005FFF7B5FB04218020C005D2
:10473000FFF7CCFB01BD00002C0D00202E0D00204A
:104740008C0A0000300D0020E40C0000320D002027
:10475000240D0020220D0020260D0020280D002011
:104760002A0D0020D40C0020380D00200410024037
:1047700000B593B001210120FDF7BAFA01213848B4
:10478000FDF7D6FA1020019001A80321417101A87C
:104790000021C17101A80321017101A99020C00568
:1047A000FDF718F868461121017068460321417031
:1047B0006846012181706846FFF758FC2948FFF7D9
:1047C00035F9294801F0DEF828480390284804907C
:1047D0001020059080208000069000200790802007
:1047E00008900020099000200A9000200B90802063
:1047F00080010C9000200D9003A91B4801F04FF997
:1048000001220221184801F079F968460A21017055
:104810006846032141706846012181706846FFF7B0
:1048200025FC0121104801F05BF901F0ADF90EA85B
:1048300001F0CFF904200E90002011900EA9002065
:1048400001F0AEF90121002001F0CCF90121002096
:1048500001F0DCF920210348FFF745FB13B000BD50
:104860001000002000100040300002401074004092
:1048700080080020F8B506000F00002400259149AB
:104880000020FCF750FB012231008D48FCF78EFB25
:104890008D4B802292008D498948FCF758FC0123FA
:1048A00004220021894800F0E9F904008848844284
:1048B00001D00120E1E0002304220421834800F01C
:1048C000DDF96E4908600123042208217F4800F0C9
:1048D000D5F904007F48844201D00220CDE00123B5
:1048E00004220C21794800F0C9F904007A48844276
:1048F00001D00320C1E0002304221021734800F0FE
:10490000BDF90400102C01D0012005000023022273
:1049100014216E4800F0B2F95849888057488088C1
:10492000012801D00420A8E00023022216216748B4
:1049300000F0A4F95149C8805048C088012801D02E
:1049400005209AE0002304221821604800F096F91F
:104950004A49886049488068FA214901884209D05B
:104960005E4988420AD05E4988420BD05D49884240
:104970000DD011E05C485D4901800FE05A485C4968
:1049800001800BE0584888210901018006E0564863
:104990008821C900018001E006206EE00023042286
:1049A0001C214A4800F06AF93449C86000230222F9
:1049B0002021464800F062F9304908820023022293
:1049C0002221424800F05AF92C4948822B48408A5B
:1049D000082801D0072050E0914824210160012DD2
:1049E00024D1002302222421384800F047F9040092
:1049F000002C01D0092040E0012304222621334865
:104A000000F03CF904008748844201D00A2034E0D9
:104A1000002304222A212D4800F030F904008048A8
:104A2000016820000A3008187D490860012304222B
:104A30007B480168C9B2254800F020F90400784895
:104A40000068001D764908607748844201D008203C
:104A500013E00023042272480168C9B21B4800F029
:104A60000DF9064948616E480068001D6C490860F0
:104A70006E486B49096801600020F2BD980C002067
:104A800010B504006A492000FFF7F4FE6949087078
:104A90006848007800280ED16748406907490860D7
:104AA000114801886548FFF77CF801216348FFF74A
:104AB00088F8002000E0012010BD0000100D00204B
:104AC0005C0600202C0400201C0D00208008002023
:104AD000464649524556415720746D66112B0000D9
:104AE0002256000044AC0000240000207017000093
:104AF0000111000080B55248006800281CD15148BF
:104B000080218900016050480021016000214B484C
:104B1000FFF757F84C480068022188434A4908606B
:104B200047480021016049480021017048490020A0
:104B3000FCF7F9F9FEF7EDFE44480078002837D17C
:104B400041480021016043488021890001604248BA
:104B5000424901604248434901603B484249016083
:104B60003848802189000160404B802292004049F2
:104B70004048FCF7ECFA32480068002805D030487D
:104B800000683D4940182E4908602D480068802182
:104B90008900884202D22A48002101602B48012165
:104BA000017029480068022101432748016036E06E
:104BB000254800210160274880218900016026489E
:104BC0002649016026482A4901601F48264901609C
:104BD0001C48802189000160244B802292002149D9
:104BE0002448FCF7B4FA16480068002805D0144899
:104BF0000068214940181249086011480068802166
:104C00008900884202D20E48002101600F4800212D
:104C100001700D480068022101430B48016001BD8D
:104C2000140D00207463616661746164F00C0020EF
:104C3000180D00202A000020980C002000100040D1
:104C4000100D002004000240300002403F0D002003
:104C50002C04002034000240380002401074004050
:104C60003C000240800A0020912000001C0D002022
:104C7000800800205C06002000FEFFFFF0B5040065
:104C80000025002000263500D2B295420CD2C9B2D0
:104C90004E19A65DB4462F00082677436646BE40EF
:104CA000064330006D1CEFE7DBB2012B01D106BAE1
:104CB0003000F0BD10B582B0040072B68021090248
:104CC000A74801F036F80128F8D080208001009034
:104CD00080239B0402227821A14801F00BF80221D5
:104CE0009F4801F026F80028F9D000219C4801F0E7
:104CF0001DF801219A4801F01CF80028F9D0210084
:104D0000C9B2974801F012F82021954801F011F836
:104D10000028F9D02021924801F01BF862B613BD9B
:104D200070B582B006000C0072B6802109028C4872
:104D300000F0FFFF0128F8D0802080010090802340
:104D40009B042200521CD2B27821854800F0D2FF89
:104D50000221834800F0EDFF0028F9D0402180486F
:104D600000F0E4FF01217E4800F0E3FF0028F9D0C5
:104D700000252800C0B280B2A4B2A0420CD2EDB28D
:104D8000715D774800F0D2FF0121754800F0D1FF36
:104D90000028F9D06D1CECE70121714800F096FF66
:104DA00020216F4800F0C5FF0028F9D020216C4871
:104DB00000F0CFFF62B673BD00B589B0012180203D
:104DC000C002FCF795FF01218020C003FCF7B0FF73
:104DD00001220A219748FCF770FD01220B2195481A
:104DE000FCF76BFDC0200001009068460321417173
:104DF00068460221017168460121C171684601219E
:104E0000817169468B48FCF7E5FC00200390002087
:104E1000049000200690002005908020000207905A
:104E2000B24802900020089002A94D4800F008FF07
:104E300001214B4800F03CFF642000F051FAAE2005
:104E4000FFF738FF2020FFF735FF1020FFF732FF74
:104E5000B020FFF72FFFC820FFF72CFF0020FFF73F
:104E600029FF1020FFF726FF4020FFF723FF8120B6
:104E7000FFF720FFFF20FFF71DFFA120FFF71AFF1C
:104E8000A620FFF717FFA820FFF714FF3F20FFF72A
:104E900011FFA420FFF70EFFD320FFF70BFF002028
:104EA000FFF708FFD520FFF705FFF020FFF702FF0F
:104EB000D920FFF7FFFE2220FFF7FCFEDA20FFF7E4
:104EC000F9FE1220FFF7F6FEDB20FFF7F3FE2020AD
:104ED000FFF7F0FE8D20FFF7EDFE1420FFF7EAFE4E
:104EE000AF20FFF7E7FE002000F02AF800F00CF8F2
:104EF000BD4800210180BC4800214180BA48012101
:104F00004171012009B000BD10B500200400E4B2D9
:104F1000082C14DA20005038C0B2FFF7CBFE002076
:104F2000FFF7C8FE1020FFF7C5FE8021E4B2802005
:104F30006043AE4A1018FFF7F3FE641CE7E710BDAC
:104F400010B50400E4B2002C01D1002100E0FF21E3
:104F50008022D200A54800F0FEFE10BD0000000037
:104F600000580040FEB504000D001600A4B2802CCD
:104F700002DAADB2402D00DB55E09B4800790028F5
:104F800005D0F6B2002E01D1012600E00026F6B2CF
:104F9000012E24D1A4B2ADB228000821FCF722FAD8
:104FA000802148432118914801910290A4B2ADB2EA
:104FB00028000821FCF716FA8021484320188B4965
:104FC000085C00900127ADB228000821FCF70AFA1E
:104FD0008F400098074302980199475423E0A4B2F8
:104FE000ADB228000821FCF7FDF9802148432218C2
:104FF0007E4901920291A4B2ADB228000821FCF7CB
:10500000F1F98021484320187849085C0090012775
:10501000ADB228000821FCF7E5F98F400098B843AD
:105020000299019A8854F7BD6F4A10806E4A5180E8
:105030007047000000040048F5B581B00F006A48D1
:10504000008839784018802805DA674840887978E0
:105050004018402801DB002047E000200500787858
:1050600085423AD268460079203879784843401919
:10507000022148437968085A060000200400387865
:10508000844228D23000A04000040ED56846027A3F
:10509000554840882900411889B2534800882300A8
:1050A000C01880B2FFF75EFF13E06846007A002860
:1050B00001D1012200E00022D2B24B4840882900F1
:1050C000411889B2484800882300C01880B2FFF711
:1050D00049FF641CD3E76D1CC1E743480088397859
:1050E00040184149088068460079FEBD0D0A31200C
:1050F000FCB583B004000F00A4B220003C49FCF7CB
:1051000071F969460870A4B2684600783849484386
:10511000241AA4B22000FA218900FCF763F9694639
:105120004870A4B268464078FA2189004843241A9E
:10513000A4B220006421FCF755F969468870A4B236
:105140006846807864214843241AA4B220000A21CA
:10515000FCF748F96946C870A4B26846C0780A21CD
:105160004843241A68462100017168466946097857
:105170003031017068464078303069464870684682
:1051800080783030694688706846C078303069462B
:10519000C870684600793030694608710020050003
:1051A000EDB2052D06DAEDB26846405D302801D13A
:1051B0006D1CF5E7FFB2002F05D0FFB2062F02DA13
:1051C0000520C01B05002E00F6B2052E09DA684640
:1051D000027C0399F6B26846805DFFF72DFF761CCE
:1051E000F2E705B0F0BD0000CC0C00202C00002040
:1051F0001027000070B504000E001500207800286C
:105200000CD02A00D2B231002078FFF715FF2178A8
:10521000884201D0207802E0641CEFE7207870BD5E
:10522000F0B503000C005BB2002B22D55BB218076F
:10523000000F08380500AD08042045437F4A5BB2E3
:105240001807000F08388008042148437B49085894
:10525000FF219E07B60F08277E43B1408843A10176
:10526000C9B29E07B60F08277E43B1400143515192
:105270001CE05BB2180080080421484370490858BC
:10528000FF219A07920F08256A4391408843A101A4
:10529000C9B29A07920F08256A43914001435BB255
:1052A0001800800804225043654A1150F0BD10B523
:1052B0000400601E80214904884201D301200EE0D1
:1052C000601E6049086003210020C043FFF7A8FF6B
:1052D0005D48002101605D4807210160002010BD8C
:1052E00080B55B490968009159490968009A891A93
:1052F000814201D200BFF7E701BD80B500F018F888
:1053000000F0BCFD00F039FDFFF756FDFFF730FA65
:10531000FEF72CF84F48C089FDF7F2FFFEF7E2FEDA
:10532000FFF727F800F0C6FE4B48FEF74FFBFEE7FD
:1053300080B54A480068FA21C900FCF767F8FFF712
:10534000B6FF002800D0FEE700210020C043FFF791
:1053500067FF01BD10B586B0012180208000FCF7F9
:10536000D7FC0020FCF770FB0120FCF749FB612013
:10537000FCF720FD0028FAD0394800F0A1FE68466D
:10538000002101710020049000200090042005906D
:1053900000200290002003906946314800F0A0FEF2
:1053A000012000F0C3FE01212D4800F0B1FE2D497F
:1053B0002B4800F0E1FE0028F9D02B4800210160C5
:1053C000002280214902264800F0C3FE012140202E
:1053D000FCF78EFC00200400E4B2082C14DA20480C
:1053E00000F0C2FE04211E4800F0C6FE0028F9D0DD
:1053F0001B4800F0BEFE80B200F0E0FE0421184819
:1054000000F0DAFE641CE7E70021154800F080FE9A
:10541000002180208000FCF77BFC144800F0CEFEC9
:1054200006B010BD00B512480068002804D010482E
:105430000068401E0E49086000BD00001CED00E041
:1054400000E400E014E000E018E000E010E000E01C
:10545000EC0C0020800C00200068000820000020D8
:10546000002401400100000128240140E555DABA7A
:10547000E80C002038B5040000254948CA21016025
:1054800047485321016000F025F8002802D1002090
:10549000050019E0434800684021884341490860FD
:1054A00040480068216801433E480160A0683E49C9
:1054B00008603D4800686168090401433A4801609A
:1054C00000F032F8012005003548FF210160280076
:1054D000C0B232BD80B50020009000200021664A95
:1054E000126852061CD4644A0023DB431360624AEC
:1054F000126840231A401100009A521C0092009A30
:105500008023DB019A4201D00029F0D05A4A126868
:10551000520602D50122100004E00022100001E032
:1055200001221000C0B202BD6C480068802188438F
:105530006A490860704780B5002000900020002173
:10554000184A1268920602D50122100026E0144A79
:10555000CA231360124A53231360474A1268A023D8
:105560009A43454B1A60444A126820231A4011009E
:10557000009A521C0092009A80231B029A4201D08A
:105580000029F0D03C4A1268920602D50122100090
:1055900001E000221000024AFF231360C0B202BDE6
:1055A000242800400828004010280040F1B50C00D5
:1055B000002700250098002806D1314800684006E1
:1055C00001D40020E0700AE02D480068400604D5B0
:1055D000207800F0CBF9070001E00020E07000988F
:1055E00000280BD020780004617809020143A078DC
:1055F0000843E178090401430F0013E0207800F02C
:10560000A9F90600607800F0A5F9F6B23104C0B23D
:1056100006020E43A07800F09DF93043E1780904BA
:1056200001430F001548CA2101601448532101604D
:10563000FFF750FF002802D10020050015E05D486B
:1056400038405D490860FFF76FFF0D48006880062D
:1056500009D4FFF770FF002802D10020050004E004
:105660000120050001E0012005000448FF21016040
:105670002800C0B2F2BD00000C28004024280040E1
:105680000828004070B505000C0000264A48006854
:10569000484901400E003000000C8006800E20704A
:1056A0003000000A4006400E607030004006400E98
:1056B000A0703000000C40210840E070002D0BD19C
:1056C000207800F053F92070607800F04FF9607096
:1056D000A07800F04BF9A07070BD00000C280040CD
:1056E000F3B581B0140000270198002809D15C4867
:1056F0000068400601D40020E070A068002817D0A0
:1057000016E057480068400604D5207800F02EF9CE
:10571000070001E00020E070A068002804D1207B91
:1057200000F024F9070003E0207B00F01FF90700D8
:105730000198002812D02078000461780902014302
:10574000A0780843E17809040143207B0006084360
:10575000A16801436068084307001EE0207800F05C
:10576000F9F80500607800F0F5F80600A07800F080
:10577000F1F8EDB22904F6B232020A43C0B2104386
:10578000E1780D040543207B00F0E4F8000628438F
:10579000A16801436068084307003248CA210160DC
:1057A000304853210160304807602E48FF210160D6
:1057B000F7BD00007F7F7F000028004038B5020061
:1057C0000020009000230020264CCA252560254C8F
:1057D00053252560C9B2002907D0214C2468144301
:1057E0001F4D2C600124200020E01D4C24689443B0
:1057F0001B4D2C601D4C246815002D0A25402B00E4
:10580000009C641C0094009C8025ED01AC4201D0FA
:10581000002BEFD0154C246815002D0A2540002DD3
:1058200002D10024200001E0012420000D4CFF25BE
:105830002560C0B232BD000030B40023094CCA2537
:105840002560084C53252560D2B214060C43230072
:10585000074C2360034CFF25256030BC70470000D7
:1058600008280040242800401C2800400C28004044
:105870004428004010B502003348CA230360324870
:1058800053230360C9B200290FD0314800681300C8
:105890000424A34303432E4803602A4800680423DA
:1058A00013400343274803600EE0294803681000B3
:1058B0000424A0438343264803602248006804234D
:1058C000134098431F4B18601F48FF23036010BD0F
:1058D00070B501000020002200231A4C2468042522
:1058E0002C4022001A4C24680C400D00AD0C0E0018
:1058F000EE403500ED0B154025432B00134C24687A
:105900000D002D0925402A00002B05D094B2002C53
:1059100002D00124200001E000242000C0B270BDAC
:1059200010B400210200120911008AB2802313432F
:10593000DA43064B1B68802423401343034A136059
:1059400010BC704740280040242800400C2800402C
:105950000828004000B50021C0B20A2802DB491C1B
:105960000A38F9E709010843C0B200BD002102006E
:10597000D2B212090A235A4311000007000F081877
:10598000C0B2704700B501686D4A0A40026000214C
:10599000016000214160002181600021C1606949EE
:1059A000884206D1684909680F220A4366490A609D
:1059B00074E06649884206D163490968F0220A43C7
:1059C00061490A606AE06249884207D15E49096814
:1059D000F02212010A435C490A605FE05D49884297
:1059E00007D159490968F02212020A4356490A6050
:1059F00054E05949884207D153490968F0221203FB
:105A00000A4351490A6049E05449884207D14E4946
:105A10000968F02212040A434B490A603EE05049EB
:105A2000884207D148490968F02212050A434649CD
:105A30000A6033E04B49884206D14B4909680F227E
:105A40000A4349490A6029E04849884206D1464943
:105A50000968F0220A4344490A601FE04449884229
:105A600007D141490968F02212010A433E490A6000
:105A700014E04049884207D13B490968F0221202EC
:105A80000A4339490A6009E03B49884206D1364950
:105A90000968F02212030A4333490A6000BD30B49A
:105AA0000023026813001A00344B13401A008B685D
:105AB0000C6A1C430B6923434C691C438B692343C9
:105AC000CC691C434D6A25438B6A2B431343036007
:105AD000CA6842600A6882604A68C26030BC704727
