:020000040800F2
:10000000501A002075ED000881CB000839CE000899
:1000100000000000000000000000000000000000E0
:100020000000000000000000000000003BCE0008BF
:1000300000000000000000003DCE00083FCE000898
:10004000CF4500081748000847CE0008D74C0008E5
:10005000739000087DCE0008DB900008A1CE000858
:10006000A7D2000863ED000873ED000899ED0008C1
:100070009BED00089DED00089FED0008A5D000084D
:10008000A1ED0008A3ED000800000000A5ED0008A8
:10009000B9CF000879D00008A7ED0008A9ED000845
:1000A000ABED0008ADED0008AFED0008B1ED0008C4
:1000B000B3ED00080000000071D00008000000004F
:1000C0000000000000000000000000000000000030
:1000D0000000000000000000000000000000000020
:1000E0000000000000000000000000000000000010
:1000F0000000800180018001800180018001800179
:1001000080018001800180018001800100000000E9
:1001100080018001000000000000000000000000DD
:1001200000000000CC00CC00CC00CC00CC00CC0007
:1001300000000000000000000000000000000000BF
:1001400000000000000000000000000000000000AF
:10015000000000000000000000000000600C600CC7
:10016000600C30063006FE1FFE1F300638071803ED
:10017000FE1FFE1F180318038C018C018C01000068
:1001800000008000E003F80F9C0E8C1C8C188C0083
:100190009800F801E007800E801C8C188C189C18C1
:1001A000B80CF00FE00380008000000000000000A9
:1001B0000000000000000E181B0C110C11061106A7
:1001C000110311039B018E01C038C06C6044604470
:1001D000304430441844186C0C3800000000000013
:1001E0000000E001F0033807180618063003F0019C
:1001F000F000F8009C310E33061E061C061C063F5C
:10020000FC73F0210000000000000000000000006E
:10021000000000000C000C000C000C000C000C0096
:1002200000000000000000000000000000000000CE
:1002300000000000000000000000000000000000BE
:100240000000000200038001C000C00060006000E8
:10025000300030003000300030003000300030001E
:1002600060006000C000C0008001000300020000C8
:10027000000020006000C000800180010003000336
:10028000000600060006000600060006000600063E
:100290000003000380018001C00060002000000016
:1002A000000000000000000000000000C000C000CE
:1002B000D806F807E001300338070000000000000E
:1002C000000000000000000000000000000000002E
:1002D000000000000000000000000000800180011C
:1002E000800180018001FC3FFC3F80018001800192
:1002F00080018001000000000000000000000000FC
:1003000000000000000000000000000000000000ED
:1003100000000000000000000000000000000000DD
:100320000000800180010001000180000000000049
:1003300000000000000000000000000000000000BD
:100340000000000000000000E007E00700000000DF
:10035000000000000000000000000000000000009D
:10036000000000000000000000000000000000008D
:10037000000000000000000000000000000000007D
:100380000000C000C00000000000000000000000ED
:100390000000000C000C000600060006000300032D
:1003A00000038003800180018001C000C000C00004
:1003B000600060000000000000000000000000007D
:1003C0000000E003F007380E180C0C180C180C187D
:1003D0000C180C180C180C180C180C18180C380EDB
:1003E000F007E00300000000000000000000000033
:1003F000000000018001C001F00198018801800126
:1004000080018001800180018001800180018001E4
:1004100080018001000000000000000000000000DA
:100420000000E003F80F180C0C180C180018001846
:10043000000C000600038001C000600030001800BE
:10044000FC1FFC1F00000000000000000000000076
:100450000000E001F807180E0C0C0C0C000C000654
:10046000C003C007000C001800180C180C18180C5A
:10047000F807E0030000000000000000000000009A
:100480000000000C000E000F000F800DC00C600C6F
:10049000600C300C180C0C0CFC3FFC3F000C000CEA
:1004A000000C000C00000000000000000000000034
:1004B0000000F80FF80F180018000C00EC03FC0700
:1004C0001C0E001C0018001800180C181C0C180E2C
:1004D000F807E0030000000000000000000000003A
:1004E0000000C007F00F381C181818000C00CC03CF
:1004F000EC0F3C0E1C1C0C180C180C18181C380E99
:10050000F007E00300000000000000000000000011
:100510000000FC1FFC1F000C000600060003800307
:100520008001C001C000E000600060007000300089
:10053000300030000000000000000000000000005B
:100540000000E003F007380E180C180C180C3806E1
:10055000F007F007180C0C180C180C180C18380CB5
:10056000F80FE003000000000000000000000000A1
:100570000000E003F007380E1C0C0C180C180C18C7
:100580001C1C381EF81BE0190018000C000C1C0E77
:10059000F807F0010000000000000000000000006B
:1005A0000000000000000000000000008001800149
:1005B000000000000000000000000000000000003B
:1005C0008001800100000000000000000000000029
:1005D0000000000000000000000000008001800119
:1005E000000000000000000000000000000000000B
:1005F0008001800100010001800000000000000077
:1006000000000000000000000000000000000000EA
:100610000010001C800FE003F8001800F800E00351
:10062000800F001C0010000000000000000000000F
:1006300000000000000000000000000000000000BA
:10064000F81F000000000000F81F0000000000007C
:10065000000000000000000000000000000000009A
:10066000000000000000000000000000000000008A
:1006700008003800F001C007001F0018001FC00765
:10068000F001380008000000000000000000000039
:100690000000E003F80F180C0C180C180018000CE0
:1006A000000600038001C000C000C0000000000080
:1006B000C000C000000000000000000000000000BA
:1006C00000000000E00718180420C229224A114443
:1006D00009440944094409221113E20C0240042090
:1006E0001818E007000000000000000000000000F3
:1006F000000080038003C006C006C006600C600CCA
:10070000301830183018F83FF83F1C700C600C603F
:1007100006C006C00000000000000000000000004D
:100720000000FC03FC0F0C0C0C180C180C180C0C23
:10073000FC07FC0F0C180C300C300C300C300C1873
:10074000FC1FFC070000000000000000000000008B
:100750000000C007F01F38381C300C70066006001F
:100760000600060006000600060006600C701C303D
:10077000F01FE00700000000000000000000000083
:100780000000FE03FE0F060E06180618063006309F
:100790000630063006300630063006180618060EFB
:1007A000FE0FFE030000000000000000000000003B
:1007B0000000FC3FFC3F0C000C000C000C000C0087
:1007C000FC1FFC1F0C000C000C000C000C000C00AB
:1007D000FC3FFC3F000000000000000000000000A3
:1007E0000000F83FF83F1800180018001800180023
:1007F000F81FF81F1800180018001800180018003B
:1008000018001800000000000000000000000000B8
:100810000000E00FF83F3C780E6006E007C00300E0
:10082000030003FE03FE03C007C006C00EC03CF079
:10083000F83FE00F00000000000000000000000092
:1008400000000C300C300C300C300C300C300C3004
:10085000FC3FFC3F0C300C300C300C300C300C30BA
:100860000C300C3000000000000000000000000010
:1008700000008001800180018001800180018001F1
:100880008001800180018001800180018001800160
:100890008001800100000000000000000000000056
:1008A000000000060006000600060006000600061E
:1008B000000600060006000600061806180638079F
:1008C000F003E00100000000000000000000000054
:1008D000000006300618060C060606038601C60050
:1008E00066007600DE008E0106030606060C06187A
:1008F000063006600000000000000000000000005C
:10090000000018001800180018001800180018003F
:100910001800180018001800180018001800180017
:10092000F81FF81F00000000000000000000000099
:1009300000000EE01EF01EF01EF036D836D836D875
:1009400036D866CC66CC66CCC6C6C6C6C6C6C6C6D3
:1009500086C386C300000000000000000000000005
:1009600000000C301C303C303C306C306C30CC30F3
:10097000CC308C310C330C330C360C360C3C0C3C2C
:100980000C380C30000000000000000000000000E7
:100990000000E007F81F1C380E70066003C003C09B
:1009A00003C003C003C003C003C006600E701C3840
:1009B000F81FE00700000000000000000000000039
:1009C0000000FC0FFC1F0C380C300C300C300C30CD
:1009D0000C18FC1FFC070C000C000C000C000C0099
:1009E0000C000C00000000000000000000000000EF
:1009F0000000E007F81F1C380E70066003E003C01B
:100A000003C003C003C003C007E006630E3F1C3CE5
:100A1000F83FE0F700C00000000000000000000008
:100A20000000FE0FFE1F063806300630063006387E
:100A3000FE1FFE0706030606060C061806180630FB
:100A4000063006600000000000000000000000000A
:100A50000000E003F80F1C0C0C180C180C001C0014
:100A6000F803E00F001E0038063006300E301C1C64
:100A7000F80FE00700000000000000000000000088
:100A80000000FE7FFE7F80018001800180018001E7
:100A9000800180018001800180018001800180014E
:100AA0008001800100000000000000000000000044
:100AB00000000C300C300C300C300C300C300C3092
:100AC0000C300C300C300C300C300C300C30181852
:100AD000F81FE00700000000000000000000000018
:100AE000000003600630063006300C180C180C1895
:100AF000180C180C380E30063006700760036003BF
:100B0000C001C00100000000000000000000000063
:100B100000000360C361C361C3616633663366333B
:100B20006633663366336C1B6C1B6C1B2C1A3C1EC5
:100B3000380E380E00000000000000000000000029
:100B400000000FE00C7018303018700C600EC007F9
:100B500080038003C003E006700C301C18180C30B2
:100B60000E6007E000000000000000000000000030
:100B7000000003C006600C301C383818300C6006CA
:100B8000E007C003800180018001800180018001B5
:100B90008001800100000000000000000000000053
:100BA0000000FC7FFC7F006000300018000C000695
:100BB00000038001C0006000300018000C00060037
:100BC000FE7FFE7F0000000000000000000000002B
:100BD0000000E003E003600060006000600060006F
:100BE0006000600060006000600060006000600005
:100BF00060006000600060006000E003E00300004F
:100C0000000030003000600060006000C000C000E4
:100C1000C000C001800180018001000300030003C7
:100C200000060006000000000000000000000000B8
:100C30000000E003E00300030003000300030003DF
:100C4000000300030003000300030003000300038C
:100C500000030003000300030003E003E0030000BF
:100C600000000000C001C0016003600360033006A3
:100C70003006180C180C00000000000000000000F6
:100C80000000000000000000000000000000000064
:100C90000000000000000000000000000000000054
:100CA0000000000000000000000000000000000044
:100CB0000000FFFFFFFF0000000000000000000038
:100CC00000000C000C000C000C000C000C000000DC
:100CD0000000000000000000000000000000000014
:100CE0000000000000000000000000000000000004
:100CF000000000000000000000000000F003F80702
:100D00001C0C0C0C000FF00FF80C0C0C0C0C1C0F36
:100D1000F80FF018000000000000000000000000C4
:100D2000000018001800180018001800D803F80F69
:100D3000380C181818181818181818181818380C0B
:100D4000F80FD803000000000000000000000000C1
:100D5000000000000000000000000000C003F007D9
:100D6000300E180C1800180018001800180C300E5F
:100D7000F007C003000000000000000000000000B9
:100D8000000000180018001800180018C01BF01F01
:100D9000301C181818181818181818181818301C9B
:100DA000F01FC01B00000000000000000000000059
:100DB000000000000000000000000000C003F00F71
:100DC000300C1818F81FF81F180018003818301CBD
:100DD000F00FC0070000000000000000000000004D
:100DE0000000800FC00FC000C000C000F007F00777
:100DF000C000C000C000C000C000C000C000C000F3
:100E0000C000C00000000000000000000000000062
:100E1000000000000000000000000000E00DF80FDE
:100E2000180E0C0C0C0C0C0C0C0C0C0C0C0C180EE6
:100E3000F80FE00D000C0C0C1C06F807F001000088
:100E4000000018001800180018001800D807F80F44
:100E5000381C1818181818181818181818181818EE
:100E60001818181800000000000000000000000022
:100E70000000C000C000000000000000C000C00072
:100E8000C000C000C000C000C000C000C000C00062
:100E9000C000C000000000000000000000000000D2
:100EA0000000C000C000000000000000C000C00042
:100EB000C000C000C000C000C000C000C000C00032
:100EC000C000C000C000C000C000F80078000000F2
:100ED00000000C000C000C000C000C000C0C0C06AC
:100EE0000C038C01CC006C00FC009C018C030C03F7
:100EF0000C060C0C000000000000000000000000C8
:100F00000000C000C000C000C000C000C000C000A1
:100F1000C000C000C000C000C000C000C000C000D1
:100F2000C000C00000000000000000000000000041
:100F30000000000000000000000000007C3CFF7E7C
:100F4000C7E383C183C183C183C183C183C183C11B
:100F500083C183C100000000000000000000000009
:100F60000000000000000000000000009807F80FDB
:100F7000381C1818181818181818181818181818CD
:100F80001818181800000000000000000000000001
:100F9000000000000000000000000000C003F00F8F
:100FA000300C181818181818181818181818300CA9
:100FB000F00FC0030000000000000000000000006F
:100FC000000000000000000000000000D803F80F3F
:100FD000380C181818181818181818181818380C69
:100FE000F80FD803180018001800180018000000A7
:100FF000000000000000000000000000C01BF01F07
:10100000301C181818181818181818181818301C28
:10101000F01FC01B0018001800180018001800006E
:10102000000000000000000000000000B007F00316
:1010300070003000300030003000300030003000F0
:101040003000300000000000000000000000000040
:10105000000000000000000000000000E003F003BA
:10106000380E180C3800F003C007000C180C380EAE
:10107000F007E00300000000000000000000000096
:10108000000000008000C000C000C000F007F007B2
:10109000C000C000C000C000C000C000C000C00050
:1010A000C0078007000000000000000000000000F2
:1010B00000000000000000000000000018181818D0
:1010C0001818181818181818181818181818381C7C
:1010D000F01FE01900000000000000000000000008
:1010E0000000000000000000000000000C18180CB8
:1010F000180C180C300630063006600360036003DD
:10110000C001C0010000000000000000000000005D
:10111000000000000000000000000000C141C141CB
:10112000C3616363636363633636363636361C1CCD
:101130001C1C1C1C0000000000000000000000003F
:101140000000000000000000000000001C38381CF7
:10115000300C600660036003600360036006300CBF
:10116000381C1C38000000000000000000000000D7
:1011700000000000000000000000000018303018DF
:1011800030187018600C600CE00CC006C0068003BC
:101190008003800380018001C001F0007000000026
:1011A000000000000000000000000000FC1FFC1F09
:1011B000000C000600038001C00060003000180031
:1011C000FC1FFC1F000000000000000000000000E9
:1011D000000000038001C000C000C000C000C000CB
:1011E000C00060006000300060004000C000C0002F
:1011F000C000C000C000C00080010003000000006B
:101200000000800180018001800180018001800157
:1012100080018001800180018001800180018001C6
:101220008001800180018001800180018001000037
:1012300000006000C000C0018001800180018001C9
:10124000800100030003000600030001800180010B
:101250008001800180018001C0006000000000006A
:10126000000000000000000000000000000000007E
:10127000F010F81F080F0000000000000000000040
:10128000000000000000000000000000000000005E
:10129000000000000000000000000000000000004E
:1012A00000000000000000000000002000200020DE
:1012B000002000200020002000000020000000008E
:1012C000000000500050005000000000000000002E
:1012D00000000000000000000000000900090012EA
:1012E000007F0012007F0012002400240000000094
:1012F0000010003800540050005000380014005412
:1013000000540038001000000000803000490049FF
:10131000004AC032200520092009C010000000004A
:101320000000000C00120012001400180025002319
:101330000023801D0000000000000040004000402D
:10134000000000000000000000000000000000009D
:1013500000000008001000100020002000200020E5
:10136000002000200010001000000040002000209D
:1013700000100010001000100010001000200020CD
:10138000000000200070002000500000000000005D
:101390000000000000000000000000000000000845
:1013A0000008007F000800080000000000000000A6
:1013B000000000000000000000000000000000002D
:1013C000000000200020004000000000000000009D
:1013D000000000000070000000000000000000009D
:1013E00000000000000000000000000000000000FD
:1013F000000000200000000000000010001000109D
:1014000000200020002000200040004000000000DC
:101410000000001000280044004400440044004440
:1014200000280010000000000000001000300050F4
:10143000001000100010001000100010000000004C
:1014400000000030004800440004000800100020A4
:101450000040007C00000000000000300048000454
:1014600000080010000800440048003000000000A0
:101470000000000800180018002800280048007C20
:1014800000080008000000000000003C00200040B0
:1014900000700048000400440048003000000000D4
:1014A0000000001800240040005000680044004480
:1014B00000280010000000000000007C000400086C
:1014C000001000100010002000200020000000008C
:1014D00000000010002800440028001000280044EC
:1014E0000028001000000000000000100028004448
:1014F0000044002C001400040048003000000000EC
:1015000000000000000000200000000000000000BB
:10151000000000200000000000000000000000208B
:10152000000000000000000000000020002000403B
:1015300000000000000400080030004000300008F7
:101540000004000000000000000000000000007C1B
:1015500000000000007C000000000000000000000F
:1015600000000000004000200018000400180020C7
:10157000004000000000000000000038006400444B
:10158000000400080010001000000010000000001F
:101590000000800F4010A02EA0512051205120515A
:1015A0002053C04D202040100000000800140014FB
:1015B00000140022003E0022004100410000000013
:1015C0000000003C002200220022003C00220022F9
:1015D0000022003C000000000000000E001100216D
:1015E00000200020002000210011000E000000005B
:1015F0000000003C002200210021002100210021E8
:101600000022003C000000000000003E00200020FE
:101610000020003E002000200020003E00000000CE
:101620000000003E002000200020003C00200020A0
:1016300000200020000000000000000E001100212A
:1016400000200027002100210011000E00000000F2
:1016500000000021002100210021003F0021002185
:1016600000210021000000000000002000200020D8
:1016700000200020002000200020002000000000AA
:1016800000000008000800080008000800080048E2
:101690000048003000000000000000220024002864
:1016A0000028003800280024002400220000000048
:1016B000000000200020002000200020002000204A
:1016C0000020003E000000000000802080318031BA
:1016D0008031802A802A802A802A8024000000000D
:1016E00000000021003100310029002900250023DD
:1016F00000230021000000000000000C0012002167
:1017000000210021002100210012000C0000000037
:101710000000003C002200220022003C00200020AB
:1017200000200020000000000000000C001200213A
:1017300000210021002100210016000D0001000001
:101740000000003E002100210021003E0024002274
:1017500000218020000000000000001C0022002268
:101760000020001C000200220022001C00000000DB
:101770000000003E000800080008000800080008FB
:1017800000080008000000000000002100210021E6
:1017900000210021002100210012000C00000000A7
:1017A0000000004100410022002200220014001429
:1017B000001400080000000000004044404A402A95
:1017C000802A802A802A802A802A001100000000B6
:1017D000000000410022001400140008001400144E
:1017E0000022004100000000000000410022002211
:1017F00000140008000800080008000800000000AD
:101800000000007E0002000400080010001000200C
:101810000040007E0000000000000030002000209A
:1018200000200020002000200020002000200020B8
:101830000000004000400020002000200020002088
:1018400000100010000000000000006000200020D8
:101850000020002000200020002000200020002088
:1018600000000010002800280028004400000000AC
:101870000000000000000000000000000000000068
:101880000000000000000000000000000000007EDA
:1018900000400020000000000000000000000000E8
:1018A0000000000000000000000000000000003800
:1018B00000440004003C00440044003C00000000E0
:1018C0000000004000400058006400440044004410
:1018D000006400580000000000000000000000301C
:1018E0000048004000400040004800300000000078
:1018F0000000000400040034004C00440044004494
:10190000004C00340000000000000000000000381F
:1019100000440044007C0040004400380000000007
:1019200000000060004000E0004000400040004037
:1019300000400040000000000000000000000034F3
:10194000004C004400440044004C003400040044B7
:10195000000000400040005800640044004400447F
:10196000004400440000000000000040000000406F
:1019700000400040004000400040004000000000E7
:1019800000000040000000400040004000400040D7
:10199000004000400040004000000040004000487F
:1019A0000050006000500050004800480000000057
:1019B0000000004000400040004000400040004067
:1019C0000040004000000000000000000000005245
:1019D000006D00490049004900490049000000002D
:1019E000000000000000005800640044004400446F
:1019F0000044004400000000000000000000003827
:101A0000004400440044004400440038000000004A
:101A1000000000000000005800640044004400443E
:101A20000064005800400040000000000000003446
:101A3000004C004400440044004C00340004000406
:101A40000000000000000050006000400040004026
:101A500000400040000000000000000000000030D6
:101A6000004800400030000800480030000000003E
:101A700000000040004000E0004000400040004006
:101A80000040006000000000000000000000004472
:101A90000044004400440044004C003400000000B6
:101AA0000000000000000044004400280028002836
:101AB00000280010000000000000000000000049A5
:101AC0000049005500550055005500220000000057
:101AD000000000000000004400280028001000283A
:101AE0000028004400000000000000000000004446
:101AF00000440028002800280010001000100010EA
:101B00000000000000000078000800100020002005
:101B100000400078000000000000001000200020BD
:101B20000020002000400020002000200020002095
:101B300000000020002000200020002000200020C5
:101B40000020002000200020000000400020002095
:101B50000020002000100020002000200020002095
:101B600000000000000000000074005800000000A9
:101B700000000000000000000000000000700050A5
:101B80000050005000500050005000700000000055
:101B90001848016800290ED1802149028160090995
:101BA00041600021C943C160016104214161124AC1
:101BB0001160124901600120704730B407230C0006
:101BC00008341C4201D1002304E008240D0008352C
:101BD000641B2340C918D21A8161C26001231343D8
:101BE0004B60891828224A6002490969C16130BCEA
:101BF00070470000C4150020E41300206859883C99
:101C0000F0B585B0070007200C000834044201D16C
:101C1000002404E008240D000835641B0440091961
:101C2000039111000831014201D1002004E0082194
:101C300014000834091B084014180398C518201A0A
:101C4000C61A0320184303994860A54201D301F046
:101C500063FA2079C00701D401F05EFA102E01D298
:101C600001F05AFAB869844207D1F8688019F8601F
:101C7000BD610121014369606BE17869844208D14B
:101C8000B8688019B8607D610121014369602850FE
:101C90005FE160688107890F012900D0BFE007215B
:101CA00088430490C00820283DD2A1680091E168D3
:101CB000019102900198844201D101F02DFA00981F
:101CC000844201D101F028FA606807218843029913
:101CD000C900884201D001F01FFA0098019988429A
:101CE00006D138680121029A91408843386093E018
:101CF0000298C0003818009902002832914203D09F
:101D00003A69914200D285E001992830814203D09E
:101D10000846396988427DD300980199C1600198CD
:101D20000099816078E0A0690190E168A14209D042
:101D3000A06800913969884224D30099C160009954
:101D4000886021E02000143001680091002909D149
:101D50002000103001680091002915D002E0080031
:101D600001680091009914310A68002AF7D100999E
:101D700010310A68002AF2D13969884202D3002161
:101D8000016001E001F0C8F90198002844D09820D2
:101D90004000E16989007918081801688C420AD16D
:101DA00000990160002915D178680121E26991400C
:101DB0008843786030E001983969884208D3006927
:101DC000A0420198009901D1016103E0416101E065
:101DD00001F0A2F9009800281ED0386900998142CC
:101DE00018D3019A8A612169002908D0814204D35D
:101DF000009801610098886101E001F08DF9606947
:101E0000002809D03969884204D3009948610099B3
:101E1000816101E001F080F90498241836186068A7
:101E20000121884360600124012030436860AE5185
:101E3000F008202823D20090C000381828300190E4
:101E40000290102E01D201F067F9009884403868A2
:101E5000204202D104433C6008E00198806839695F
:101E6000884201D3029001E001F056F901988560A3
:101E70000298C5600298A8600198E86069E0300A9D
:101E800001D1002025E00904884201D31F2020E071
:101E9000FF21C9434118090C082211408840AE4A6D
:101EA0008218120C04231A4000929040AB4A821808
:101EB000120C02231A400E23591A009BC91A891AC0
:101EC0009040C00B08184100C01D3200C2402240A3
:101ED0008818982149008200BA185218E861002138
:101EE0006961296184407B68234203D11C437C6083
:101EF00015601CE012681F2801D1002302E019239D
:101F000040081B1A3000984000E022005368072464
:101F1000A343B3420FD0C30F9B00D318103340002C
:101F20001C68002CF1D13869834210D31D60AA616E
:101F3000ED60AD600DE090683B699A4207D398422E
:101F400005D3C5609560A860EA60A96101E001F071
:101F5000E3F80398083005B0F0BDFEB584B0060084
:101F6000B469DE204000301801688C4203D3426817
:101F700089188C4202D380680028F5D14168006836
:101F8000401802902F3801000831490701D1002183
:101F900005E0082102000832891A4907490F401854
:101FA00021001031884201D2009400E00090009896
:101FB00008300190009F18370025059A283A0499A7
:101FC0003000FFF7FAFD0198400701D001F0A4F8B6
:101FD00000981B2141600198DE21490071181022F0
:101FE00001F0B8F8DE20400004993150001D059939
:101FF0003150083006993150001F01993150029834
:1020000000E00F00391D07227A606D1C0A1D824214
:10201000F7D3022D01DA01F07FF80098A04200D139
:1020200098E0011B426801239A4342600125012286
:102030000A4362600160C80820281FD20090C000D7
:10204000371828370197102901D201F065F8009858
:1020500085403068284202D10543356007E0B86802
:102060003169884201D3019001E001F055F8BC606C
:102070000198C4600198A060E7606BE0080A01D194
:10208000002025E01A04904201D31F2020E0FF2207
:10209000D2438218120C08231A4090402E4BC318CA
:1020A0001B0C04273B40009398402C4BC3181B0C7F
:1020B00002273B400E27BA1A009FD21BD21A984023
:1020C000C00B10184200C01D0B00C3402B40D0189D
:1020D000982252008300F3189A18E061002363618C
:1020E0002361854073682B4203D11D4375601460E2
:1020F0001DE012681F2801D1002302E019234008C7
:102100001B1A080098400723DB4300E03A0055689B
:102110001D408D420FD0C50FAD0055191035400040
:102120002F68002FF2D13069854211D32C60A26153
:10213000E460A4600EE0906831698A4208D3884266
:1021400006D3C4609460A060E2600020A06101E05A
:1021500000F0E2FF07B0F0BD00F0FFFF00C0FFFF9E
:10216000F8B504000D00504E3068002801D1FFF78B
:102170000FFD01F009F8002800D192E0010002688B
:102180000020C043814200D18BE0D82040002018BD
:1021900003689B180360DA204000201807689F42FC
:1021A00000D21F000760A06900282BD120690028F9
:1021B00001D0814200D22161DE2040002150001D6B
:1021C0002250083000232350306860620020C04352
:1021D00020622000202306002836F660B660083012
:1021E0005B1EF8D13148844201D1283A25E0201FF6
:1021F0000068072398432018083889180A1A283AD3
:1022000001001AE0DE204000201800E0806800286D
:1022100017D043680668F3189942F7D1037B1B0770
:102220000FD4A769B7420CD34368F618B74208D257
:1022300099184160E0688218A1692000FFF7BDFC91
:102240001FE02069814200D22161DE204000201879
:102250008B1800E0806800280FD006689E42F9D1F4
:10226000037B1B0709D4016043689A1842602B0066
:1022700032002000FFF7C4FCF2BD00232000FFF76E
:102280006CFEE06885420CD2411BE160A0694219F6
:10229000A26101230B4353600321294341600830AD
:1022A000F2BD0020F2BD0000C41500202C12002059
:1022B000F3B583B0002708464442000A01D100204C
:1022C00025E080214902884201D31F201FE0FF2121
:1022D000C9434118090C082211408840B04A8218AD
:1022E000120C04231A4090400F4BC3181B0C0225FC
:1022F0002B400E25691A891AC91A9840C00B081874
:102300004100049AC01DC240D007C00F0818982190
:1023100049008200039B9A185158002929D01F2890
:1023200004D1002305E000BF00C0FFFF19224308CD
:10233000D31A049A9A40002300E052004D68072601
:10234000B543049EAD1BA54202D20F002C000CD059
:102350004D69D60FB60089190969002D02D08D424A
:1023600000D02B000029E8D11900002931D1002F1D
:1023700042D101210122824050004242024303988F
:102380004068104000D173E1434203405B1E180BCC
:1023900010221040C3405A0908252A400192D34018
:1023A0009A0804252A400092D3405A0802252A4060
:1023B000D3405D08294098256D00019E8019009E3C
:1023C000801980184018CB40C01880000399081865
:1023D0004159002910D000E00100486807229043CD
:1023E000049A801AA04201D204000F000869002854
:1023F000F2D149690029F0D1002F00D138E10398CA
:1024000080680499401A844200D331E1039800693E
:10241000874200D22AE17D18601801907868072170
:1024200088430199884201D000F076FEAF4200D384
:102430001CE1B8690090FE68BE4207D0B8680399F5
:102440000969884220D3C660B0601FE038001430AC
:102450000668002E07D1380010300668002E15D00F
:1024600001E008000668310014310A68002AF8D13A
:10247000310010310A68002AF3D1039909698842B2
:1024800002D30021016001E000F046FE0098002820
:1024900043D098204000F9698900039A5118081820
:1024A00001688F420BD10660002E16D10398406858
:1024B0000121FA6991408843039948602DE0009812
:1024C0001169884207D30069B842009801D10661BA
:1024D00003E0466101E000F01FFE002E1DD00398CE
:1024E0000069864217D30098B0613869002808D087
:1024F00003990969884202D33061866101E000F0E6
:102500000BFE7869002808D003990969884202D334
:102510007061866101E000F0FFFD03200121102CB5
:1025200008D2019A10437860019838184268114324
:10253000416098E0049A104378600120204368606D
:102540002C51E008202818D2C200039B9C18283484
:10255000260081401868084202D10143196007E053
:10256000A0681969884201D3060001E000F0D4FD9B
:10257000A560F560AE60EC6075E0200A01D1002036
:102580002AE00A04904201D31F2025E0FF22D24313
:102590008218120C08231A4000929040004A01E071
:1025A00000F0FFFF8218120C04231A4001929040A1
:1025B000314A8218120C02231A400E23009E9B1BE4
:1025C000019E9B1B9B1A9040C00B18184200C01D17
:1025D0002300C3400B40D018982252008300039E72
:1025E000F3189A18E86100236B612B618140039B0B
:1025F0005B680B4205D11943039841601560AA61DD
:102600001EE011681F2801D1002202E019224008B3
:10261000121A2000904000E019004A6807239A43EC
:10262000A24210D0C20F92008A18103240001368E4
:10263000002BF1D103980069824212D31560A96181
:10264000ED60AD600FE08868039A1269914208D38B
:10265000904206D3C5608D60A860E9600020A86143
:1026600001E000F059FD0837380002E000F054FDA9
:10267000002005B0F0BD000000C0FFFFF2B586B03D
:102680000400616848420840401E010B10221140BE
:10269000C840420908231A40D040830804252B4033
:1026A000D8404508022635400095E84001274508F6
:1026B0003D40982676008918C918009A891849194A
:1026C000E84008188000201881590D000720C043F9
:1026D0004A680240069BD21A019209E011004A683A
:1026E0000240069BD21A019B9A4201D201920D0030
:1026F0000A69002AF2D149690029F0D121698D4285
:1027000000D2CBE00699691803910199069A8918BD
:102710000291696808400299884201D000F0FCFCEF
:102720000398854200D3B9E0A8690090EE68AE42F4
:1027300006D0A868216988421FD3C660B0601EE039
:10274000280014300668002E07D1280010300668D3
:10275000002E14D001E008000668310014310A6828
:10276000002AF8D1310010310A68002AF3D121691A
:10277000884202D30021016001E000F0CDFC009806
:1027800000283DD098204000E969890061180818A8
:1027900001688D4209D10660002E14D16168EA6992
:1027A00001209040814361602AE0009821698842BD
:1027B00007D30069A842009801D1066103E0466191
:1027C00001E000F0A9FC002E1AD02069864215D342
:1027D0000098B0612869002807D02169884202D397
:1027E0003061866101E000F097FC6869002807D03D
:1027F0002169884202D37061866101E000F08CFC9F
:1028000003200199102908D20299084368600298B0
:10281000281841680F4347603DE006990843686007
:102820000198384303994860019803990850A068BB
:10283000029000282BD06669C0080090202801D3A0
:1028400000F06AFC00980590C00020182830009025
:1028500004900298102801D200F05EFC0598874091
:102860002068384202D10743276008E0009880685A
:102870002169884201D3049001E000F04DFC0098EA
:1028800086600498C6600498B0600098F060019873
:10289000A060039860610835280002E000F03CFC6D
:1028A000002007B0F0BDF0B587B00400012000F0B3
:1028B000A1FCF52C00D31FE10B2C01D2102402E067
:1028C0000B3407208443E0080090B24D286800993B
:1028D000C8400327C1B239424CD0012600990122D9
:1028E000824388180090C000281828300290806821
:1028F00001900098C0000390019840680721884328
:102900000399884201D000F007FC0198846802997D
:10291000884201D100F000FC0198A04201D100F0F2
:10292000FBFB01984068072188430399884201D046
:1029300000F0F2FB0298A04206D12968009A01201B
:1029400090408143296009E02869844204D30298B9
:1029500084600298E06001E000F0DEFB039807432A
:102960000198476003980199081841680E43466032
:10297000019D01E1A968A14200D3D1E0002800D166
:10298000B0E00126009901228A405100009A90404F
:102990004A420A43024051421140491E080B10228C
:1029A0001040C1404A0908231A400192D1408A08C8
:1029B00004231A400092D1404A0802231A4002928E
:1029C000D1404A083240019BC018009BC018029BAE
:1029D000C0188018D14040180390C0002818283033
:1029E0000090806804900398C000029004984068AA
:1029F000072188430299884201D000F08DFB04989A
:102A00008068019004980099884201D100F084FB0D
:102A100004980199884201D100F07EFB0498406837
:102A2000072188430299884201D000F075FB009885
:102A30000199884206D12968039A01209040814378
:102A400029600CE008462969884206D3009801995C
:102A5000816001980099C16001E000F05DFB02987F
:102A6000001B0390274304984760049800190590C1
:102A70000398304305994860039805990850AF685A
:102A8000002F29D06C69F808202801D300F044FBFE
:102A9000F8080190C0002818283000900290102FEC
:102AA00001D200F039FB019886402868304202D1FB
:102AB00006432E6008E0009880682969884201D3A7
:102AC000029001E000F028FB009884600298C46046
:102AD0000298A0600098E0600398A860059868617B
:102AE000049D49E06868002837D021002800FFF7DE
:102AF000C5FD050014D046E03F20C043844202D308
:102B00000024E4430CE00B3407208443214D686823
:102B1000002805D021002800FFF7CAFB050032D1AC
:102B20001C4DAA68A24218D3111B6869032701260D
:102B3000102908D302196A61A9600E4356605150EA
:102B40002743476017E00021A96069611743476088
:102B500081184A6816434E600DE0E86884420DD241
:102B6000011BE960A8690219AA6101230B435360A4
:102B70000321214341600500083504E021002800BD
:102B8000FFF7EEFA0500012000F060FB280007B017
:102B9000F0BD00002C120020002800D17047F0B5D5
:102BA00083B008380400012000F024FB434D28695D
:102BB000844200D2A4E26168032003220A40012A71
:102BC00000D19DE20E0007229643A719CA0734D40C
:102BD0002268014200D195E2B61851426418296971
:102BE0008C4200D28CE269698C4200D101E1D008AC
:102BF000202800D383E0A1680191E1680091029050
:102C00000098844201D100F087FA0198844201D1F2
:102C100000F082FA6068072188430299C90088425F
:102C200001D000F079FA0198009988424AD12868C9
:102C30000121029A914088432860BC4200D35FE2A0
:102C40007868C10700D45BE2810700D5B1E169690A
:102C5000AA69974200D0DBE0E8688219EA60AC61BB
:102C60000120104360608C4202D100206861A8609E
:102C7000E869904200D345E211480068002801D17C
:102C8000FEF786FFA969002900D13BE2E868292800
:102C90000CD3DE225200AA181368994203D3546859
:102CA0001B19994202D39268002AF5D1E969814241
:102CB00000D327E20020C043E86123E22C12002069
:102CC000C41500200298C00028180199020028327B
:102CD000914202D02A6991420ED300992830814254
:102CE00003D008462969884206D301980099C1603B
:102CF000009801998160A0E700F00EFA9DE7A069B5
:102D00000090E168A14209D0A06801912969884238
:102D100024D30199C1600199886021E0200014301A
:102D200001680191002909D120001030016801914A
:102D3000002915D002E008000168019101991431C1
:102D40000A68002AF7D1019910310A68002AF2D1E5
:102D50002969884202D30021016001E000F0DCF91A
:102D60000098002800D168E798204000E1698900B8
:102D70006918081801688C420AD10199016000297C
:102D800015D168680121E26991408843686054E781
:102D900000982969884208D30069A04200980199E7
:102DA00001D1016103E0416101E000F0B5F9019852
:102DB000002800D141E72869019981429CD3009AFB
:102DC0008A612169002908D0814204D301980161F8
:102DD0000198886101E000F09FF96069002800D146
:102DE0002BE72969884287D301994861019981615C
:102DF00023E779680840032800D01EE7AE607868B2
:102E0000012188437860012030436060A65179E158
:102E10008F4208D1A8688019A8606C610121014324
:102E2000616020506EE1072188433618C0082028D1
:102E30003DD2B9680091F9680291019002988742E9
:102E400001D100F069F90098874201D100F064F9DE
:102E50007868072188430199C900884201D000F0B1
:102E60005BF900980299884206D128680121019AED
:102E700091408843286093E00198C0002818009989
:102E800002002832914203D02A69914200D285E0A3
:102E900002992830814203D00846296988427DD3AF
:102EA00000980299C16002980099816078E0B86941
:102EB0000190F968B94209D0B8680091296988423F
:102EC00024D30099C1600099886021E03800143053
:102ED00001680091002909D1380010300168009183
:102EE000002915D002E00800016800910099143112
:102EF0000A68002AF7D1009910310A68002AF2D135
:102F00002969884202D30021016001E000F004F940
:102F10000198002844D098204000F9698900691878
:102F2000081801688F420AD100990160002915D163
:102F300068680121FA6991408843686030E001982F
:102F40002969884208D30069B8420198009901D1E3
:102F5000016103E0416101E000F0DEF80098002823
:102F60001ED028690099814218D3019A8A61396973
:102F7000002908D0814204D300980161009888613B
:102F800001E000F0C9F87869002809D02969884271
:102F900004D3009948610099816101E000F0BCF818
:102FA000012030436060A6516869844208D1AE6058
:102FB000A8E0012188437860012030436060A65179
:102FC000F008202820D20090C0002F182837019741
:102FD000102E01D200F0A0F801210098814028684D
:102FE000084202D10143296007E0B8682969884294
:102FF00001D3019001E000F08FF8BC600198C4603B
:103000000198A060E7607DE0300A01D1002225E050
:1030100080214902884201D31F221FE0FF21C943BA
:103020004118090C082211408840394A8218120CB4
:1030300004231A409040374BC3181B0C02273B4017
:103040000E27791A891AC91A9840C00B081841002E
:10305000C01D3200C240D007C00F0A18982040009F
:10306000910069180B18E261002060612061012164
:1030700091406F680F4204D1394369601C60A361BD
:103080001DE019681F2A01D1002302E0192352080C
:103090009B1A32009A4000E039004B680727BB4377
:1030A000B3420FD0D30F9B00CB18103352001F68D0
:1030B000002FF1D12869834210D31C60A161E46024
:1030C000A4600DE08A682B69994207D39A4205D320
:1030D000D4608C60A260E160A06101E000F01CF8A7
:1030E000286A401E28620DD1E2204000285800289E
:1030F00002D080680028FCD10020C043286201E093
:1031000000F00AF8012000F0A1F803B0F0BD0000C3
:1031100000F0FFFF00C0FFFF80B5012000F0A4F821
:1031200001BD0268531C036011707047124207D042
:103130008B0706D00B78491C0370401C521EF7D831
:103140007047830706D00B78491C0370401C521E41
:10315000F9D1704770B4103A03D378C9103A78C0E7
:10316000FBD2530701D318C918C001D508C908C03C
:10317000D20704D30B880380891C801C002A01D548
:103180000B78037070BC704706490868002801D0AE
:103190000020704704480860044907229143091A37
:1031A000016070473C160020501A0020501C00207F
:1031B00070B52C4C206800281BD0251D082628003F
:1031C00000F05DF82D1D761EF9D12000243000F0AE
:1031D00058F82000283000F054F820002C3000F07F
:1031E00050F82000303000F04CF83434200000F06B
:1031F00048F870BDF8B507001A4C206800281BD1AC
:10320000251D0826280000F039F82D1D761EF9D15D
:103210002000243000F034F82000283000F030F88E
:1032200020002C3000F02CF82000303000F028F87E
:103230002000343000F024F801202060052F04D253
:10324000B8002018243000F01DF8F1BD052800D387
:10325000704780B5800003490818243000F013F847
:1032600001BD00001C15002080B5C046C046024AC2
:1032700011001820ABBEFBE7260002007047704724
:10328000704770477047704703E00B780370491C24
:10329000401C13005A1E002BF7D1704701E001704B
:1032A000401C13005A1E002BF9D17047F8B50500D9
:1032B0000F00EC6ABC422ED0287900281DD00123D3
:1032C000220029003031687801F036F900281FD13A
:1032D0002871286AE969401884420ED2EE7809E024
:1032E000E86924180123220029003031687801F0B0
:1032F00023F9761EF6B2022EF2D2002F0BD0012354
:103300003A0029003031687801F00CF9002801D02A
:103310000120F2BDEF620020F2BD70B50400002173
:10332000FFF7C4FF050059D1207803284ED16079FA
:1033300000284BD00026E662802292000021200067
:103340003030FFF7ABFFA04855212154401CAA2183
:1033500021545220302160543121605461203221A7
:10336000605441213322A154722285239B00E254F0
:103370005B1CE2545A1CA154511C6054481C216926
:10338000215420690004000ED11C60542069000CF7
:10339000491C60542069000E491C6054481CE168B7
:1033A0002154E0680004000E88496054E068000C75
:1033B000491C6054E068000E491C60540123626996
:1033C00021003031607801F0B7F8667100220021E9
:1033D000607801F0BFF8002800D00125280070BDFA
:1033E000891E8269921E914201D300207047827823
:1033F0005143806A08187047F1B50C00022C02D3C3
:103400008069844201D30120F2BDB14E009800785A
:10341000012804D05AD303283DD029D356E06008B0
:1034200027180098006A790A41180098FFF73EFFB4
:1034300000284BD13000384000990818303005780A
:103440007F1C086A790A41180098FFF72FFF0028AF
:103450003CD13E400098801930300078000228436B
:103460000500E00701D52809F2BD2805000DF2BDD1
:103470000098006A090A41180098FFF717FF002812
:1034800024D160000640009880193030417809024C
:1034900000780843F2BD0098006AC90941180098F5
:1034A000FFF704FF002811D1A00006400098801902
:1034B0003030C1780906827812040A434178090243
:1034C00011430078084300010009F2BD0020C04309
:1034D000F2BDF8B507000C0015000220022C71D3D4
:1034E000B9698C426ED27A4E3978012904D067D3FB
:1034F00003294BD039D363E0600820180090386A64
:103500000099490A41183800FFF7D0FE002857D12A
:10351000009830403A183032E00705D5107801079E
:10352000090F2801084300E0280010700098401C93
:10353000009001203871386A0099490A4118380012
:10354000FFF7B4FE00283BD100990E40BA19303283
:10355000E10701D5290906E01178F0230B40290A7B
:103560000907090F194311702AE0386A210A411826
:103570003800FFF79BFE002822D161000E40BA19E7
:10358000303215702904090E517019E0386AE109CA
:1035900041183800FFF78AFE002811D1A1000E4023
:1035A000BA193032D1780906090F090729430D00ED
:1035B00011700904090E5170290C9170290ED170F7
:1035C00001213971F2BD00002E0200001D02000031
:1035D000F8B507000E00022E0BD3B869864208D258
:1035E000002531003800FFF707FF04001DD0012C33
:1035F00001D1022519E00020C043844201D10125F8
:1036000013E0002231003800FFF763FF05000CD102
:1036100038690021C943884203D0401C3861012029
:1036200078712600B8698642DBD32800F2BDF8B570
:1036300005000F0007D1EE68002E02D0A86986426F
:103640000BD3012609E0FFF7D7FE022801D20120A3
:10365000F2BDA96988423AD33E003400641CA869CF
:10366000844202D30224022E28D321002800FFF72F
:10367000C3FE00281AD1174A21002800FFF729FFAE
:10368000002806D1002F06D0220039002800FFF7BD
:1036900020FF002814D1EC6028690021C94388422A
:1036A00014D0401E2861012068710FE00021C94339
:1036B00088420CD001280AD0B442CFD10020F2BDFC
:1036C000012802D10024E44300E001242000F2BDDF
:1036D000FF010000FFFFFF0F70B504000D00E58043
:1036E000A168012929D020688269914225D2002948
:1036F00003D10178032902D1416A002906D10021B2
:10370000E16001898D4218D2406A1BE08078060191
:1037100000E0AD1B2068ADB2B54210D3FFF76CFEE0
:1037200001000020C043814201D1012070BD022967
:1037300003D3206880698142EBD3022070BDE16031
:10374000FFF74EFE2909401820612807C00D2168A7
:10375000081830306061002070BDF8B504000D001D
:10376000E7887F1CBFB2002F22D0206900281FD01D
:10377000390760D1401C2061E1682068002903D12D
:103780000089874257DB13E03A0983785B1E1340B8
:1037900051D1FFF731FE0600022E14D30020C043A2
:1037A00086423DD0206881698E423ED3002D01D1F2
:1037B0000420F2BDE168FFF73AFF060001D10720BF
:1037C000F2BD012E01D10220F2BD0020C04386428D
:1037D00026D000212068FFF769FD002820D1802233
:1037E0009200002120683030FFF758FD310020683A
:1037F000FFF7F6FD2168C862002504E02068C16A71
:10380000491CC1626D1C20688178EDB28D4209D2DD
:103810000121017100212068FFF748FD0028EDD04B
:103820000120F2BDC16A491BC162E6603100206817
:10383000FFF7D6FD2061E7803807C00D2168081822
:10384000303060610020F2BD70B504000021FFF748
:1038500043FF002824D121692068FFF727FD0028B5
:103860001ED161690A78002A01D1042070BDCA7A8C
:1038700012070FD40B23A26900251E00731E002E11
:1038800006D00D781678AD1B521C491C002DF4D0C3
:10389000002D05D000212000FFF75FFF0028DAD0BF
:1038A00070BD10B5040004202169002917D02068DC
:1038B000FFF7FCFC002812D161690A78002A01D1C7
:1038C00004200EE0E52A04D02E2A02D0C97A090786
:1038D00009D500212000FFF740FF0028E4D0002890
:1038E00001D00021216110BD70B505000021FFF756
:1038F000F3FE040011D129692868FFF7D7FC040002
:103900000BD168690078E52809D0002807D001218B
:103910002800FFF722FF0400EDD0002C13D1296905
:103920002868FFF7C3FC04000DD16E692022002136
:103930003000FFF7B3FC0B22A9693000FFF7A4FCAD
:10394000286801210171200070BD0000F2B584B02B
:10395000806900900B222021FFF7A0FC00230020AB
:1039600000210822049C2468029406E0082A69D1F8
:103970002E2C67D108200B223300029C645C491C6A
:103980009E00F6B2029D6D180327212C03DB2F2C1D
:1039900001D05C2C05D104990D60212C4FDA042450
:1039A0004EE02E2CE2D09042E0D2802C03DB1E00B1
:1039B00003233343DBB2009E36182700813F1F2FBD
:1039C00003D32700E03F1D2F12D22D78491C2F0072
:1039D000403F3F2F03D32F00803F7D2F32D2571E11
:1039E000B8422FD23470401C009C2554401CC4E7C0
:1039F000039400BF22A501E0019D6D1C0195019D6E
:103A00002D78002D02D0039FBD42F5D1019D2D7868
:103A1000002D17D12500413D1A2D04D21D0002238F
:103A20002B43DBB209E02500613D1A2D05D21D00B4
:103A300001232B43DBB2203CE4B23470D6E70024F0
:103A4000002801D1062019E000980078E52802D16D
:103A5000009805210170082A00D133001F40012F72
:103A600002D12000102404430C201840042802D165
:103A70002000082404430098C472002005B0F0BD63
:103A8000222A2B2C3A3B3C3D3E3F5B5D7C7F000075
:103A900030B50B00093300220469002C32D0406994
:103AA0000024055D202D07D0052D00D1E5251D70D2
:103AB0005B1C641C082CF4D3047A202C0BD02E241D
:103AC0001C705B1C0824055D202D04D01D705B1C40
:103AD000641C0B2CF7D3C47A0C72C47F2406857F38
:103AE0002D042543447F24022C43057F25430D608C
:103AF000447E2402057E25438D80C47D2402807D82
:103B00002043C8801A7030BD32B5040008782F28D1
:103B100001D05C2801D1481C00900025A5600098C8
:103B20000078202810D200212000FFF7D5FD656124
:103B300032BD417D0902027D0A431104C27E120298
:103B4000807E10430843A06069462000FFF7FEFE18
:103B5000002813D12000FFF777FEA169C97A04225B
:103B6000002804D0042809D1114207D105E01142F0
:103B700004D16069C17AC906DBD4052032BD10B515
:103B8000040001230A0021003031607800F0CAFCF3
:103B9000002801D0032010BDC74820184178090231
:103BA000007808430E49884201D0022010BD6634D7
:103BB000C248A1780904627812020A4321781143AD
:103BC000814208D0A17F0904627F12020A43217F4B
:103BD0001143814201D1002010BD012010BD000021
:103BE00055AA0000FEB5150002681378303B0A2B79
:103BF00008D254783A2C05D1921C0260002B01D0D7
:103C00000B20FEBDAE4844680C60002C01D10C2096
:103C1000FEBD0426207800280AD0607800F07EFCE3
:103C2000C10705D4002D01D030420ED10020FEBDC9
:103C300000202070607000F06DFCC10701D50320EA
:103C4000FEBD002D03D0304201D00A20FEBD002071
:103C5000009000212000FFF792FF0500012D15D1F3
:103C6000F720400020180179002940D0C17A0906C8
:103C7000827A12040A43417A09021143007A084306
:103C8000009000992000FFF77AFF0500032D01D175
:103C90000120FEBD002D24D13C20205C00023B21F0
:103CA000615C0143F00181421BD14720205C00028E
:103CB0004621665C06430DD15720205C0006562144
:103CC000615C090401435520205C00020843542133
:103CD000665C0643E6614020205CE070012801D06C
:103CE000022877D146433D20205C0100A07071D0AE
:103CF000411E01406ED14220205C00024121675CE0
:103D000007432781380765D14420205C0102432006
:103D1000205C08430DD15320205C00065221615CD9
:103D2000090401435120205C02020A435020205C18
:103D300010433F21615C09023E22A25C0A430292C9
:103D400048D091193A0989180191884242D3401A02
:103D5000A17800F025FC00283CD0012101256B4A08
:103D6000904200D302256A4A904200D30325801C6A
:103D7000A0610098019A8018A0620098029A8018A9
:103D80002062032D12D1002F24D15F20205C000679
:103D90005E21615C090401435D20205C02020A434C
:103DA0005C20205C1043A16989000CE0002F11D039
:103DB0008019A269022D01D1510004E053009B1823
:103DC0005B08114059186062E069524A8918490A33
:103DD000884201D20D20FEBD0020C043206100209A
:103DE000E060032D5DD1607100986121615C090282
:103DF0006022A25C0A4382186261012321003031F3
:103E0000607800F08FFB00284BD14348205C000213
:103E10002949615C01434148814242D13320205C01
:103E200000063221615C090401433120205C00025C
:103E300008433021615C01433948814231D139481E
:103E4000205C00063849615C090401433748205C66
:103E50000002084385218900615C014334488142A6
:103E60001FD13448205C00063349615C09040143DA
:103E70003248205C0002084387218900615C0143CD
:103E8000E1602F48205C00062E49615C0904014373
:103E90002D48205C0002084386218900615C0143B3
:103EA0002161257006480088401C05490880E08093
:103EB0000020E0622071FEBD2E0200004641540049
:103EC0001C16002080B5002805D00278002A02D0F8
:103ED000C2888A4201D0092002BD407800F01EFB52
:103EE000C00701D5032002BD002002BD002801D07B
:103EF0000B207047154842680023002A00D0137039
:103F0000002900D00B70416000207047F60F0000C0
:103F1000F6FF0000FF0100002F02000055AA00007C
:103F20005252614117020000160200001502000003
:103F3000727241611F0200001E0200001D0200009B
:103F40001B0200001A020000190200001C160020CB
:103F5000F3B58BB000210160D006C00E6946087031
:103F600068460078FE22024001A90CA8FFF73AFE3D
:103F7000060008A8079004D10C9901A8FFF7C4FD1A
:103F80000600069D002E02D1002D00D10626042039
:103F9000694609781C22114200D190E0002E4BD0D6
:103FA000042E03D101A8FFF79FFC060068460078A5
:103FB0000821014368460170069D002E46D0002E60
:103FC00037D168460078000705D56846007820217B
:103FD0000143684601700B980199C96AC1610B9849
:103FE00005620B98694609788171687D0002297D18
:103FF00001430804E97E0902AA7E0A4302430B98A2
:104000000261E87F0006A97F09040143687F00027E
:104010000843297F01430B98C1600B980021816000
:104020000B9881610B98019901600B980199C988DF
:10403000818030000DB0F0BD69460978014201D0A1
:104040000826F6E7E87A1121084246D1684600784A
:104050000007C0D500F07AFA0700A8730004000E2C
:10406000E873380C2874380E68740020E8722877DA
:104070006877A877E877687D0002297D0143080406
:10408000E97E0902AC7E0C4304430020A876E87662
:1040900028756875019801210171002C91D0019853
:1040A000C76A2100FFF794FA060088D10198641EC0
:1040B000C46039000198FFF7F9F806007FE7002E89
:1040C000FCD1E97ACA0601D50426B2E76846007831
:1040D000800700D5C80700D473E70726A9E7F8B51D
:1040E00084B0040016000091049800210160A188AA
:1040F0002068FFF7E7FE002805D1A07901064DD41E
:10410000C00701D4072099E0E068A168401AB042D6
:104110001ED806001CE0A561A068C005C00D802166
:104120008900091A35008E4200D90D002A00211895
:1041300024310098FFF7A8F8009840190090A06873
:104140004019A06004980068401904990860761B23
:10415000002E72D0A168C805DED120684A0A837893
:104160005B1E1340DBB2002B01930DD1002901D15E
:10417000206902E06169FFF73FF902280AD30021B4
:10418000C943884253D0606161692068FFF728F90C
:10419000050005D1A07980210143A17102204DE0E5
:1041A00001982D18770A23D0206802908078019911
:1041B000C919884201D20199471AFBB22A00009915
:1041C0000298407800F0AEF9002830D1A07940067E
:1041D0000CD5A069401BB84208D280229200210071
:1041E00024314002009B1818FFF74EF87D02A3E728
:1041F000A07940060DD50123A26921002431206851
:10420000407800F099F9002811D1A079BF21014030
:10421000A171A069A84208D001232A0021002431FD
:104220002068407800F07EF9002800D173E7A0797B
:1042300080210143A171012000E0002005B0F0BD04
:1042400070B50400A1882068FFF73CFE00284CD11F
:10425000A1792025294248D048060FD50123A2691B
:10426000210024312068407800F066F9002801D050
:10427000012070BDA079BF210140A171E1692068D2
:10428000FFF714F8002830D1266AF07A0543F5725A
:10429000E0683077E0680004000E7077E068000C9A
:1042A000B077E068000EF0772069B07620690004EE
:1042B000000EF0762069000C30752069000C000AB1
:1042C000707500F043F9B0750104090EF175010C29
:1042D0003176000E7076A079DF210140A17120684F
:1042E000012101712068FFF718F870BD10B50400B6
:1042F000FFF7A6FF002801D10021216010BDF0B515
:1043000085B004000D00A1882068FFF7DBFD694639
:10431000087168460079002800D09DE0A079010668
:1043200066D4E168A94202D2800700D40D00A768D4
:104330000026A660002D5FD02068039080784002A0
:104340000290002F14D0781E029900F029F90090F5
:10435000681E029900F024F901000098814207D3F9
:104360007F1E0298401E8743A760ED1B61690EE027
:10437000216900290AD10398FFF759F901000129A1
:1043800032D00020C043814256D0216161610029B2
:1043900014D131E0FFF730F801000020C043814222
:1043A0004AD0022920D32068806981421CD26161F1
:1043B000A068029A8018A06002982D1A0298A8425C
:1043C00008D22068A2799207E4D5FFF730F90100FE
:1043D000E3D1029DA0684019A060E8050CD02068D8
:1043E000FEF7FEFF060005D1A07980210143A171EF
:1043F000022033E0680A3618A068C00523D0A269FD
:10440000964220D0A07940060CD50123210024310A
:104410002068407800F090F800280DD1A079BF21E5
:104420000140A1710123320021002431206840782D
:1044300000F078F8002805D0A07980210143A1710F
:1044400001200BE0A661A068E168814204D2E0602F
:10445000A07920210143A1716846007905B0F0BD23
:104460001AB584B004000022210004A8FFF7BAFBAB
:10447000002822D16846A06104992000FFF744FB80
:10448000002817D1606900280DD0C17AC90613D55C
:10449000417D0902027D0A431104C27E1202807E20
:1044A00010430843A0602068C088A080002120003D
:1044B000FFF712F9042800D1052006B010BD70B531
:1044C00084B004000E00A1882068FFF7FBFC0028E0
:1044D0001ED1002E04D100212000FFF7FDF817E0C7
:1044E0006846A0612000FFF7DCF90025042801D10F
:1044F000256101E000280BD131002000FFF7C8FA48
:1045000000212000FFF729F9042801D125610020AE
:1045100004B070BD80B500F05BF802BD010000D0B2
:104520000120704780B508001100802292004902E6
:1045300000F06DF8002002BD80B508001100802257
:104540009200490200F08BF8002002BD004870473D
:10455000C0B34934012904D00CD3032908D003D3B4
:1045600008E08020800204E080208000108001E0CC
:104570002020106000207047CA0F00D0494203106D
:104580005A400DD004B500D3404200F009F8009A1B
:10459000D20701D34942124200D5404204BD000077
:1045A000094210D088420BD30122002300185B413E
:1045B0008B4200D35B1A5241F8D3190010007047A8
:1045C00001000020704708B500F024F908BDFEE79F
:1045D00010B500F014FA20213B4800F0F5FA0A2447
:1045E000FF2000F0E3F8641EFAD100F0AFF810BD30
:1045F00080B5684601210170344800F0DFFA0004FC
:1046000002D56846002101706846007802BDF7B502
:1046100005000024FF262E4F2021380000F0D6FA96
:10462000FF220199112000F055F8002000F07DF8DC
:10463000002813D1FE2000F078F800280ED104E005
:1046400000F0CBF828706D1C641C68460089844219
:10465000F6D300F0C2F800F0C0F800262BE0F7B562
:1046600005000024FF26184F2021380000F0AEFA84
:10467000FF220199182000F02DF8002000F055F8D5
:10468000002818D1FF2000F091F8FE2000F08EF8ED
:1046900004E0287800F08AF86D1C641C68460089E4
:1046A0008442F6D300F099F800F097F800F028F86B
:1046B000052800D100262021380000F085FAFF20CF
:1046C00000F074F83000FEBD0014004800040048FB
:1046D0000014004830B583B000246D4640230343E6
:1046E0002B70080E6870080CA870080AE870297111
:1046F0006A71285D00F05AF8641C062CF9D337BDA6
:1047000038B5412400F069F8C506ED0E2800052DE6
:1047100005D00B2D08D00D2D06D0641EF2D100F06F
:104720005CF80028FBD0280032BD38B50400374DB6
:1047300002E0002D06D06D1E00F04FF8A042F8D127
:10474000002D01D1FF2032BD002032BD10B52E4C0E
:104750002021200000F03AFA952200210020FFF7E6
:10476000B9FF0120FFF7E1FF002801D0FF2010BDB5
:104770002021200000F028FAFF2000F017F8202167
:10478000200000F023FAFF2200210120FFF7A2FF02
:104790000020FFF7CAFF0028EAD12021200000F006
:1047A00013FAFF2000F002F8002010BD38B5040015
:1047B000174D0221280000F087FA0028F9D02100C7
:1047C000280000F067FA0121280000F07DFA002897
:1047D000F9D0280000F060FA32BD10B50C4C02216F
:1047E000200000F071FA0028F9D0FF21200000F02D
:1047F00051FA0121200000F067FA0028F9D02000CA
:1048000000F04AFA10BD000000140048FF0F00003D
:10481000003001407047FEE730B583B00500AC00C2
:10482000012100BF0CA0005900F02CFB680000BF64
:1048300015A10D5A00956846012101710021C18022
:1048400003214171A34804196946206800F074F9F6
:104850002068856137BD00000000080000000800E6
:10486000000008000000100081009A4A51584000E2
:1048700005A2105A088570478100964A5158400099
:1048800001A2105A8861704700040008001004005B
:10489000F0B585B004000F00A60001211FA08059CB
:1048A00000F0F0FA0121012000F0F6FA03A800213F
:1048B0000171C171650000BF34A0405B039003A982
:1048C0008548805900F038F9012F25D11AA0415BA5
:1048D000C9B200BF1CA0405BC0B200F059FB00BFD2
:1048E0001DA0405B019001A800210171002C03D0A4
:1048F000012C01D0082100E00C21417101248471B8
:1049000000F05AFB684600BF17A1495B0170032104
:104910004170847000F0A2FB05B0F0BD00000800FB
:10492000000004000000080000000800000008006B
:1049300000000800000002000D0008000800090047
:104940000600070000000000020001000200020053
:10495000020002000000000000200001000100022F
:10496000400080000100000007000700070007006A
:10497000070007000500000080B5410003A2515A5E
:104980008000554A105800F015F902BD00200001C2
:104990000001000240008000010000007CB54F4C87
:1049A0000021200000F069F9200000F027F9002123
:1049B000A00C00F071FA20260096002069460871CC
:1049C000C8719024E405200000F0B6F81020009093
:1049D000434D6946280000F0AFF8802000906946FA
:1049E000200000F0A9F8009669463E4800F0A4F8BF
:1049F000B00200906946280000F09EF873BDF0B543
:104A000087B001218C20C00300F03CFA012108038B
:104A100000F042FA202000906D4602202871032009
:104A200068710024AC710126EE719027FF0569467C
:104A3000380000F081F8102000906946284800F006
:104A40007BF8802000906946380000F075F820203F
:104A500000902E71AC71EE71032068716946214897
:104A600000F06AF8F00300902C71EE7169461C4862
:104A700000F062F800220521380000F0AFF80022B3
:104A80000421174800F0AAF800220721380000F09E
:104A9000A5F802A80480822149004180E021C900D4
:104AA00081800221C180068109024181C460072101
:104AB00001820A4C02A9200000F0BBF8A10C2000E2
:104AC00000F0E5F80121200000F0D7F807B0F0BDB4
:104AD000000000009811002030110020003001403B
:104AE000000400480014004810B59021C905884210
:104AF00002D18024A40216E02A49884202D18024EF
:104B0000E40210E02849884202D1802424030AE00C
:104B10002649884202D18024640304E02449884263
:104B200009D18024E4030121200000F0C9F900210B
:104B3000200000F0C5F910BDF0B5002301229A4015
:104B40000C681440944228D15C000326A640F5432B
:104B50000E79012E01D0022E0FD186682E4086607C
:104B600086684F79A740374387608688964386805A
:104B700082888E799E401643868002682A400260B1
:104B800002680E79A64016430660C2681540C560EB
:104B9000C268CD79A5401543C5605B1C102BCDD3F1
:104BA000F0BD00000004004800080048000C004868
:104BB0000014004802000020128A01E0008A7047B9
:104BC0000A4200D00120704781617047018570471B
:104BD000002A01D0816170470185704710B5CB1064
:104BE0009B00C0184907C90E036A0F248C40A343D9
:104BF0000362036A8A401A43026210BD10B5284955
:104C0000884209D18C0C0121200000F063F90021B9
:104C1000200000F05FF910BD2249884208D10C0C39
:104C20000121200000F060F90021200000F05CF973
:104C300010BD0288C1239B0113400A881A43CB8907
:104C40001343CA881A430B8913434A891A438B8931
:104C5000134303808288144B13408A881A4382804E
:104C60000A8A02820288114B134049881943018045
:104C7000818B0F4A0A40828370470029018802D045
:104C800040220A4301E00B4A0A40028070478288B2
:104C9000094B13E001737047007B704780897047B0
:104CA0000030014000380040FFF00000FBFF000032
:104CB000FFF70000BFFF0000FFEF000013408380FC
:104CC00082881143818070470200002012890A42C5
:104CD00000D001207047FEE73348016801220A43F3
:104CE00002604168314A0A4042600168304A0A4025
:104CF000026001682F4A0A40026041682E4A0A4059
:104D00004260C16A0F229143C162016B5B4A0A4053
:104D10000263416B0122914341630021816070472E
:104D2000574900220A700870704710B582B00024FD
:104D30000094112000F0E4F80099491C00910099BA
:104D4000A022D200914201D00028F2D0112000F020
:104D5000D7F8002800D00124200016BD10430860B9
:104D6000704711490028086803D08022520402438A
:104D700001E0704A02400A6070470B490028086849
:104D800003D080221203024301E0704A02400A600D
:104D900070475A490A6803239A43DFE75748016876
:104DA0000C20084070470000001002400CB8FFF8CB
:104DB000FFFFF6FEFFFFFBFFFFFFC0FFF0B50400A3
:104DC0004E4D28680F260C210140082912D1286871
:104DD0002968870C3740BF1CC80303D45E4847438B
:104DE000380008E0A96A5D483140491CFFF7D8FB4C
:104DF000784300E0594820602A6859482168120920
:104E00001640825DD14061602A685205520F805C75
:104E1000C140A160E86AC00501D4524805E0286895
:104E2000400401D4480800E08808E06080200002C7
:104E3000E96A490601D44C4900E001002161E96AB0
:104E4000C90601D4454900E0216861610321EA6A8D
:104E50000A4201D1A0680EE0EA6A0A40012A01D1A3
:104E6000206808E0EA6A0A40022A04D0E86A0140A1
:104E7000032901D13948A061F0BD0000ACFEFFFF5D
:104E800002100240394A0029116802D0084310601C
:104E90007047814311607047354A0029116802D07C
:104EA000084310607047814311607047314A002900
:104EB000116802D008431060704781431160704749
:104EC0002D4A0029116802D00843106070478143C1
:104ED00011607047294A0029116802D00843106008
:104EE0007047814311607047254A0029116802D03C
:104EF00008431060704781431160704704100240FE
:104F000010B5010000204A091E4B140001D11A6897
:104F100008E0012A01D11A6A04E0022A01D15A6A82
:104F200000E05A6BC906C90E01248C40144000D021
:104F3000012010BDFFFFFFFE01000020124A126891
:104F4000D2B20A4200D0012070470000FFFFF7FFF5
:104F50000E4908707047000000093D0000127A00F9
:104F6000A8110020809FD50012800000141002407C
:104F7000181002401C100240281002400C10024081
:104F80001010024000100240081002400A100240B7
:104F900010B50A0003239A43064B9A188907090F94
:104FA00013680F248C40A343136013688840184390
:104FB000106010BD0800014030B50168CC432549A0
:104FC0008279002A25D00A4613681C401460536871
:104FD0000468A343536003795B181C680568254384
:104FE0001D6093680468A3439360D3680468A34377
:104FF000D36043790468102B07D191680C43946007
:10500000D16800680843D06030BD5B18186804435D
:1050100003E000794318186804401C6030BD00218B
:10502000016001710C224271817170470A49086068
:10503000704701000020074A13680B405269114075
:1050400002D0002B00D00120704703490860704750
:10505000000000000004014014040140F0B501000C
:1050600008781F2201238C78002C16D00400032519
:10507000AC430C4D2C1925688007C60EFF27FF2076
:10508000B0408543487880010740B7402F432760F0
:10509000087802409340044802E0024093400348ED
:1050A0000360F0BD00E400E000E100E080E100E02A
:1050B000F8B500F025FF00F061FF874881684729B7
:1050C00000D00BE10021EA2000F0E0FE2021EB20DF
:1050D00000F0DCFE0C21EC2000F0D8FEC421ED2015
:1050E00000F0D4FE4021E82000F0D0FE3821E92075
:1050F00000F0CCFE0121F12000F0C8FE1021F220CA
:1051000000F0C4FEA321272000F0C0FE01214020B2
:1051100000F0BCFE0021412000F0B8FE002142203A
:1051200000F0B4FE1021432000F0B0FE0E21442018
:1051300000F0ACFE2421452000F0A8FE042146200A
:1051400000F0A4FE5021472000F0A0FE02214820DC
:1051500000F09CFE1321492000F098FE19214A20FE
:1051600000F094FE19214B2000F090FE16214C20F7
:1051700000F08CFE1B21502000F088FE31215120D0
:1051800000F084FE2F21522000F080FE3F215320AA
:1051900000F07CFE3F21542000F078FE3E21552097
:1051A00000F074FE2F21562000F070FE7B21572066
:1051B00000F06CFE0921582000F068FE06215920FD
:1051C00000F064FE06215A2000F060FE0C215B20F6
:1051D00000F05CFE1D215C2000F058FECC215D201B
:1051E00000F054FE1B211B2000F050FE01211A206C
:1051F00000F04CFE2F21242000F048FE57212520EE
:1052000000F044FE8621232000F040FE36211820C5
:1052100000F03CFE0121192000F038FE00210120A1
:1052200000F034FE88211F2000F030FE022000F044
:105230000BFF80211F2000F029FE022000F004FF58
:1052400090211F2000F022FE022000F0FDFED02160
:105250001F2000F01BFE022000F0F6FE05211720A3
:1052600000F014FE0021012000F010FE00210220B9
:1052700000F00CFE0021032000F008FE01210420B4
:1052800000F004FE3F21052000F000FE0021062072
:1052900000F0FCFD0021072000F0F8FD00210820AF
:1052A00000F0F4FDEF21092000F0F0FD2821162088
:1052B00000F0ECFD0021362000F0E8FD042136204E
:1052C00000F0E4FD3821282000F0E0FD062000F089
:1052D000BBFE3C212820F9E2601100207B4CFF2519
:1052E000403581687A4A914200D0FDE0052000F007
:1052F000ABFE80210902E52000F0C8FD012100205D
:1053000000F0C4FD80214900012000F0BFFDE02134
:10531000C900022000F0BAFD6E49032000F0B6FD7E
:105320000021042000F0B2FDED49082000F0AEFDA0
:105330000021092000F0AAFD00210A2000F0A6FDAE
:1053400000210C2000F0A2FD00210D2000F09EFDA8
:1053500000210F2000F09AFD0021102000F096FDA2
:105360000021112000F092FD0021122000F08EFD9E
:105370000021132000F08AFD142000F065FE56493C
:10538000102000F083FDFF213831112000F07EFD58
:10539000052000F059FEFF213A31122000F076FD81
:1053A000052000F051FEE8214901132000F06EFDB8
:1053B0001321292000F06AFD052000F045FE0021A0
:1053C000202000F063FD0021212000F05FFD062178
:1053D000302000F05BFD2109312000F057FD032152
:1053E000322000F053FD83214900352000F04EFDAE
:1053F0003A49362000F04AFDDD49372000F046FDED
:105400003749382000F042FD0721392000F03EFDE9
:10541000C021C9003C2000F039FD32493D2000F098
:1054200035FD0021502000F031FDEF21512000F02A
:105430002DFD0021522000F029FD2900532000F00D
:1054400025FD9C218901602000F020FD01216120C3
:1054500000F01CFD00216A2000F018FD00218020D2
:1054600000F014FD0021812000F010FD00218220B9
:1054700000F00CFD0021832000F008FD00218420B5
:1054800000F004FD0021852000F000FD1021902097
:1054900000F0FCFC0021922000F0F8FC0321932096
:1054A00000F0F4FC88214900952000F0EFFC002179
:1054B000972000F0EBFC0021982000F0E7FC210091
:1054C000032000F0E3FCFF217431FEE1181000001E
:1054D0002093000030100000B0170000020B000005
:1054E000070700000B020000C34FFF26B61D8168AE
:1054F000C24A914200D0EFE0C149E32000F0C6FC6F
:105500001221E72000F0C2FCF249EF2000F0BEFCBF
:1055100080214900012000F0B9FCE021C9000220EF
:1055200000F0B4FCF900032000F0B0FC00210420DE
:1055300000F0ACFC6A49082000F0A8FC002109201A
:1055400000F0A4FC00210A2000F0A0FC00210C20A7
:1055500000F09CFC00210D2000F098FC00210F20A1
:1055600000F094FC0021102000F090FC002111209C
:1055700000F08CFC0021122000F088FC0021132098
:1055800000F084FC142000F05FFD0721112000F0E2
:105590007DFC052000F058FDCF49102000F076FC7E
:1055A000052000F051FDFF21BE31122000F06EFCFD
:1055B000052000F049FDA0214901132000F066FC00
:1055C0000E21292000F062FC052000F03DFD0021A5
:1055D000202000F05BFC2900212000F057FC07216F
:1055E000302000F053FC6249312000F04FFC3100C4
:1055F000322000F04BFC3900352000F047FCD24946
:10560000362000F043FC3900372000F03FFCCF4942
:10561000382000F03BFC0721392000F037FC310036
:105620003C2000F033FCC8493D2000F02FFC002155
:10563000502000F02BFCEF21512000F027FC00212E
:10564000522000F023FC2900532000F01FFCA7216A
:105650000902602000F01AFC0121612000F016FC14
:1056600000216A2000F012FC0021802000F00EFCD6
:105670000021812000F00AFC0021822000F006FCBD
:105680000021832000F002FC0021842000F0FEFBBA
:105690000021852000F0FAFB1021902000F0F6FB9D
:1056A0000021922000F0F2FB0321932000F0EEFB9A
:1056B00088214900952000F0E9FB0021972000F0A7
:1056C000E5FB0021982000F0E1FB2100032000F021
:1056D000DDFB89214900F8E08068BE4902E000BF97
:1056E00002020000884200D0F2E00121002000F018
:1056F000CDFB80214900012000F0C8FBE021C9005A
:10570000022000F0C3FB2100032000F0BFFB0021BA
:10571000042000F0BBFBC049082000F0B7FB0021CB
:10572000092000F0B3FB00210A2000F0AFFB0021AC
:105730000C2000F0ABFB00210D2000F0A7FB0021A6
:105740000F2000F0A3FB0021102000F09FFB0021A0
:10575000112000F09BFB0021122000F097FB00219C
:10576000132000F093FB142000F06EFCAB4901E025
:1057700002030000102000F089FBFF2138311120C6
:1057800000F084FB052000F05FFCFF213A3112207D
:1057900000F07CFB052000F057FCE82149011320B4
:1057A00000F074FB1321292000F070FB052000F0AD
:1057B0004BFC0021202000F069FB0021212000F09B
:1057C00065FB0721302000F061FBC149312000F06A
:1057D0005DFB3100322000F059FB3900352000F02C
:1057E00055FB5949362000F051FB3900372000F0B5
:1057F0004DFB564906E000BF0602000008540000B9
:1058000008300000382000F041FB0721392000F06B
:105810003DFB31003C2000F039FB4B493D2000F0BE
:1058200035FB0021502000F031FBEF21512000F02A
:105830002DFB0021522000F029FB2900532000F00D
:1058400025FBA7210902602000F020FB0121612037
:1058500000F01CFB00216A2000F018FB00218020D2
:1058600000F014FB0021812000F010FB00218220B9
:1058700000F00CFB0021832000F008FB00218420B5
:1058800000F004FB0021852000F000FB1021902097
:1058900000F0FCFA0021922000F0F8FA0321932096
:1058A00000F0F4FA88214900952000F0EFFA002179
:1058B000972000F0EBFA0021982000F0E7FA210091
:1058C000032000F0E3FAFF213431072000F0DEFA74
:1058D000F1BD00BF31120000B012000010B582B05F
:1058E00000200090FFF7E4FB002000F067FA009032
:1058F000914C92480099814207D0364800998142E4
:1059000003D0401F0099814203D1A060FFF7D0FB74
:1059100001E04720A06020000C30606013BD01B49E
:10592000854869460988018001B0704701B4824802
:1059300069460988418001B070477F4948607047D7
:105940007D4840687047000008080000040500001A
:1059500070B50600FF254035774CA068472819D15F
:105960000025A0204000ADB2401B616889888842B4
:1059700017DB20222900300000F09CF86068808846
:105980002D18EEE720222900300000F093F860681F
:1059900080882D1AADB2681C80B2616889888842FF
:1059A000F0DA70BD38B5040063488068472801D13B
:1059B000002101E0FF214031002000F00DF800F04F
:1059C00050FA96256D02200000F082FA6D1EFAD181
:1059D00000F078FA2593000038B504000D00564811
:1059E000806847280ED1090A022000F04FFAE9B278
:1059F000032000F04BFA0021062000F047FA2100B6
:105A0000072005E02100202000F040FA2900212095
:105A100000F03CFA31BD000002020000B0170000A7
:105A2000F6B583B0002569468880684681898088FC
:105A3000FFF7D2FF0FE0012210219948FFF7C8F8C5
:105A400068468088401C69468880684681898088CD
:105A5000FFF7C2FF6D1C38484068C088854227D2D6
:105A600000F0FFF9002404E03348008800F030FA29
:105A7000641C314840688688B442DCD268000499CE
:105A80000F5A8020009030000C21FEF775FDC100F8
:105A9000802088402041074201D10D2E05D30120EE
:105AA000A0400742E0D10D2EDED323484088DDE739
:105AB00005B0F0BD10B5204B5B68203AD2B2DC884F
:105AC000624352001B689A18FFF7AAFF10BD00003E
:105AD00002030000F8B507000C00FF254035164E04
