:020000040800F2
:10000000F013002095F300087DCB000841CE0008D6
:1000100000000000000000000000000000000000E0
:1000200000000000000000000000000043CE0008B7
:10003000000000000000000045CE000847CE000888
:10004000876700083B6800084FCE00081769000862
:10005000A386000845D00008FF87000869D0000883
:100060003391000873F300087FF30008B1F3000830
:10007000B3F30008B5F30008B7F30008B9F30008BC
:10008000D1D80008BBF30008000000002BD90008FD
:1000900019D80008BDF30008BFF30008B1D9000863
:1000A000C1F30008C3F30008C5F30008C7F3000854
:1000B000C9F3000800000000CBF3000800000000B6
:1000C0000000000000000000000000000000000030
:1000D0000000000000000000000000000000000020
:1000E0000000000000000000000000000000000010
:1000F0000000800180018001800180018001800179
:1001000080018001800180018001800100000000E9
:1001100080018001000000000000000000000000DD
:1001200000000000CC00CC00CC00CC00CC00CC0007
:1001300000000000000000000000000000000000BF
:1001400000000000000000000000000000000000AF
:10015000000000000000000000000000600C600CC7
:10016000600C30063006FE1FFE1F300638071803ED
:10017000FE1FFE1F180318038C018C018C01000068
:1001800000008000E003F80F9C0E8C1C8C188C0083
:100190009800F801E007800E801C8C188C189C18C1
:1001A000B80CF00FE00380008000000000000000A9
:1001B0000000000000000E181B0C110C11061106A7
:1001C000110311039B018E01C038C06C6044604470
:1001D000304430441844186C0C3800000000000013
:1001E0000000E001F0033807180618063003F0019C
:1001F000F000F8009C310E33061E061C061C063F5C
:10020000FC73F0210000000000000000000000006E
:10021000000000000C000C000C000C000C000C0096
:1002200000000000000000000000000000000000CE
:1002300000000000000000000000000000000000BE
:100240000000000200038001C000C00060006000E8
:10025000300030003000300030003000300030001E
:1002600060006000C000C0008001000300020000C8
:10027000000020006000C000800180010003000336
:10028000000600060006000600060006000600063E
:100290000003000380018001C00060002000000016
:1002A000000000000000000000000000C000C000CE
:1002B000D806F807E001300338070000000000000E
:1002C000000000000000000000000000000000002E
:1002D000000000000000000000000000800180011C
:1002E000800180018001FC3FFC3F80018001800192
:1002F00080018001000000000000000000000000FC
:1003000000000000000000000000000000000000ED
:1003100000000000000000000000000000000000DD
:100320000000800180010001000180000000000049
:1003300000000000000000000000000000000000BD
:100340000000000000000000E007E00700000000DF
:10035000000000000000000000000000000000009D
:10036000000000000000000000000000000000008D
:10037000000000000000000000000000000000007D
:100380000000C000C00000000000000000000000ED
:100390000000000C000C000600060006000300032D
:1003A00000038003800180018001C000C000C00004
:1003B000600060000000000000000000000000007D
:1003C0000000E003F007380E180C0C180C180C187D
:1003D0000C180C180C180C180C180C18180C380EDB
:1003E000F007E00300000000000000000000000033
:1003F000000000018001C001F00198018801800126
:1004000080018001800180018001800180018001E4
:1004100080018001000000000000000000000000DA
:100420000000E003F80F180C0C180C180018001846
:10043000000C000600038001C000600030001800BE
:10044000FC1FFC1F00000000000000000000000076
:100450000000E001F807180E0C0C0C0C000C000654
:10046000C003C007000C001800180C180C18180C5A
:10047000F807E0030000000000000000000000009A
:100480000000000C000E000F000F800DC00C600C6F
:10049000600C300C180C0C0CFC3FFC3F000C000CEA
:1004A000000C000C00000000000000000000000034
:1004B0000000F80FF80F180018000C00EC03FC0700
:1004C0001C0E001C0018001800180C181C0C180E2C
:1004D000F807E0030000000000000000000000003A
:1004E0000000C007F00F381C181818000C00CC03CF
:1004F000EC0F3C0E1C1C0C180C180C18181C380E99
:10050000F007E00300000000000000000000000011
:100510000000FC1FFC1F000C000600060003800307
:100520008001C001C000E000600060007000300089
:10053000300030000000000000000000000000005B
:100540000000E003F007380E180C180C180C3806E1
:10055000F007F007180C0C180C180C180C18380CB5
:10056000F80FE003000000000000000000000000A1
:100570000000E003F007380E1C0C0C180C180C18C7
:100580001C1C381EF81BE0190018000C000C1C0E77
:10059000F807F0010000000000000000000000006B
:1005A0000000000000000000000000008001800149
:1005B000000000000000000000000000000000003B
:1005C0008001800100000000000000000000000029
:1005D0000000000000000000000000008001800119
:1005E000000000000000000000000000000000000B
:1005F0008001800100010001800000000000000077
:1006000000000000000000000000000000000000EA
:100610000010001C800FE003F8001800F800E00351
:10062000800F001C0010000000000000000000000F
:1006300000000000000000000000000000000000BA
:10064000F81F000000000000F81F0000000000007C
:10065000000000000000000000000000000000009A
:10066000000000000000000000000000000000008A
:1006700008003800F001C007001F0018001FC00765
:10068000F001380008000000000000000000000039
:100690000000E003F80F180C0C180C180018000CE0
:1006A000000600038001C000C000C0000000000080
:1006B000C000C000000000000000000000000000BA
:1006C00000000000E00718180420C229224A114443
:1006D00009440944094409221113E20C0240042090
:1006E0001818E007000000000000000000000000F3
:1006F000000080038003C006C006C006600C600CCA
:10070000301830183018F83FF83F1C700C600C603F
:1007100006C006C00000000000000000000000004D
:100720000000FC03FC0F0C0C0C180C180C180C0C23
:10073000FC07FC0F0C180C300C300C300C300C1873
:10074000FC1FFC070000000000000000000000008B
:100750000000C007F01F38381C300C70066006001F
:100760000600060006000600060006600C701C303D
:10077000F01FE00700000000000000000000000083
:100780000000FE03FE0F060E06180618063006309F
:100790000630063006300630063006180618060EFB
:1007A000FE0FFE030000000000000000000000003B
:1007B0000000FC3FFC3F0C000C000C000C000C0087
:1007C000FC1FFC1F0C000C000C000C000C000C00AB
:1007D000FC3FFC3F000000000000000000000000A3
:1007E0000000F83FF83F1800180018001800180023
:1007F000F81FF81F1800180018001800180018003B
:1008000018001800000000000000000000000000B8
:100810000000E00FF83F3C780E6006E007C00300E0
:10082000030003FE03FE03C007C006C00EC03CF079
:10083000F83FE00F00000000000000000000000092
:1008400000000C300C300C300C300C300C300C3004
:10085000FC3FFC3F0C300C300C300C300C300C30BA
:100860000C300C3000000000000000000000000010
:1008700000008001800180018001800180018001F1
:100880008001800180018001800180018001800160
:100890008001800100000000000000000000000056
:1008A000000000060006000600060006000600061E
:1008B000000600060006000600061806180638079F
:1008C000F003E00100000000000000000000000054
:1008D000000006300618060C060606038601C60050
:1008E00066007600DE008E0106030606060C06187A
:1008F000063006600000000000000000000000005C
:10090000000018001800180018001800180018003F
:100910001800180018001800180018001800180017
:10092000F81FF81F00000000000000000000000099
:1009300000000EE01EF01EF01EF036D836D836D875
:1009400036D866CC66CC66CCC6C6C6C6C6C6C6C6D3
:1009500086C386C300000000000000000000000005
:1009600000000C301C303C303C306C306C30CC30F3
:10097000CC308C310C330C330C360C360C3C0C3C2C
:100980000C380C30000000000000000000000000E7
:100990000000E007F81F1C380E70066003C003C09B
:1009A00003C003C003C003C003C006600E701C3840
:1009B000F81FE00700000000000000000000000039
:1009C0000000FC0FFC1F0C380C300C300C300C30CD
:1009D0000C18FC1FFC070C000C000C000C000C0099
:1009E0000C000C00000000000000000000000000EF
:1009F0000000E007F81F1C380E70066003E003C01B
:100A000003C003C003C003C007E006630E3F1C3CE5
:100A1000F83FE0F700C00000000000000000000008
:100A20000000FE0FFE1F063806300630063006387E
:100A3000FE1FFE0706030606060C061806180630FB
:100A4000063006600000000000000000000000000A
:100A50000000E003F80F1C0C0C180C180C001C0014
:100A6000F803E00F001E0038063006300E301C1C64
:100A7000F80FE00700000000000000000000000088
:100A80000000FE7FFE7F80018001800180018001E7
:100A9000800180018001800180018001800180014E
:100AA0008001800100000000000000000000000044
:100AB00000000C300C300C300C300C300C300C3092
:100AC0000C300C300C300C300C300C300C30181852
:100AD000F81FE00700000000000000000000000018
:100AE000000003600630063006300C180C180C1895
:100AF000180C180C380E30063006700760036003BF
:100B0000C001C00100000000000000000000000063
:100B100000000360C361C361C3616633663366333B
:100B20006633663366336C1B6C1B6C1B2C1A3C1EC5
:100B3000380E380E00000000000000000000000029
:100B400000000FE00C7018303018700C600EC007F9
:100B500080038003C003E006700C301C18180C30B2
:100B60000E6007E000000000000000000000000030
:100B7000000003C006600C301C383818300C6006CA
:100B8000E007C003800180018001800180018001B5
:100B90008001800100000000000000000000000053
:100BA0000000FC7FFC7F006000300018000C000695
:100BB00000038001C0006000300018000C00060037
:100BC000FE7FFE7F0000000000000000000000002B
:100BD0000000E003E003600060006000600060006F
:100BE0006000600060006000600060006000600005
:100BF00060006000600060006000E003E00300004F
:100C0000000030003000600060006000C000C000E4
:100C1000C000C001800180018001000300030003C7
:100C200000060006000000000000000000000000B8
:100C30000000E003E00300030003000300030003DF
:100C4000000300030003000300030003000300038C
:100C500000030003000300030003E003E0030000BF
:100C600000000000C001C0016003600360033006A3
:100C70003006180C180C00000000000000000000F6
:100C80000000000000000000000000000000000064
:100C90000000000000000000000000000000000054
:100CA0000000000000000000000000000000000044
:100CB0000000FFFFFFFF0000000000000000000038
:100CC00000000C000C000C000C000C000C000000DC
:100CD0000000000000000000000000000000000014
:100CE0000000000000000000000000000000000004
:100CF000000000000000000000000000F003F80702
:100D00001C0C0C0C000FF00FF80C0C0C0C0C1C0F36
:100D1000F80FF018000000000000000000000000C4
:100D2000000018001800180018001800D803F80F69
:100D3000380C181818181818181818181818380C0B
:100D4000F80FD803000000000000000000000000C1
:100D5000000000000000000000000000C003F007D9
:100D6000300E180C1800180018001800180C300E5F
:100D7000F007C003000000000000000000000000B9
:100D8000000000180018001800180018C01BF01F01
:100D9000301C181818181818181818181818301C9B
:100DA000F01FC01B00000000000000000000000059
:100DB000000000000000000000000000C003F00F71
:100DC000300C1818F81FF81F180018003818301CBD
:100DD000F00FC0070000000000000000000000004D
:100DE0000000800FC00FC000C000C000F007F00777
:100DF000C000C000C000C000C000C000C000C000F3
:100E0000C000C00000000000000000000000000062
:100E1000000000000000000000000000E00DF80FDE
:100E2000180E0C0C0C0C0C0C0C0C0C0C0C0C180EE6
:100E3000F80FE00D000C0C0C1C06F807F001000088
:100E4000000018001800180018001800D807F80F44
:100E5000381C1818181818181818181818181818EE
:100E60001818181800000000000000000000000022
:100E70000000C000C000000000000000C000C00072
:100E8000C000C000C000C000C000C000C000C00062
:100E9000C000C000000000000000000000000000D2
:100EA0000000C000C000000000000000C000C00042
:100EB000C000C000C000C000C000C000C000C00032
:100EC000C000C000C000C000C000F80078000000F2
:100ED00000000C000C000C000C000C000C0C0C06AC
:100EE0000C038C01CC006C00FC009C018C030C03F7
:100EF0000C060C0C000000000000000000000000C8
:100F00000000C000C000C000C000C000C000C000A1
:100F1000C000C000C000C000C000C000C000C000D1
:100F2000C000C00000000000000000000000000041
:100F30000000000000000000000000007C3CFF7E7C
:100F4000C7E383C183C183C183C183C183C183C11B
:100F500083C183C100000000000000000000000009
:100F60000000000000000000000000009807F80FDB
:100F7000381C1818181818181818181818181818CD
:100F80001818181800000000000000000000000001
:100F9000000000000000000000000000C003F00F8F
:100FA000300C181818181818181818181818300CA9
:100FB000F00FC0030000000000000000000000006F
:100FC000000000000000000000000000D803F80F3F
:100FD000380C181818181818181818181818380C69
:100FE000F80FD803180018001800180018000000A7
:100FF000000000000000000000000000C01BF01F07
:10100000301C181818181818181818181818301C28
:10101000F01FC01B0018001800180018001800006E
:10102000000000000000000000000000B007F00316
:1010300070003000300030003000300030003000F0
:101040003000300000000000000000000000000040
:10105000000000000000000000000000E003F003BA
:10106000380E180C3800F003C007000C180C380EAE
:10107000F007E00300000000000000000000000096
:10108000000000008000C000C000C000F007F007B2
:10109000C000C000C000C000C000C000C000C00050
:1010A000C0078007000000000000000000000000F2
:1010B00000000000000000000000000018181818D0
:1010C0001818181818181818181818181818381C7C
:1010D000F01FE01900000000000000000000000008
:1010E0000000000000000000000000000C18180CB8
:1010F000180C180C300630063006600360036003DD
:10110000C001C0010000000000000000000000005D
:10111000000000000000000000000000C141C141CB
:10112000C3616363636363633636363636361C1CCD
:101130001C1C1C1C0000000000000000000000003F
:101140000000000000000000000000001C38381CF7
:10115000300C600660036003600360036006300CBF
:10116000381C1C38000000000000000000000000D7
:1011700000000000000000000000000018303018DF
:1011800030187018600C600CE00CC006C0068003BC
:101190008003800380018001C001F0007000000026
:1011A000000000000000000000000000FC1FFC1F09
:1011B000000C000600038001C00060003000180031
:1011C000FC1FFC1F000000000000000000000000E9
:1011D000000000038001C000C000C000C000C000CB
:1011E000C00060006000300060004000C000C0002F
:1011F000C000C000C000C00080010003000000006B
:101200000000800180018001800180018001800157
:1012100080018001800180018001800180018001C6
:101220008001800180018001800180018001000037
:1012300000006000C000C0018001800180018001C9
:10124000800100030003000600030001800180010B
:101250008001800180018001C0006000000000006A
:10126000000000000000000000000000000000007E
:10127000F010F81F080F0000000000000000000040
:10128000000000000000000000000000000000005E
:10129000000000000000000000000000000000004E
:1012A00000000000000000000000002000200020DE
:1012B000002000200020002000000020000000008E
:1012C000000000500050005000000000000000002E
:1012D00000000000000000000000000900090012EA
:1012E000007F0012007F0012002400240000000094
:1012F0000010003800540050005000380014005412
:1013000000540038001000000000803000490049FF
:10131000004AC032200520092009C010000000004A
:101320000000000C00120012001400180025002319
:101330000023801D0000000000000040004000402D
:10134000000000000000000000000000000000009D
:1013500000000008001000100020002000200020E5
:10136000002000200010001000000040002000209D
:1013700000100010001000100010001000200020CD
:10138000000000200070002000500000000000005D
:101390000000000000000000000000000000000845
:1013A0000008007F000800080000000000000000A6
:1013B000000000000000000000000000000000002D
:1013C000000000200020004000000000000000009D
:1013D000000000000070000000000000000000009D
:1013E00000000000000000000000000000000000FD
:1013F000000000200000000000000010001000109D
:1014000000200020002000200040004000000000DC
:101410000000001000280044004400440044004440
:1014200000280010000000000000001000300050F4
:10143000001000100010001000100010000000004C
:1014400000000030004800440004000800100020A4
:101450000040007C00000000000000300048000454
:1014600000080010000800440048003000000000A0
:101470000000000800180018002800280048007C20
:1014800000080008000000000000003C00200040B0
:1014900000700048000400440048003000000000D4
:1014A0000000001800240040005000680044004480
:1014B00000280010000000000000007C000400086C
:1014C000001000100010002000200020000000008C
:1014D00000000010002800440028001000280044EC
:1014E0000028001000000000000000100028004448
:1014F0000044002C001400040048003000000000EC
:1015000000000000000000200000000000000000BB
:10151000000000200000000000000000000000208B
:10152000000000000000000000000020002000403B
:1015300000000000000400080030004000300008F7
:101540000004000000000000000000000000007C1B
:1015500000000000007C000000000000000000000F
:1015600000000000004000200018000400180020C7
:10157000004000000000000000000038006400444B
:10158000000400080010001000000010000000001F
:101590000000800F4010A02EA0512051205120515A
:1015A0002053C04D202040100000000800140014FB
:1015B00000140022003E0022004100410000000013
:1015C0000000003C002200220022003C00220022F9
:1015D0000022003C000000000000000E001100216D
:1015E00000200020002000210011000E000000005B
:1015F0000000003C002200210021002100210021E8
:101600000022003C000000000000003E00200020FE
:101610000020003E002000200020003E00000000CE
:101620000000003E002000200020003C00200020A0
:1016300000200020000000000000000E001100212A
:1016400000200027002100210011000E00000000F2
:1016500000000021002100210021003F0021002185
:1016600000210021000000000000002000200020D8
:1016700000200020002000200020002000000000AA
:1016800000000008000800080008000800080048E2
:101690000048003000000000000000220024002864
:1016A0000028003800280024002400220000000048
:1016B000000000200020002000200020002000204A
:1016C0000020003E000000000000802080318031BA
:1016D0008031802A802A802A802A8024000000000D
:1016E00000000021003100310029002900250023DD
:1016F00000230021000000000000000C0012002167
:1017000000210021002100210012000C0000000037
:101710000000003C002200220022003C00200020AB
:1017200000200020000000000000000C001200213A
:1017300000210021002100210016000D0001000001
:101740000000003E002100210021003E0024002274
:1017500000218020000000000000001C0022002268
:101760000020001C000200220022001C00000000DB
:101770000000003E000800080008000800080008FB
:1017800000080008000000000000002100210021E6
:1017900000210021002100210012000C00000000A7
:1017A0000000004100410022002200220014001429
:1017B000001400080000000000004044404A402A95
:1017C000802A802A802A802A802A001100000000B6
:1017D000000000410022001400140008001400144E
:1017E0000022004100000000000000410022002211
:1017F00000140008000800080008000800000000AD
:101800000000007E0002000400080010001000200C
:101810000040007E0000000000000030002000209A
:1018200000200020002000200020002000200020B8
:101830000000004000400020002000200020002088
:1018400000100010000000000000006000200020D8
:101850000020002000200020002000200020002088
:1018600000000010002800280028004400000000AC
:101870000000000000000000000000000000000068
:101880000000000000000000000000000000007EDA
:1018900000400020000000000000000000000000E8
:1018A0000000000000000000000000000000003800
:1018B00000440004003C00440044003C00000000E0
:1018C0000000004000400058006400440044004410
:1018D000006400580000000000000000000000301C
:1018E0000048004000400040004800300000000078
:1018F0000000000400040034004C00440044004494
:10190000004C00340000000000000000000000381F
:1019100000440044007C0040004400380000000007
:1019200000000060004000E0004000400040004037
:1019300000400040000000000000000000000034F3
:10194000004C004400440044004C003400040044B7
:10195000000000400040005800640044004400447F
:10196000004400440000000000000040000000406F
:1019700000400040004000400040004000000000E7
:1019800000000040000000400040004000400040D7
:10199000004000400040004000000040004000487F
:1019A0000050006000500050004800480000000057
:1019B0000000004000400040004000400040004067
:1019C0000040004000000000000000000000005245
:1019D000006D00490049004900490049000000002D
:1019E000000000000000005800640044004400446F
:1019F0000044004400000000000000000000003827
:101A0000004400440044004400440038000000004A
:101A1000000000000000005800640044004400443E
:101A20000064005800400040000000000000003446
:101A3000004C004400440044004C00340004000406
:101A40000000000000000050006000400040004026
:101A500000400040000000000000000000000030D6
:101A6000004800400030000800480030000000003E
:101A700000000040004000E0004000400040004006
:101A80000040006000000000000000000000004472
:101A90000044004400440044004C003400000000B6
:101AA0000000000000000044004400280028002836
:101AB00000280010000000000000000000000049A5
:101AC0000049005500550055005500220000000057
:101AD000000000000000004400280028001000283A
:101AE0000028004400000000000000000000004446
:101AF00000440028002800280010001000100010EA
:101B00000000000000000078000800100020002005
:101B100000400078000000000000001000200020BD
:101B20000020002000400020002000200020002095
:101B300000000020002000200020002000200020C5
:101B40000020002000200020000000400020002095
:101B50000020002000100020002000200020002095
:101B600000000000000000000074005800000000A9
:101B700000000000000000000000000000700050A5
:101B80000050005000500050005000700000000055
:101B90000000000000000000000000000000000045
:101BA0004000400040004000400040000000400075
:101BB000A000A000A0000000000000000000000045
:101BC000000024002400FE004800FC0048004800FB
:101BD000380054005000380014001400540038003D
:101BE0004400A800A800500014001A002A00240095
:101BF000100028002800100074004C004C00300039
:101C000010001000100000000000000000000000A4
:101C10000800100010001000100010001000080054
:101C20001000080008000800080008000800100064
:101C300000000000240018003C00180024000000F0
:101C400000000000100010007C00100010000000D8
:101C50000000000000000000000008000800100064
:101C600000000000000000003C0000000000000038
:101C70000000000000000000000000001800180034
:101C800008000800080010001000200020002000BC
:101C9000180024002400240024002400240018003C
:101CA00008001800280008000800080008000800C4
:101CB00038004400000004000800100020007C00F0
:101CC0001800240004001800040004002400180078
:101CD00004000C001400240044007E0004000400F2
:101CE0003C002000200038000400040024001800FC
:101CF00018002400200038002400240024001800CC
:101D00003C0004000800080008001000100010004B
:101D100018002400240018002400240024001800C7
:101D200018002400240024001C00040024001800D3
:101D30000000000010000000000010000000000083
:101D40000000000008000000000008001000000073
:101D5000000000000400180020001800040000002B
:101D60000000000000003C0000003C0000000000FB
:101D700000000000200018000400180020000000EF
:101D800018002400040008001000100000001000DB
:101D90003C0042009900A500A5009D0042003800CB
:101DA00038004400440044007C00440044004400E7
:101DB0007800440044007800440044004400780067
:101DC0001C002200420040004000420022001C0093
:101DD0007000480044004400440044004800700083
:101DE0007C00400040007C004000400040007C003F
:101DF0003C002000200038002000200020002000AF
:101E00001C002200420040004E00420022001C0044
:101E10004400440044007C0044004400440044006A
:101E20001000100010001000100010001000100032
:101E3000040004000400040004002400240018002E
:101E40004400480050007000500048004800440022
:101E500020002000200020002000200020003C0066
:101E60008200C600C600AA00AA00AA00AA0092002A
:101E700042006200520052004A004A0046004200FE
:101E800018002400420042004200420024001800D2
:101E900078004400440044007800400040004000C6
:101EA0001800240042004200420042002C001A00A8
:101EB000780044004400780050004800440042008C
:101EC000380044004000380004004400440038005A
:101ED0007C00100010001000100010001000100016
:101EE000420042004200420042004200240018002A
:101EF0004400440028002800280028002800100082
:101F00009200AA00AA00AA00AA00AA00AA004400FF
:101F1000420024002400180018002400240042007D
:101F200044002800280010001000100010001000CD
:101F30007C000400080010001000200040007C001D
:101F40001C001000100010001000100010001C00F9
:101F50001000100008000800080008000400040039
:101F60001C000400040004000400040004001C0021
:101F700010002800440000000000000000000000E5
:101F80000000000000000000000000000000000051
:101F90002000100010000000000000000000000001
:101FA00000000000180004001C00240024001C0095
:101FB00020002000280034002400240034002800E1
:101FC0000000000018002400200020002400180059
:101FD0000400040014002C00240024002C00140031
:101FE00000000000180024003C002000240018001D
:101FF0000000180010001000180010001000100061
:102000000000180024002400180004002400180018
:102010002000200028003400240024002400240094
:102020001000000010001000100010001000100040
:102030000800000008000800080008002800100040
:102040002000200024002800300028002400240064
:102050001000100010001000100010001000100000
:1020600000000000A600DA009200920092009200A8
:102070000000000028003400240024002400240074
:102080000000000018002400240024002400180090
:102090000000280034002400380020002000200028
:1020A000000014002C0024001C00040004000400A4
:1020B000000000002C003000200020002000200044
:1020C0000000000018002400100008002400180080
:1020D0000000100038001000100010001000180060
:1020E0000000000024002400240024002C00140020
:1020F00000000000440044002800280028001000D0
:10210000000000009200AA00AA00AA00AA00440051
:1021100000000000440028001000100028004400C7
:1021200000002800280028001000100010001000F7
:10213000000000003C0004000800100020003C00EB
:10214000000008001000100020001000100008001F
:1021500010001000100010001000100010001000FF
:10216000000010000800080004000800080010002B
:10217000000000000000600092000C000000000061
:10218000FF00FF00FF00FF00FF00FF00FF00FF0057
:10219000F8B582B007000C001500F820000202F02C
:1021A000A3FA844802F099FAA0204000C01B6946B7
:1021B000088026003036D4480068472805D102F050
:1021C0009DFAF2B26946098809E002F097FAF2B284
:1021D00004E002F093FA22003032D2B23900C08813
:1021E000C004000C02F044FB02F077FF04280FD17A
:1021F000AC4202D16846047A641E641CC24800687E
:102200004728E6D102F07AFA22003032D2B2D9E77A
:1022100005280FD16846007A844200D16C1C641EE8
:10222000B94800684728D4D102F068FA2200303259
:10223000D2B2C7E70128D7D15E4802F055FAF8209C
:10224000000202F04AFA25003035AF4800684728FE
:1022500005D102F053FAEAB26946098803E002F0B8
:102260004DFAEAB23900C088C004000C02F000FB4D
:10227000E0B2FEBD10B582B00120A44C20706070A9
:10228000A3486080002003F0E1FCA249884229D0E5
:102290001F2002F029FA474802F01FFA02F02EFA36
:1022A0009D49C088C200101A80B202F0F1FA02F013
:1022B00025FA9A49C088C004000C02F0E9FA02F03D
:1022C0001DFA9749C088C200101880B202F0E0FAE7
:1022D00002F003FF012802D100F06EF813BD0028C0
:1022E0001ED1F5E70121080703F004FE012003F0E9
:1022F0006BFE6946002003F097FB6846C178FA221E
:10230000D200891861804178217080786070042043
:1023100003F09CFC000C2082042003F097FC6082F8
:1023200013BDF0B583B0E34F002302227979F42086
:10233000FFF72EFF39790A244443022807D10429E4
:1023400001D30020387100230322397901E00023F2
:102350000922E420FFF71CFF261800230522F97844
:10236000C420FFF715FF050000230922B978B62025
:10237000FFF70EFF69460871002305227978962041
:10238000FFF706FF04000023092239788620FFF7B3
:10239000FFFE69460E700A2255436A461279AA1852
:1023A0004A700A22544320188870002003F078FAFB
:1023B000F7BD0000FFFF000038B5BF4C200002F061
:1023C000CFF91F2002F090F9200002F086F9802357
:1023D0008022DF21A02002F091FAB84ADF21A0205C
:1023E00003F055FE02F0F2FA474D4A4C002003F08C
:1023F0002DFCA04259D002F081F900BF49A1C0884C
:10240000C200101A80B202F043FA01F0CDFC02F0D3
:1024100075F900BF49A1C088C200101A80B202F04D
:1024200037FA02F06BF9C088C004000C02F06EF9B4
:10243000286847280DD102F061F93A226C21C08842
:10244000C004000C02F014FA02F058F93A229A2162
:102450000CE002F053F93A22D421C088C004000CE9
:1024600002F006FA02F04AF93A22A621C088C00416
:10247000000C02F0FDF900F074F8FFF752FF2100A4
:10248000002003F0D6FB02F039F9C088C100081A19
:1024900080B202F03BF902F031F9C088C004000CB0
:1024A00002F034F900F038FA31BD02F027F9C088A3
:1024B000C004000C02F02AF9286847280DD102F068
:1024C0001DF93A226C21C088C004000C02F0D0F93A
:1024D00002F014F93A229A210CE002F00FF93A22A4
:1024E000D421C088C004000C02F0C2F902F006F941
:1024F0003A22A621C088C004000C02F0B9F900F00D
:1025000030F8FFF70EFF31BD700E0020600900208B
:10251000DC070000A55A000040F2000858F200084D
:1025200070F2000852544320436F6E666967205072
:102530004C5A20576169742E000000002020202092
:1025400020202054494D45202020202020202020DC
:102550000000000080B5002003F04AFFFFF72CFFC9
:1025600033E2B0B582B06946002003F0ECF9514C7B
:102570006D4628780A2104F0DBF8607128780A217A
:1025800004F0D6F82171D14F3868472811D102F0F4
:10259000B5F862793032D2B24C21C088C004000C48
:1025A00002F066F902F0AAF822793032D2B25C2148
:1025B00010E002F0A3F862793032D2B2F421C08880
:1025C000C004000C02F054F902F098F8227930327D
:1025D000D2B2E421C088C004000C02F049F9687846
:1025E0000A2104F0A5F8E07068780A2104F0A0F848
:1025F000A1703868472811D102F080F8E2783032B3
:10260000D2B27C21C088C004000C02F031F902F083
:1026100075F8A2783032D2B28A2110E002F06EF85A
:10262000E2783032D2B2C421C088C004000C02F07B
:102630001FF902F063F8A2783032D2B2B621C08816
:10264000C004000C02F014F9A8780A2104F070F814
:102650006070A8780A2104F06BF821703868472868
:1026600011D102F04BF862783032D2B2AA21C08880
:10267000C004000C02F0FCF802F040F8227830327E
:10268000D2B2BA2110E002F039F862783032D2B218
:102690009621C088C004000C02F0EAF802F02EF87F
:1026A00022783032D2B28621C088C004000C02F0F9
:1026B000DFF8B3BDC00F0020FFFF00001C2800089A
:1026C00038B5C64C200002F00FF81F2002F005F8C4
:1026D000002003F08DFE200002F042F880238022CB
:1026E000DF21A02002F00AF94CA2DF21A02003F094
:1026F000CEFC02F06BF9754D002003F0A7FAB84943
:1027000088424FD001F0FAFFB649C088C200101AC3
:1027100080B202F0BDF801F0F1FFB349C088C004F7
:10272000000C02F0B5F801F0E9FFB049C088C20022
:10273000101880B202F0ACF802F0CFFC012815D1DD
:10274000FFF73AFE200002F00BF82868472810D166
:1027500001F0D4FF3A226C21C088C004000C02F0C2
:1027600087F801F0CBFF3A229A210FE00028E3D04E
:1027700046E001F0C3FF3A22D421C088C004000C17
:1027800002F076F801F0BAFF3A22A621C088C00410
:10279000000C02F06DF802F0A0FC002830D1FFF729
:1027A000E0FEF8E702F099FC0028FBD128684728F2
:1027B0000DD101F0A3FF3A226C21C088C004000CA7
:1027C00002F056F801F09AFF3A229A210CE001F04B
:1027D00095FF3A22D421C088C004000C02F048F8CA
:1027E00001F08CFF3A22A621C088C004000C02F040
:1027F0003FF801E0FFF7B5FE02F06FFC0028F9D0CA
:1028000001F07CFFC088C004000C01F07FFF02F0E3
:1028100099FB012003F0ECFD31BD00005354464903
:102820004C45532F57415443482E424D5000000011
:1028300070B582B001F062FF25A1C088C2001018F7
:1028400080B202F025F86A48006800F0F7FD694C94
:102850006D4660883030E870207868706078A870C5
:1028600001262E706946002003F092F801F046FF21
:102870001DA1C088C200101880B202F009F800F053
:1028800063FE60883030E870207868706078A870E7
:102890002E706946002003F07BF801F02FFF00BF87
:1028A00017A1C088C200101880B201F0F1FF00F03B
:1028B000D9FE60883030E870207868706078A87041
:1028C0002E706946002003F063F873BD700E00207F
:1028D0002055502F444F574E3A2053657420596568
:1028E00061722020000000002055502F444F574EA9
:1028F0003A20536574204D6F6E746820000000000C
:10290000536574204461792D2053454C20546F2029
:10291000657869740000000010B5304C200001F0AB
:102920001FFF1F2001F0E0FE200001F0D6FE002076
:1029300003F08CF92A49884226D001F0DFFE2949AC
:10294000C088C200101A80B201F0A2FF01F0D6FECA
:102950002549C088C004000C01F09AFF01F0CEFEAA
:102960002249C088C200101880B201F091FF02F025
:10297000B4FB012805D1FFF71FFD200001F0F0FE98
:1029800010BD00281AD1F2E71A4C627821786088CD
:1029900000F032F8FFF74CFF6188022003F049F99C
:1029A0002078000261780143032003F042F9208A75
:1029B0000004618A0143042003F03BF910BD80B597
:1029C000002003F015FDFFF7A7FF044801F0C8FE43
:1029D00002F0B8FA012003F00BFD01BDFFFF00007B
:1029E000A55A000040F2000858F2000870F20008F2
:1029F0000428004060090020F7B586B0002002904E
:102A0000FF2140310091019004906846057F5B4CA6
:102A1000022D06D1008B00F0B5FF002801D01E204A
:102A200001E06019C0780490DE4801F05DFE544872
:102A300001F053FE01F062FE1420454361190C3190
:102A4000002001F025FF6846008BFA21890003F081
:102A50006FFE0E003000642103F06AFE0F003800A4
:102A60000A2103F065FE30316846417338000A21BF
:102A700003F05EFE3030694608733000642103F0D5
:102A800057FE070030376846008BFA21890003F0B3
:102A90004FFE060030363B48006847281DD101F044
:102AA0002DFEF2B2E121002001F0E2FE01F026FE4F
:102AB000FAB2F121002001F0DBFE01F01FFE6846B2
:102AC000027BFF21891C002001F0D2FE01F016FEDE
:102AD0006846427BFF2112311AE001F00FFEF2B28C
:102AE0005F21002001F0C4FE01F008FEFAB24F2180
:102AF000002001F0BDFE01F001FE6846027B3F218F
:102B0000002001F0B5FE01F0F9FD6846427B2F215F
:102B1000002001F0ADFE08A802786846017F008B16
:102B200000F0C5FEA04801F0D8FD01F0E7FD164910
:102B3000C08801F0ADFE60690A2103F00DFE114965
:102B40000968472900D092E000281FD001F0D6FD87
:102B5000060060690A2103F0FFFD3030C2B2612136
:102B6000F08801F085FE01F0C9FD060060690A21C8
:102B700003F0F2FD3031CAB2712111E0600900208A
:102B8000E0FF0000700E002088F2000801F0B6FDA2
:102B9000060060690A2103F0DFFD3031CAB261210D
:102BA000F08801F065FEE769FF26223638006421CF
:102BB00003F0D2FD00282ED001F0A0FD0700E0694F
:102BC000642103F0C9FD3030C2B2FF211231F88810
:102BD00001F04EFE01F092FD0700E069642103F070
:102BE000BBFD08000A2103F0B7FD3030C2B231004E
:102BF000F88801F03DFE01F081FD0600E0696421E6
:102C000003F0AAFD08000A2103F0A6FD3031CAB284
:102C1000FF213231AEE038000A2103F09DFD00288B
:102C200019D001F06BFD0700E0690A2103F094FD63
:102C30003030C2B2FF211231F88801F019FE01F0E4
:102C40005DFD0700E0690A2103F086FD3031CAB25C
:102C50003100F8888FE001F051FD0600E0690A219B
:102C600003F07AFD3031CAB2FF21123182E0002830
:102C700017D001F043FD060060690A2103F06CFDE6
:102C80003030C2B2DF21F08801F0F2FD01F036FDF4
:102C9000060060690A2103F05FFD3031CAB2CF211E
:102CA00009E001F02BFD060060690A2103F054FDE4
:102CB0003031CAB2DF21F08801F0DAFDE669300078
:102CC000642103F049FD00282CD001F017FD060017
:102CD000E069642103F040FD3030C2B22F21F0885A
:102CE00001F0C6FD01F00AFD0600E069642103F071
:102CF00033FD08000A2103F02FFD3030C2B21F213E
:102D0000F08801F0B5FD01F0F9FC0600E0696421EE
:102D100003F022FD08000A2103F01EFD3031CAB283
:102D20000F2127E030000A2103F016FD002817D0FC
:102D300001F0E4FC0600E0690A2103F00DFD3030EB
:102D4000C2B22F21F08801F093FD01F0D7FC0600FC
:102D5000E0690A2103F000FD3031CAB21F2109E009
:102D600001F0CCFC0600E0690A2103F0F5FC3031EB
:102D7000CAB22F21F08801F07BFDF820000201F09B
:102D8000B3FC094801F0A9FC01F0B8FC67A1C088B8
:102D90004004000C01F07CFD034801F0A5FC014853
:102DA00004E000BF1F050000FFFF000001F095FCDC
:102DB00001226846017F008B00F079FD01F09EFC46
:102DC000C088410008180290FF204030A1693022DD
:102DD0005143401A08A90F780121534A1268472A23
:102DE000009001915CD1A026760010E00098103888
:102DF000009020220098311A89B2029880B201F026
:102E000037FD0098103800900198401C01900198FF
:102E1000049988427CD20198B84203D1009820825C
:102E20000298608201980A2103F096FC002806D0DF
:102E300001980A2103F090FC3030C2B200E0202259
:102E40000098311A89B2029880B201F011FD009801
:102E50001038009001980A2103F07EFC3031CAB28C
:102E60000098311A89B2029880B201F001FD0098F1
:102E70001F28BBD2701E0090029818300290C3E742
:102E80000098103800902022009989B2029880B2F0
:102E900001F0EEFC0098103800900198401C019061
:102EA00001980499884233D20198B84203D100981E
:102EB00020820298608201980A2103F04DFC0028CC
:102EC00006D001980A2103F047FC3030C2B200E07E
:102ED0002022009989B2029880B201F0C9FC0098C2
:102EE0001038009001980A2103F036FC3031CAB244
:102EF000009989B2029880B201F0BAFC00981F28AC
:102F0000BED2FF2040300090029818300290C4E7F3
:102F1000F820000201F0E1FB20231822218A608AB8
:102F200001F09EFD09B0F0BD700E00204D6F2054E1
:102F300075205765205468204672205361205375D0
:102F400000000000F0B585B0002003F051FA87487A
:102F500001F006FC02F0C1F80028FBD11F2001F0AF
:102F6000C3FB824801F0B9FB002002F06FFE8049EC
:102F7000884222D001F0C2FB7E49C088C200101AEC
:102F800080B201F085FC01F0B9FB7B49C088C00428
:102F9000000C01F07DFC01F0B1FB7849C088C20053
:102FA000101880B201F074FC02F097F801282ED1BD
:102FB000FFF702FA6D4801F0D3FB6C4801F0D0FB3B
:102FC00001F09CFB6E49C088C200101880B201F06D
:102FD0005FFCE048006804A9002002F025FD04AA77
:102FE000D078FA21C9004018DB4C608051782170FC
:102FF0009278627080B2FFF7FFFC2578022D0AD12B
:10300000608800F0BFFC002805D01D2006E00028E5
:1030100000D003E2C8E76019C078401E0090A069A4
:10302000FF21403130224243891A039100990D1843
:10303000ED1F2800072103F08FFB06002800072161
:1030400003F08AFB0D0018204643002D08D101F043
:1030500055FBC08841000818801902901F200BE022
:1030600001F04CFBC088800080190290FF204030A6
:103070006D1E30214D43401B019066780FE001F03A
:103080003DFB0700E0690A2103F066FB3031CAB25C
:103090002F21F88801F0ECFB344801F025FB02F009
:1030A0001CF8022800D028E1304801F016FB20234C
:1030B0001822218A608A01F0D3FC0098864209D147
:1030C000002601F01BFBC0884100081860820398AD
:1030D00030302082208A1F2805D1FF2070302082C6
:1030E000608A18306082208A30382082F8200002FE
:1030F00001F0F3FA20231822218A608A01F0B0FC43
:10310000761CF2B22178608800F0D1FBC84801F04B
:10311000EBFA164801F0E1FA01F0F0FAC549C0886F
:1031200001F0B6FB60690A2103F016FBC249096889
:10313000472900D093E0002824D001F0DFFA0700EF
:1031400060690A2103F008FB3030C2B26121F888BF
:1031500001F08EFB01F0D2FA070060690A2103F04A
:10316000FBFA3031CAB2712116E000BFFFFF000048
:10317000A55A000040F2000858F2000870F200085A
:10318000A0F2000801F0BAFA070060690A2103F012
:10319000E3FA3031CAB26121F88801F069FBE769CE
:1031A0003800642103F0D8FA00282CD001F0A6FAE8
:1031B0000700E069642103F0CFFA3030C2B22F215A
:1031C000F88801F055FB01F099FA0700E0696421E5
:1031D00003F0C2FA08000A2103F0BEFA3030C2B28E
:1031E0001F21F88801F044FB01F088FA0700E0692C
:1031F000642103F0B1FA08000A2103F0ADFA30317E
:10320000CAB20F2145E738000A2103F0A5FA0028C9
:1032100019D001F073FA0700E0690A2103F09CFA63
:103220003030C2B2FF211231F88801F021FB01F0E9
:1032300065FA0700E0690A2103F08EFA3031CAB25C
:10324000FF21223125E701F059FA0700E0690A2140
:1032500003F082FA3031CAB2FF21123119E7002897
:1032600017D001F04BFA070060690A2103F074FAE5
:103270003030C2B2DF21F88801F0FAFA01F03EFAEC
:10328000070060690A2103F067FA3031CAB2CF2122
:1032900009E001F033FA070060690A2103F05CFAE3
:1032A0003031CAB2DF21F88801F0E2FAE76938006C
:1032B000642103F051FA002800D077E738000A2192
:1032C00003F04AFA002800D1D9E601F017FA070006
:1032D000E0690A2103F040FA3030C2B22F21F888A9
:1032E00001F0C6FA01F00AFA0700E0690A2103F0CA
:1032F00033FA3031CAB21F21CBE603282ED19048D1
:1033000001F0EBF920231822218A608A01F0A8FB42
:10331000012E06D1009E761C0298608201983038FA
:103320002082208AFF214031884204D185482082B2
:10333000608A18386082208A30302082F8200002AB
:1033400001F0CBF920231822218A608A01F088FB42
:10335000761ED6E6042800406009002004282BD100
:10336000774801F0BAF920231822218A608A01F0F7
:1033700077FB012E05D10298608201982082009E81
:103380000FE0082E09D2012601F0B8F9C0884100EB
:10339000081860820398208203E0608A18386082EF
:1033A000F61FF820000201F098F920231822218A44
:1033B000608A01F055FBA4E605282CD1604801F095
:1033C0008CF920231822218A608A01F049FB009899
:1033D000864209D101F092F9C08841000818608244
:1033E00003982082012603E0608A18306082F61D6F
:1033F0000098B04204D2064602986082019820826A
:10340000F820000201F069F920231822218A608A3D
:1034100001F026FB75E6012800D040E6484801F09F
:103420009FF901F08FFD012002F0E2FF05B0F0BD31
:103430001F05000088F20008700E002070B582B0F1
:10344000684600210180854C608869460880FA261C
:10345000F600834D06E00088401E6B46188080B25F
:10346000FFF7CAFA01F039FE042823D101F046F92A
:10347000C0884100081880B201F048F901F03EF917
:10348000C088C100081A80B201F040F901F036F995
:10349000C088C004000C01F039F9627821786846D0
:1034A0000088A842684602D106800088D8E70088D4
:1034B000401CD2E705281FD101F020F9C088410047
:1034C000081880B201F022F901F018F9C088C10093
:1034D000081A80B201F01AF901F010F9C088C0048E
:1034E000000C01F013F96278217868460088B04238
:1034F0006846B0D10580D8E70128B3D101F0FEF8C5
:10350000C0884100081880B201F000F901F0F6F817
:10351000C088C100081A80B201F0F8F801F0EEF896
:10352000C088C004000C01F0F1F862782178684688
:103530000088FFF761FA68460088608073BD00006C
:10354000FFFF0000EFFF000030B583B000256846A4
:10355000057001A9002002F067FA404C01A8C1786B
:10356000FA22D200891861804178217080786070D9
:103570006846017025E0684600780C2801D168464D
:10358000057001F0BBF8C0884100081880B201F056
:10359000BDF801F0B3F8C088C100081A80B201F08C
:1035A000B5F801F0ABF8C088C004000C01F0AEF82B
:1035B00068460178491C01706278C9B26088FFF7DB
:1035C0001BFA01F08AFD0428D5D0052822D16846CF
:1035D0000078012802D168460D21017001F08EF8B3
:1035E000C0884100081880B201F090F801F086F818
:1035F000C088C100081A80B201F088F801F07EF896
:10360000C088C004000C01F081F868460078411EB3
:103610006846D0E70128D4D101F070F8C088410095
:10362000081880B201F072F801F068F8C088C10093
:10363000081A80B201F06AF801F060F8C088C0048E
:10364000000C01F063F868460078207062786846E4
:1036500001786088FFF7D0F937BD000060090020CD
:1036600033080000F0B585B068460021017003A959
:10367000002002F0D9F903A9C878FA22D2008018F4
:10368000BE4C60804D78257089786170022D06D11E
:1036900080B200F077F9002801D01D2502E0601902
:1036A000C5786D1EA069FF21403130224243891A3E
:1036B00002912E18F61F3000072103F04DF8070085
:1036C0003000072103F048F80E0018204743002E71
:1036D00007D101F013F8C08841000818C7191F204E
:1036E0000AE001F00BF8C0888000C719FF204030C5
:1036F000761E30214E43801B019060786946087029
:103700009F4E1AE0608A1830608268460078C01DBB
:103710006946087068460078854204D2684605709C
:10372000678201982082F820000200F0D6FF202353
:103730001822218A608A01F093F901F0CEFC022858
:1037400034D1300000F0C9FF20231822218A608A7A
:1037500001F086F968460078A8420BD1684600213E
:10376000017000F0CBFFC088410008186082029809
:1037700030302082208A1F2805D1FF20703020821F
:10378000608A18306082208A30382082F820000257
:1037900000F0A3FF20231822218A608A01F060F93B
:1037A00068460078401C69460870C6E703282ED199
:1037B000300000F092FF20231822218A608A01F055
:1037C0004FF968460078012806D1681C69460870E0
:1037D0006782019830382082208AFF214031884258
:1037E00004D1CE482082608A18386082208A303026
:1037F0002082F820000200F070FF20231822218A86
:10380000608A01F02DF968460078401ECBE7042855
:103810002AD1300000F061FF20231822218A608A1B
:1038200001F01EF968460078012805D167820198E9
:1038300020826846057076E76846007808280AD234
:1038400068460121017000F059FFC0884100081846
:103850006082029866E7608A18386082684600785D
:10386000C01F694608705EE7052819D1300000F0D6
:1038700034FF20231822218A608A01F0F1F868467B
:103880000078A84200D03DE700F038FFC088410032
:10389000081860820298208268460121017039E789
:1038A000012882D168460078607005B0F0BDF6B599
:1038B00082B000276946097A032901D2461E00E03A
:1038C0000600B5083000642102F046FF2D1A3000D2
:1038D000C821490002F040FF28180190751EA90870
:1038E000411A00912800642102F036FF00990C185B
:1038F0002800C821490002F02FFF241A6846007AE8
:1039000069460D7B032804D24101081A2D18203D79
:103910000AE0671C992148438D494018052102F0AF
:1039200007FF28183A30051901983018072102F0CE
:1039300013FF0E00A819C01B072102F00DFF0F0096
:10394000E81CC01B08D535210091301B052102F071
:1039500003FF3521081A0AE0B621490061188142A7
:1039600001D2012003E0072102F0E2FE401C0349DE
:1039700048618F616D1CCD61FFBD000060090020B2
:10398000FFFF000010B50400A00701D0002010BD0B
:103990002000642102F0CCFE002901D0012010BDDE
:1039A0002000C821490002F0C3FE481E8041C00F1C
:1039B00010BDF0B585B0BC4E002302227179F42011
:1039C000FEF7E6FB31790A244443022807D1042993
:1039D00001D30020307100230322317901E000235C
:1039E0000922E420FEF7D4FB251800230522F178F4
:1039F000C420FEF7CDFB6946087000230922B17888
:103A0000B620FEF7C5FB070000230522717896203B
:103A1000FEF7BEFB04000023092231788620FEF762
:103A2000B7FB060000218020400002F099F801A8B1
:103A30000021C1700570694609780A225143C919ED
:103A400041700A214C43A11981703121017300207A
:103A5000039080200006029001AAC10D002002F010
:103A600005F80121080302F003F90121080202F020
:103A700077F805B0F0BD80B51F2000F035FE8B480B
:103A800000F02BFE002002F0E1F88949884215D0B1
:103A900000F034FE8749C088C004000C00F0F8FE36
:103AA00000F02CFE8449C088C200101880B200F0DB
:103AB000EFFE01F012FB00282FD1FAE700F01EFE06
:103AC000C088C004000C00F021FED34800684728DD
:103AD0000DD100F013FE3A226C21C088C004000C06
:103AE00000F0C6FE00F00AFE3A229A210CE000F037
:103AF00005FE3A22D421C088C004000C00F0B8FEB4
:103B000000F0FCFD3A22A621C088C004000C00F0A1
:103B1000AFFE00F01FF8FFF74CFF01BDEFFF000004
:103B200010B5002002F064FC604C200000F018FE8C
:103B300080238022DF21A02000F0E0FEB74ADF21B1
:103B4000A02002F0A4FA00F041FFFFF794FF22E169
:103B500037FEFFFFBFB56A4680214900002001F013
:103B6000D1FF514C6D4628780A2102F0E1FD6071C9
:103B700028780A2102F0DCFD2171A74F3868472818
:103B800011D100F0BBFD62793032D2B24C21C08835
:103B9000C004000C00F06CFE00F0B0FD2279303261
:103BA000D2B25C2110E000F0A9FD62793032D2B2CD
:103BB000F421C088C004000C00F05AFE00F09EFD05
:103BC00022793032D2B2E421C088C004000C00F067
:103BD0004FFE68780A2102F0ABFDE07068780A2198
:103BE00002F0A6FDA1703868472811D100F086FDCB
:103BF000E2783032D2B27C21C088C004000C00F0E0
:103C000037FE00F07BFDA2783032D2B28A2110E07C
:103C100000F074FDE2783032D2B2C421C088C00412
:103C2000000C00F025FE00F069FDA2783032D2B21F
:103C3000B621C088C004000C00F01AFEA8780A2142
:103C400002F076FD6070A8780A2102F071FD217003
:103C50003868472811D100F051FD62783032D2B275
:103C6000AA21C088C004000C00F002FE00F046FD4E
:103C700022783032D2B2BA2110E000F03FFD6278F3
:103C80003032D2B29621C088C004000C00F0F0FDA2
:103C900000F034FD22783032D2B28621C088C004D0
:103CA000000C00F0E5FDBFBDC80F0020FFFF0000C5
:103CB000A55A0000283E0008403E000810B500202C
:103CC00002F096FB564C200000F04AFD8023802233
:103CD000DF21A02000F012FE5FA2DF21A02002F071
:103CE000D6F900F073FE1F2000F0FEFC200000F06B
:103CF000F4FC002001F0AAFF4A49884216D000F0E7
:103D0000FDFC00BF48A1C088C004000C00F0C0FD4D
:103D100000F0F4FC4AA1C088C200101880B200F084
:103D2000B7FD01F0DAF9002835D1FAE700F0E6FC3A
:103D3000C088C004000C00F0E9FC37480068472840
:103D40000DD100F0DBFC3A226C21C088C004000CCD
:103D500000F08EFD00F0D2FC3A229A210CE000F037
:103D6000CDFC3A22D421C088C004000C00F080FDB4
:103D700000F0C4FC3A22A621C088C004000C00F068
:103D800077FDFFF7E7FE01F0A8F90028FBD101F06D
:103D9000A4F90028FBD0200000F0E2FC01F0D2F8EA
:103DA000012002F025FB10BD10B584B001210807E9
:103DB00002F0A0F8012002F007F9012002F07AF8E1
:103DC000002002F077F8174C002001F03FFFA042DE
:103DD0001ED0012002F007F8212002F0ADF80028E3
:103DE000FAD08020400002F04FF8012002F052F893
:103DF00001F030FD7F200190FF2002900020009014
:103E0000684601F0EBFC2100002001F012FF1FBD0D
:103E100001F020FD1FBD0000700E0020583E00087C
:103E2000FFFF0000A55A000054696D65206E6F7495
:103E300020636F6E6669677572656420000000001C
:103E4000202020202050726573732053454C202081
:103E50002020202000000000535446494C45532F99
:103E6000414C41524D2E424D50000000F8B500F03B
:103E700090FF00F0CBFF87488168472900D00BE115
:103E80000021EA2000F04BFF2021EB2000F047FF4B
:103E90000C21EC2000F043FFC421ED2000F03FFF97
:103EA0004021E82000F03BFF3821E92000F037FFF7
:103EB0000121F12000F033FF1021F22000F02FFF4C
:103EC000A321272000F02BFF0121402000F027FF35
:103ED0000021412000F023FF0021422000F01FFFBD
:103EE0001021432000F01BFF0E21442000F017FF9B
:103EF0002421452000F013FF0421462000F00FFF8D
:103F00005021472000F00BFF0221482000F007FF5E
:103F10001321492000F003FF19214A2000F0FFFE81
:103F200019214B2000F0FBFE16214C2000F0F7FE7B
:103F30001B21502000F0F3FE3121512000F0EFFE54
:103F40002F21522000F0EBFE3F21532000F0E7FE2E
:103F50003F21542000F0E3FE3E21552000F0DFFE1B
:103F60002F21562000F0DBFE7B21572000F0D7FEEA
:103F70000921582000F0D3FE0621592000F0CFFE81
:103F800006215A2000F0CBFE0C215B2000F0C7FE7A
:103F90001D215C2000F0C3FECC215D2000F0BFFE9F
:103FA0001B211B2000F0BBFE01211A2000F0B7FEF0
:103FB0002F21242000F0B3FE5721252000F0AFFE72
:103FC0008621232000F0ABFE3621182000F0A7FE4A
:103FD0000121192000F0A3FE0021012000F09FFE26
:103FE00088211F2000F09BFE022000F084FF80212A
:103FF0001F2000F094FE022000F07DFF90211F2082
:1040000000F08DFE022000F076FFD0211F2000F08E
:1040100086FE022000F06FFF0521172000F07FFED2
:104020000021012000F07BFE0021022000F077FE3D
:104030000021032000F073FE0121042000F06FFE38
:104040003F21052000F06BFE0021062000F067FEF6
:104050000021072000F063FE0021082000F05FFE31
:10406000EF21092000F05BFE2821162000F057FE0A
:104070000021362000F053FE0421362000F04FFED0
:104080003821282000F04BFE062000F034FF3C21B0
:104090002820F9E2680E00207B4CFF25403581681E
:1040A0007A4A914200D0FDE0052000F024FF8021F3
:1040B0000902E52000F033FE0121002000F02FFE70
:1040C00080214900012000F02AFEE021C9000220E1
:1040D00000F025FE6E49032000F021FE002104209F
:1040E00000F01DFEED49082000F019FE0021092016
:1040F00000F015FE00210A2000F011FE00210C2026
:1041000000F00DFE00210D2000F009FE00210F201F
:1041100000F005FE0021102000F001FE002111201A
:1041200000F0FDFD0021122000F0F9FD0021132018
:1041300000F0F5FD142000F0DEFE5649102000F0DE
:10414000EEFDFF213831112000F0E9FD052000F0DF
:10415000D2FEFF213A31122000F0E1FD052000F0EF
:10416000CAFEE8214901132000F0D9FD13212920BE
:1041700000F0D5FD052000F0BEFE0021202000F05B
:10418000CEFD0021212000F0CAFD0621302000F0E4
:10419000C6FD2109312000F0C2FD0321322000F0CC
:1041A000BEFD83214900352000F0B9FD3A49362093
:1041B00000F0B5FDDD49372000F0B1FD374938206A
:1041C00000F0ADFD0721392000F0A9FDC021C90094
:1041D0003C2000F0A4FD32493D2000F0A0FD00216C
:1041E000502000F09CFDEF21512000F098FD0021AF
:1041F000522000F094FD2900532000F090FD9C21F6
:104200008901602000F08BFD0121612000F087FD15
:1042100000216A2000F083FD0021802000F07FFD56
:104220000021812000F07BFD0021822000F077FD3D
:104230000021832000F073FD0021842000F06FFD39
:104240000021852000F06BFD1021902000F067FD1B
:104250000021922000F063FD0321932000F05FFD18
:1042600088214900952000F05AFD0021972000F098
:1042700056FD0021982000F052FD2100032000F09F
:104280004EFDFF217431FEE1181000002093000064
:1042900030100000B0170000020B000007070000FC
:1042A0000B020000C34FFF26B61D8168C24A91422F
:1042B00000D0EFE0C149E32000F031FD1221E720FA
:1042C00000F02DFDF249EF2000F029FD802149008A
:1042D000012000F024FDE021C900022000F01FFDB4
:1042E000F900032000F01BFD0021042000F017FD61
:1042F0006A49082000F013FD0021092000F00FFD9D
:1043000000210A2000F00BFD00210C2000F007FD29
:1043100000210D2000F003FD00210F2000F0FFFC24
:104320000021102000F0FBFC0021112000F0F7FC20
:104330000021122000F0F3FC0021132000F0EFFC1C
:10434000142000F0D8FD0721112000F0E8FC052022
:1043500000F0D1FDCF49102000F0E1FC052000F075
:10436000CAFDFF21BE31122000F0D9FC052000F06B
:10437000C2FDA0214901132000F0D1FC0E2129200B
:1043800000F0CDFC052000F0B6FD0021202000F05B
:10439000C6FC2900212000F0C2FC0721302000F0DB
:1043A000BEFC6249312000F0BAFC3100322000F03E
:1043B000B6FC3900352000F0B2FCD249362000F0BE
:1043C000AEFC3900372000F0AAFCCF49382000F0BD
:1043D000A6FC0721392000F0A2FC31003C2000F0AF
:1043E0009EFCC8493D2000F09AFC0021502000F0BE
:1043F00096FCEF21512000F092FC0021522000F0A9
:104400008EFC2900532000F08AFCA72109026020BD
:1044100000F085FC0121612000F081FC00216A2070
:1044200000F07DFC0021802000F079FC002181203B
:1044300000F075FC0021822000F071FC0021832037
:1044400000F06DFC0021842000F069FC0021852033
:1044500000F065FC1021902000F061FC002192200A
:1044600000F05DFC0321932000F059FC88214900F5
:10447000952000F054FC0021972000F050FC002112
:10448000982000F04CFC2100032000F048FC89211A
:104490004900F8E08068BE4902E000BF0202000067
:1044A000884200D0F2E00121002000F038FC802199
:1044B0004900012000F033FCE021C900022000F097
:1044C0002EFC2100032000F02AFC0021042000F033
:1044D00026FCC049082000F022FC0021092000F041
:1044E0001EFC00210A2000F01AFC00210C2000F024
:1044F00016FC00210D2000F012FC00210F2000F01E
:104500000EFC0021102000F00AFC0021112000F018
:1045100006FC0021122000F002FC0021132000F014
:10452000FEFB142000F0E7FCAB4901E002030000B1
:10453000102000F0F4FBFF213831112000F0EFFBD8
:10454000052000F0D8FCFF213A31122000F0E7FBF3
:10455000052000F0D0FCE8214901132000F0DFFB2A
:104560001321292000F0DBFB052000F0C4FC002112
:10457000202000F0D4FB0021212000F0D0FB0721F7
:10458000302000F0CCFBC149312000F0C8FB3100E5
:10459000322000F0C4FB3900352000F0C0FB59493F
:1045A000362000F0BCFB3900372000F0B8FB56493C
:1045B00006E000BF060200000854000008300000BA
:1045C000382000F0ACFB0721392000F0A8FB3100B7
:1045D0003C2000F0A4FB4B493D2000F0A0FB002153
:1045E000502000F09CFBEF21512000F098FB0021AF
:1045F000522000F094FB2900532000F090FBA721EB
:104600000902602000F08BFB0121612000F087FB94
:1046100000216A2000F083FB0021802000F07FFB56
:104620000021812000F07BFB0021822000F077FB3D
:104630000021832000F073FB0021842000F06FFB39
:104640000021852000F06BFB1021902000F067FB1B
:104650000021922000F063FB0321932000F05FFB18
:1046600088214900952000F05AFB0021972000F096
:1046700056FB0021982000F052FB2100032000F09F
:104680004EFBFF213431072000F049FBF1BD00BF94
:1046900031120000B012000010B582B0002000906E
:1046A000FFF7E4FB002000F0D2FA0090914C924812
:1046B0000099814207D036480099814203D0401FBB
:1046C0000099814203D1A060FFF7D0FB01E04720B1
:1046D000A06020000C30606013BD01B485486946BD
:1046E0000988018001B0704701B482486946098891
:1046F000418001B070477F49486070477D484068FD
:1047000070470000080800000405000070B50600AE
:10471000FF254035774CA068472819D10025A020F7
:104720004000ADB2401B61688988884217DB2022B7
:104730002900300000F09CF8606880882D18EEE7B2
:1047400020222900300000F093F8606880882D1A3C
:10475000ADB2681C80B2616889888842F0DA70BDA9
:1047600038B5040063488068472801D1002101E082
:10477000FF214031002000F00DF800F0BBFA962533
:104780006D02200000F0EDFA6D1EFAD100F0E3FAA0
:104790002593000038B504000D005648806847286E
:1047A0000ED1090A022000F0BAFAE9B2032000F0A3
:1047B000B6FA0021062000F0B2FA2100072005E039
:1047C0002100202000F0ABFA2900212000F0A7FAF8
:1047D00031BD000002020000B0170000F6B583B042
:1047E000002569468880684681898088FFF7D2FF66
:1047F0000FE001221021994802F009F868468088EC
:10480000401C69468880684681898088FFF7C2FF1E
:104810006D1C38484068C088854227D200F06AFA8B
:10482000002404E03348008800F09BFA641C3148FF
:1048300040688688B442DCD2680004990F5A802010
:10484000009030000C2101F073FFC10080208840EF
:104850002041074201D10D2E05D30120A04007427F
:10486000E0D10D2EDED323484088DDE705B0F0BD52
:1048700010B5204B5B68203AD2B2DC88624352000C
:104880001B689A18FFF7AAFF10BD00000203000082
:10489000F8B507000C00FF254035164EB0684728D4
:1048A0001CD100252278002A22D0A0204000ADB2E1
:1048B000401B7168898888421ADB29003800FFF79D
:1048C000D7FF706880882D18641CEBE7290038003A
:1048D000FFF7CEFF706880882D1A641C2278002AAA
:1048E00006D0ADB2681C80B2716889888842EDDA62
:1048F000F1BD0000680E002008540000F1B50F0063
:104900001C00150066488068472838D1FF264036CD
:10491000F01B011289B2022000F001FAF01BC1B2B3
:10492000032000F0FCF9761EE01B8019011289B209
:10493000042000F0F4F9E01B8019C1B2052000F05A
:10494000EEF90021062000F0EAF9EF206946098817
:10495000401AC1B2072000F0E2F90021082000F05F
:10496000DEF968460088281AEE30C1B2092000F04E
:10497000D6F9390068460088FFF70CFF20E068464A
:104980000088A84205D368460088411B491C89B2AB
:1049900000E00021502000F0C2F968460188512053
:1049A00000F0BDF9A74203D3391B491C89B200E0CE
:1049B0000021522000F0B3F93900532000F0AFF984
:1049C000390068460088FFF7E5FEF1BD80B5A023F9
:1049D0005B00F022591EEF20FFF790FF30488068FF
:1049E000472803D05449032000F099F901BDF7B5D9
:1049F00004001E0000252A4FB868472806D1FF2072
:104A0000403069468988401A6946888068468188AE
:104A10002000FFF7BFFE002E1AD100F06BF903E073
:104A2000388800F09EF96D1C684600898542F7D3EE
:104A300001221021094801F0EAFEF7BD388800F094
:104A400061F9641C68468188A0B2FFF7A3FE6D1C63
:104A5000684600898542F1D3F7BD00000014004884
:104A6000F8B505000C0017001E0000233200FFF708
:104A7000BEFF002332002100E81980B2FFF7B7FF24
:104A800001233A0021002800FFF7B1FF01233A007B
:104A9000A11B491C89B22800FFF7A9FFF1BD000046
:104AA000680E0020F4B582B004000E001F00234DF4
:104AB000684629880180008828800023684602898A
:104AC00031002000FFF793FF002368460289310080
:104AD000E01980B2FFF78BFF01233A00310020007C
:104AE000FFF785FF01233A0068460089311A491C07
:104AF00089B22000FFF77BFF68460089801E694667
:104B000048807F1E761E6888088068460088288056
:104B100007E0641C002368464288B1B2A0B2FFF7E8
:104B200066FF3800471E0004F3D1684629880180DB
:104B300000882880F7BD000018100000680E0020D3
:104B4000FAB589B000210027131A012B6B4601DB4F
:104B5000141A00E0841A5C801B8D6C46A48C1B1B0D
:104B6000012B6B466C4603DB248D6D46AD8C02E059
:104B7000A48C6D462D8D641B1C8006B29C8C24B2C7
:104B80000023DB430125824202D30595049501E011
:104B9000059304936846008D6A46928C904202D336
:104BA0000395029501E003930293009800B2009AE6
:104BB0001214009B1B14009D2DB2AB4208DB059123
:104BC00002910192D10F89184D10079006921CE0B6
:104BD000049103910190C10F09184D10079206909E
:104BE00013E021B230B200F077F907982D182DB2FA
:104BF0000198854204DB2D1A05983618039824186D
:104C000004983618029824187F1C06983FB2B842C0
:104C1000E7DA0BB0F0BD38B5040000221021764869
:104C200001F0F5FD754D2100A9E038B504007020B4
:104C3000FFF7F1FF714D0021280001F04BFE8021AC
:104C4000280001F061FE0028F9D121007AE070B55A
:104C50006B4E6A4C218831402180218808220A430A
:104C60002280FFF7E2FF7320FFF7D5FF0525FF2124
:104C7000200001F02FFE8021200001F045FE0028D9
:104C8000F9D10121200001F03FFE0028F9D02000D9
:104C900001F022FE6D1EEAD1FF21200001F01AFE74
:104CA0008021200001F030FE0028F9D101212000F0
:104CB00001F02AFE0028F9D0FF21200001F00AFEB1
:104CC0008021200001F020FE0028F9D101212000E0
:104CD00001F01AFE0028F9D0200001F0FFFD0500C8
:104CE00001221021444801F092FD208806402680D0
:104CF000280070BD80B52220FFF797FF7220FFF7D4
:104D00008AFF01BD10B50400FFF7F4FF200000F09A
:104D100028F801221021384801F079FD10BD38B57E
:104D20000C00FFF782FF7220FFF775FF334D210A59
:104D3000280001F0CFFD8021280001F0E5FD0028CA
:104D4000F9D1E1B2280001F0C5FD8021280001F071
:104D5000DBFD0028F9D101221021274801F057FD81
:104D600031BD38B50400254D210A280001F0B2FDFF
:104D70008021280001F0C8FD0028F9D1E1B2280007
:104D800001F0A8FD8021280001F0BEFD0028F9D126
:104D900031BD30B583B00121880501F097F81020AE
:104DA0000090684603214171012101710021C180F9
:104DB000114C6946200001F0E7FC0122102120007F
:104DC00001F025FD80200090534C6946200001F041
:104DD000DBFC80252D0200956946200001F0D4FC03
:104DE00001222900200001F012FD01228021200073
:104DF00001F00DFD37BD00000014004800300140F7
:104E0000C7FF000080B501F002FD01BDF0B587B01D
:104E10000121C020C00201F059F801213F4801F0F2
:104E20005FF8202000906C460320607102262671F6
:104E30000027E7809025ED056946280001F0A4FCD5
:104E4000102000906946364801F09EFC80200090BA
:104E50006946280001F098FC00220F21280001F08B
:104E6000DCFC002204212E4801F0D7FC002207219F
:104E7000280001F0D2FC2B4D280001F0DFFC02A835
:104E80000780822149004180E021C9008180C680DD
:104E900001260681690D4181C7600721018202A9AF
:104EA000280001F0E6FCA90C280001F010FD01210A
:104EB000280001F002FD0425009566712671A67197
:104EC000E7716946164801F05FFC1548808A054382
:104ED0001348858207B0F0BD80B2F02800D3704738
:104EE00080B5A022520089B2914203D20023012250
:104EF000FFF77DFD01BD01B481B000200090019855
:104F00000949484301E00098401E0090009800289D
:104F1000F9D102B070470000000C004801100000F9
:104F20000004004800300140D0840000C448010063
:104F3000A43101624278920082181161010024318B
:104F400081607047F8B500241F20FFF7CDFBBD4FEF
:104F50003800FFF7C2FB3800FFF702FCB84E306A9A
:104F600001680020FFF794FC18253800FFF7BCFB10
:104F70001F20FFF7B2FB07E0210140684158A8B2AB
:104F8000FFF786FC641C1835306A017A8C42F3D333
:104F9000FC20C000FFF7A8FB3800FFF79EFB30782D
:104FA0000101326A52685118B1600968401C182228
:104FB000504380B2FFF76CFCF1BD10B5A04CA06867
:104FC000E060C16800290FD000212170C068206214
:104FD0004068A060FFF7B6FF6078401C6070000674
:104FE000800D2018216A0161E0684068804710BD8B
:104FF00038B5944D2800FFF777FB1F20FFF76DFBB6
:105000008F4C20780101226A52685118A16009680A
:10501000401C1822504380B2FFF73AFC2078002849
:1050200001D1206A007A401E1EE038B5854D280067
:10503000FFF75AFB1F20FFF750FB814C207801013E
:10504000226A52685118A1600968401C1822504316
:1050500080B2FFF71DFC2078216A097A491E884238
:1050600001DB002000E0401C2070FC20C000FFF7A6
:105070003BFB2800FFF731FB20780101226A5268D0
:105080005118A1600968401C1822504380B2FFF7F4
:10509000FFFB607820182178017131BD10B5684C94
:1050A000A068806880476078002801D10120607086
:1050B000607881006118C96821624968A160002197
:1050C000221811712170401E6070000602D0FFF797
:1050D00039FF10BD00F0DAF810BD80B5022001F0F4
:1050E000CBFC002806D0022001F0C6FC0128FAD033
:1050F000022002BD032001F0BFFC002806D00320DF
:1051000001F0BAFC0128FAD0032002BD042001F00E
:10511000B3FC002806D0042001F0AEFC0128FAD030
:10512000042002BD052001F0A7FC002806D00520C0
:1051300001F0A2FC0128FAD0052002BD062001F0F2
:105140009BFC002805D0062001F096FC0128FAD02F
:10515000012002BD7047F8B5002562279124640044
:1051600003200090042640234022A1B2B8B2FFF7EA
:10517000C5FBA800CD49081880300268A1B2F8B27A
:1051800000F085FF413C6D1C082D08D0761EEAD149
:105190004137912464000098401E0090E2D1F1BD97
:1051A000FEB507276C4627700025A570684601F0FC
:1051B000ABFD0F21012001F0D1FD01A80571802573
:1051C0002D020195082141710126867101F0DAFD59
:1051D000280001F011FE27706670A670684601F085
:1051E00093FD184C2000FFF7BBFAB148FFF77CFA9B
:1051F0002000FFF772FAFFF781FA00BF12A100202A
:10520000FFF746FBFFF77AFA15A1C088FFF740FBCE
:10521000AA23AA22F521DC20FFF770FB16A2F521B4
:10522000DC2000F034FFFFF7D1FBAA2001F0FBF8EF
:105230002000FFF759FA1F20FFF74FFAF7BD0000D3
:10524000700A0020FFFF000020202053544D33320D
:10525000303531382D4556414C20202000000000CB
:1052600020202044454D4F20434F4E464947203192
:105270002020202000000000535446494C45532F65
:1052800053544C4F474F2E424D500000F0B58DB057
:105290000024684689A1302201F0DAFD002001F0E7
:1052A000A7F8FFF71AFF0028FBD1FFF73FFE814D5B
:1052B0002C70814F3800FFF753FA1F20FFF714FAC4
:1052C0003800FFF70AFAFFF719FAA868016800200A
:1052D000FFF7DEFA3800FFF707FA1F20FFF7FDF9A6
:1052E000FFF739FFFFF772FB4123402268464188F0
:1052F0000088FFF7B5FB12E0401C287028780001F9
:10530000296A49680818A860FFF7F8F9A8680168D1
:105310000020FFF7BDFA6878281829780171FFF797
:10532000DCFEA1006A46561804282FD13800FFF78A
:10533000D4F94123402271883088FFF791FB042C77
:1053400004D20834082C02D3072400E0241F1F20B5
:10535000FFF7C3F9A000694608184123402241889D
:105360000088FFF77DFB1F20FFF7BEF93800FFF72D
:10537000B4F928780100042805D20831C9B20829F7
:1053800002D3072100E0091F2970B7E705282ED1B5
:105390003800FFF7A2F94123402271883088FFF7D7
:1053A0005FFB082C01D3083C03E0241D082C00D32C
:1053B00007241F20FFF791F9A00069460818412330
:1053C000402241880088FFF74BFB1F20FFF78CF934
:1053D0003800FFF782F928780100082801D308393E
:1053E000D2E7091DC9B20829CED30721CCE703288B
:1053F00027D13800FFF771F94123402271883088A6
:10540000FFF72EFB002C01D1072400E0641E1F20B3
:10541000FFF763F9A000694608184123402241883C
:105420000088FFF71DFB1F20FFF75EF93800FFF72C
:1054300054F92878002801D0401E5EE7286A007AD7
:10544000FAE7022828D13800FFF747F94123402224
:1054500071883088FFF704FB072C01D1002400E09D
:10546000641C1F20FFF739F9A00069460818412382
:10547000402241880088FFF7F3FA1F20FFF734F934
:105480003800FFF72AF92878296A097A491E8842E4
:1054900000DA31E7002030E7012800D03FE7FFF7CE
:1054A0008CFD012000F0A4FF0DB0F0BD0000002035
:1054B0001F050000700A0020FFFF000022002201EB
:1054C0002200E1002200A00022005F006300220110
:1054D0006300E1006300A00063005F00A4002201FC
:1054E000A400E100A400A000A4005F00FEB5C02558
:1054F000AD000024B44E3000FFF732F91F20FFF753
:10550000F3F83000FFF7E9F880200002019001A8CD
:1055100004710121C17101A9AC4801F035F9FF20E6
:1055200000F09DFF01F0BEFC002812D1FFF7E6F865
:1055300073A1C088FFF7ACF901F0B4FC0028FBD0E0
:10554000FFF7DCF874A1C088FFF7A2F9C82000F0CB
:105550006AFF01F0A3FA00F087FD002803D02800BD
:10556000451E0028F5D1002D994F0CD1FFF7C6F844
:105570006FA1C088FFF78CF9FFF7C0F872A1C0884F
:10558000FFF786F9FEE7AA2080003E180122A0005E
:10559000381880300168300002F0D2FB002801D0BA
:1055A0000120FEBD3D00A435A920800038180090E0
:1055B0000346802292002900300002F088FC062277
:1055C000290000BF6AA000F0DFF8002801D0022007
:1055D000FEBD641CE4B2082CD5D300240122A00037
:1055E00038184169300002F0ABFB00281BD1009B4A
:1055F000802292002900300002F069FC0622290076
:1056000057A000F0C1F800281DD1641CE4B2032C9F
:10561000E4D300240122A0003818016A300002F00F
:105620008FFB002801D00520FEBD009B8022920048
:105630002900300002F04BFC062229004AA000F0AD
:10564000A3F8002801D00620FEBD641CE4B2022CA1
:10565000E0D300240122A0003818816A300002F053
:105660006FFB002818D1009B802292002900300097
:1056700002F02DFC062229003DA000F085F800284C
:105680001BD1641CE4B20A2CE4D30122F96F300070
:1056900002F056FB002801D00720FEBD009B8022AF
:1056A00092002900300002F012FC0622290000BFFF
:1056B00031A000F069F8002801D00920FEBD0024C7
:1056C0000122A0003818016D300002F039FB0028DB
:1056D00001D00A20FEBD009B8022920029003000EC
:1056E00002F0F5FB0622290025A000F04DF8002865
:1056F00001D00B20FEBD641CE4B20B2CE0D3FEBD38
:10570000506C6561736520696E73657274205344D3
:105710004361726400000000202020534443617202
:105720006420646574656374656420200000000073
:10573000534443617264206E6F7420666F726D61B2
:105740007474656400000000526570726F67726166
:105750006D20796F757220636172642E0000000005
:10576000424D425802000000424D428000000000BD
:10577000424D422000000000424D0AE200000000BD
:10578000424D42320000000010B501E0401C491CAF
:1057900013005A1E1B0405D003780C78A342F5D0E1
:1057A000012010BD002010BD10B50A480121017074
:1057B000094C2021200003F005F81021200003F0FF
:1057C00001F8002010BD0000FFFF000000040048A9
:1057D00000000020600F00200054004070B504005D
:1057E0000025904ECA20F0615320F06100F017F8B8
:1057F000002813D030684021884330603068216829
:1058000001433160A068B060B06861680904014379
:10581000B160706880218843706001253CE018B554
:1058200000200090402090490A68024210D10022D6
:10583000D2430A6004020A68009B5B1C0093009B31
:10584000A34201D00242F6D009684806C00F12BD3B
:10585000012012BD18B5002000902020A8490A6838
:10586000024201D0012012BDCA22CA615322CA617C
:105870004A68A0239A434A6084024A68009B5B1CE2
:105880000093009BA34201D00242F6D04A689006E2
:10589000C00FFF22CA6112BDFF20F061280070BD59
:1058A000F8B50F0000216A461170384C40220028DC
:1058B000A0682CD1104200D1F970387800F02DFA90
:1058C0000500787800F029FA0600B87800F025FA8B
:1058D000290432020A431043F9780D040543CA2013
:1058E000606253206062FFF79AFF002820D0B4481E
:1058F00028402060E06880218843E0600125A0689E
:10590000800613D4FFF7A6FF002811D00EE0104246
:1059100003D0387800F00CFA00E0F9703878000411
:10592000797809020143B8780843D5E768460570DD
:10593000FF20606268460078F2BD0021C1700170EE
:1059400041708170704710B50C0010490A689C497D
:1059500011400A0C93069B0E23700B0A6370A17012
:1059600040210A40E27000280BD1207800F0E0F9D5
:105970002070607800F0DCF96070A07800F0D8F951
:10598000A07010BD9149486A09687047002800401E
:10599000F8B50C000027617800282FD1C80603D580
:1059A000EF2008400A306070E07800F0B6F905009A
:1059B000607800F0B2F90600A07800F0AEF9290492
:1059C00032020A43104321784C0304437F4DCA201E
:1059D000286253202862FFF722FF00281DD07C4850
:1059E00020402860A86880218843A86068688006F5
:1059F00012D4FFF72FFF00280FD00DE0080000F0B1
:105A000097F9A07800F094F9E07800046178090231
:105A10000143A0780843D6E70127FF202862380019
:105A2000F2BD00000828004010B50C0067490A6864
:105A3000674911400A0CE2700A0AD206D20E62705F
:105A4000A1700904490F217000280BD1E07800F003
:105A50006FF9E070607800F06BF96070A07800F08A
:105A600067F9A07010BD00000C280040F8B51400C4
:105A70004021002200282AD121480068084200D194
:105A8000E270207800F049F90700607800F045F9ED
:105A90000500A07800F041F90600207B00F03DF9F8
:105AA00039042A020A431643E17809043143000607
:105AB0000843A1680143606808431149CA22CA61CA
:105AC0005322CA6148610846FF21C161F1BD0C48FB
:105AD0000068084203D0207800F02AF900E0E27064
