:020000040800F2
:1000000060110020A9510008814D0008834D0008AF
:1000100000000000000000000000000000000000E0
:10002000000000000000000000000000854D0008F6
:100030000000000000000000874D0008894D000806
:10004000FB2600086B2800085F4E000807290008FF
:1000500067490008A74D00089B510008FB4D0008A8
:10006000A7510008C5510008494F0008C7510008B2
:10007000C9510008CB510008CD510008A94E000815
:10008000CF510008D151000800000000FD4D0008CC
:10009000894E0008994E0008D3510008D551000838
:1000A000D7510008D9510008DB510008DD51000884
:1000B000DF51000800000000E151000800000000CE
:1000C0000000000000000000000000000000000030
:1000D00000000000001000100010001000100010C0
:1000E0000000001000000000002800280028000088
:1000F00000000000000000000000000000240024B8
:10010000007C00240048007C0048004800000000FB
:1001100000380054005000380014005400540038D7
:100120000010000000200054005800300028005447
:100130000014000800000000001000280028001033
:100140000034004800480034000000000010001097
:10015000001000000000000000000000000000008F
:1001600000080010002000200020002000200020B7
:100170000010000800200010000800080008000817
:1001800000080008001000200010003800100028AF
:10019000000000000000000000000000000000005F
:1001A00000100010007C0010001000000000000093
:1001B000000000000000000000000000000000102F
:1001C00000100010000000000000000000000038D7
:1001D000000000000000000000000000000000001F
:1001E00000000000000000100000000000080008EF
:1001F000001000100010001000200020000000007F
:1002000000380044004400540044004400440038D6
:10021000000000000010003000500010001000101E
:1002200000100010000000000038004400440004EA
:10023000000800100020007C00000000003800448E
:10024000000400180004000400440038000000000E
:1002500000080018002800280048007C000800085A
:1002600000000000007C0040004000780004000412
:1002700000440038000000000038004400400078CE
:10028000004400440044003800000000007C0004EA
:1002900000080010001000200020002000000000D6
:1002A0000038004400440038004400440044003852
:1002B000000000000038004400440044003C0004FA
:1002C00000440038000000000000000000100000A2
:1002D000000000000000001000000000000000000E
:1002E00000000010000000000000001000100010CE
:1002F00000000000000C003000400030000C000046
:1003000000000000000000000000007C0000007CF5
:100310000000000000000000000000000060001865
:1003200000040018006000000000000000380044D5
:100330000004000800100010000000100000000081
:1003400000380044004C0054005C0040004000387D
:100350000000000000100028002800280028007C71
:10036000004400440000000000780044004400788D
:1003700000440044004400780000000000380044BD
:1003800000400040004000400044003800000000F1
:1003900000700048004400440044004400480070DD
:1003A00000000000007C00400040007C0040004055
:1003B0000040007C00000000007C0040004000780D
:1003C00000400040004000400000000000380044B1
:1003D00000400040005C0044004400380000000081
:1003E000004400440044007C0044004400440044B5
:1003F0000000000000380010001000100010001075
:100400000010003800000000000400040004000494
:1004100000040004004400380000000000440048CC
:1004200000500060005000480048004400000000F8
:100430000040004000400040004000400040007C80
:10044000000000000044006C006C005400440044B4
:1004500000440044000000000044006400640054B4
:100460000054004C004C00440000000000380044E0
:1004700000440044004400440044003800000000F0
:1004800000780044004400440078004000400040F0
:1004900000000000003800440044004400440044D0
:1004A0000054003800040000007800440044004478
:1004B0000078004800480044000000000038004474
:1004C0000040003000080004004400380000000034
:1004D000007C001000100010001000100010001030
:1004E0000000000000440044004400440044004474
:1004F000004400380000000000440044004400288C
:1005000000280028001000100000000000440044F3
:10051000005400540054006C002800280000000023
:100520000044002800280010001000280028004483
:1005300000000000004400440028002800100010C3
:100540000010001000000000007C000400080010F3
:10055000001000200040007C000000000018001087
:100560000010001000100010001000100010001803
:1005700000200020001000100010001000080008EB
:1005800000000000003000100010001000100010EB
:100590000010001000100030001000280028004457
:1005A000000000000000000000000000000000004B
:1005B000000000000000000000000000000000FE3D
:1005C00000200010000000000000000000000000FB
:1005D000000000000000000000380044003C00441F
:1005E000004C00340000000000400040005800644F
:1005F00000440044006400580000000000000000B7
:100600000038004400400040004400380000000072
:10061000000400040034004C00440044004C00344A
:10062000000000000000000000380044007C004092
:100630000044003800000000000C0010007C001096
:10064000001000100010001000000000000000006A
:100650000034004C00440044004C00340004007896
:10066000004000400058006400440044004400443E
:1006700000000000001000000070001000100010CA
:1006800000100010000000000010000000700010BA
:100690000010001000100010001000E000400040AA
:1006A0000048005000600050004800440000000076
:1006B000007000100010001000100010001000105A
:1006C00000000000000000000078005400540054B6
:1006D00000540054000000000000000000580064B6
:1006E00000440044004400440000000000000000FA
:1006F000003800440044004400440038000000007A
:1007000000000000005800640044004400640058E9
:1007100000400040000000000034004C0044004451
:10072000004C003400040004000000000058006485
:1007300000400040004000400000000000000000B9
:100740000038004400300008004400380000000079
:100750000020002000780020002000200020001849
:100760000000000000000000004400440044004479
:10077000004C003400000000000000000044004471
:1007800000280028002800100000000000000000E1
:10079000005400540054006C0028002800000000A1
:1007A0000000000000440028001000100028004451
:1007B0000000000000000000004400440028002861
:1007C000001000100010006000000000007C000815
:1007D000001000200040007C000000000018001005
:1007E0000010001000200020001000100010001861
:1007F0000010001000100010001000100010001079
:100800000010001000300010001000100008000858
:100810000010001000100030000000000000007404
:10082000004C00000000000000000000000000007C
:1008300000000000000000000000000000000000B8
:1008400000000000000000000000000000000000A8
:100850000000000C000C000C000C000C000C000C44
:10086000000C000C000C000C0000000C000C000040
:10087000000000000000001B001B001B001B001BF1
:100880000000000000000000000000000000000068
:10089000000000000000000000008019801980198D
:1008A0008019C07FC07F80190033C07FC07F0033B4
:1008B0000033003300330000000000000000001E81
:1008C000003F807580650074003C001E00078005B5
:1008D000806580658075003F001E000400040000F4
:1008E0000000007000D840D8C0D880D9007300063E
:1008F000000C801BC036C066C046C00680030000E6
:10090000000000000000001E003F003300330033F1
:10091000001E000CC03CC066806380618063C03EE6
:10092000801C0000000000000000000C000C000C07
:10093000000C000C0000000000000000000000009F
:100940000000000000000000000000008000000126
:100950000003000600060004000C000C000C000C54
:10096000000C000C000400060006000300018000DB
:10097000002000100018000C000C00040006000607
:1009800000060006000600060004000C000C00181B
:10099000001000200000000C002D003F001E00335E
:1009A0000000000000000000000000000000000047
:1009B0000000000000000000000000000000000C2B
:1009C000000C000C000CC0FFC0FF000C000C000C61
:1009D000000C00000000000000000000000000000B
:1009E0000000000000000000000000000000000007
:1009F000000000000000000C000C000400040008CF
:100A000000000000000000000000000000000000E6
:100A10000000001E001E000000000000000000009A
:100A200000000000000000000000000000000000C6
:100A30000000000000000000000000000000000CAA
:100A4000000C000000000000000000030003000391
:100A50000006000600060006000C000C000C000C4E
:100A60000018001800180000000000000000001E20
:100A7000003F0033806180618061806D806D8061A6
:100A8000806180610033003F001E00000000000014
:100A900000000006000E001E0036002600060006BC
:100AA000000600060006000600060006000600001C
:100AB000000000000000001E003F80738061806124
:100AC000800100030006000C001800300060807FE9
:100AD000807F0000000000000000001C003E00635A
:100AE00000630003000E000E00038001800180619E
:100AF0008073003F001E00000000000000000006A0
:100B0000000E000E001E001E0016003600360066A5
:100B1000807F807F000600060006000000000000C5
:100B20000000007F007F006000600060006E007FBA
:100B300080638001800180618073003F001E00009F
:100B4000000000000000001E003F80338061006054
:100B5000006E007F80738061806180618033003F20
:100B6000001E0000000000000000807F807F8001E8
:100B70000003000300060006000C000C000C000837
:100B80000018001800180000000000000000001EFF
:100B9000003F8063806180610021001E003F806112
:100BA000806180618061003F001E00000000000045
:100BB0000000001E003F00738061806180618073CF
:100BC000803F801D800180610073003F001E000097
:100BD0000000000000000000000000000000000C09
:100BE000000C000000000000000000000000000CED
:100BF000000C0000000000000000000000000000E9
:100C000000000000000C000C0000000000000000CC
:100C10000000000C000C00040004000800000000AC
:100C20000000000080008003000E003800600038E3
:100C3000000E8003800000000000000000000000A3
:100C400000000000000000000000807F807F0000A6
:100C50000000807F807F0000000000000000000096
:100C600000000000000000000000000000400070D4
:100C7000001C000780010007001C007000400000FD
:100C800000000000000000000000001F803FC07155
:100C9000C060C000C00180030007000E000C000C03
:100CA0000000000C000C0000000000000000001E0E
:100CB000003F803180718063806F806D806D806FB8
:100CC000806700600032003E001C00000000000051
:100CD0000000000E000E001B001B001B001B8031DB
:100CE0008031803F803F8031C060C060C0600000C4
:100CF000000000000000007C007E006300630063D1
:100D00000063007E007E0063806180618063007FFD
:100D1000007E0000000000000000001E003F803147
:100D200080610060006000600060006000608061C1
:100D30008031003F001E0000000000000000007C29
:100D4000007F006380638061806180618061806179
:100D5000806100630063007E007C000000000000F2
:100D60000000807F807F0060006000600060007F86
:100D7000007F0060006000600060807F807F000076
:100D8000000000000000807F807F00600060006045
:100D90000060007F007F0060006000600060006015
:100DA00000600000000000000000001E003F8031D5
:100DB00080610060006000608063806380618061AA
:100DC0008031803F001E00000000000000008061B4
:100DD00080618061806180618061807F807F8061CF
:100DE000806180618061806180610000000000009E
:100DF0000000003F003F000C000C000C000C000C39
:100E0000000C000C000C000C000C003F003F000028
:100E1000000000000000800180018001800180014D
:100E20008001800180018001806180618073003FCA
:100E3000001E0000000000000000C0608061006330
:100E400000660066006C0078007C00660066006347
:100E500080618061C0600000000000000000006050
:100E60000060006000600060006000600060006082
:100E7000006000600060807F807F00000000000054
:100E80000000C071C071C07BC07AC06AC06AC06E09
:100E9000C064C060C060C060C060C060C06000006E
:100EA0000000000000008071807180798079807975
:100EB000806D806D806D80658067806780678063EE
:100EC00080630000000000000000001E003F0033AF
:100ED000806180618061806180618061806180610A
:100EE0000033003F001E0000000000000000007EF4
:100EF000007F80638061806180618063007F007E0D
:100F00000060006000600060006000000000000001
:100F10000000001E003F00338061806180618061BD
:100F200080618061806580670033803F401E0000E3
:100F3000000000000000007E007F8063806180610F
:100F40008063007F007E00660063006380618061D3
:100F5000C0600000000000000000000E001F803193
:100F6000803100300038001E0007800380618061FE
:100F70008031003F001E0000000000000000C0FFA4
:100F8000C0FF000C000C000C000C000C000C000C4E
:100F9000000C000C000C000C000C00000000000015
:100FA000000080618061806180618061806180611A
:100FB00080618061806180618073003F001E00005D
:100FC000000000000000C060C060C060803180315F
:100FD0008031001B001B001B001B000E000E000ECA
:100FE00000040000000000000000C0C0C0C0C0C07D
:100FF000C0C0C0C0C0CC804C804C805E805280524B
:101000008073806180610000000000000000C0C0AB
:10101000806080610033003B001E000C000C001E4D
:10102000001F003B80718061C0C000000000000014
:101030000000C0C08061806100330033001E001ECC
:10104000000C000C000C000C000C000C000C00004C
:10105000000000000000803F803F8001000300038B
:101060000006000C000C0018001800300060807FA3
:10107000807F000000000000000F000F000C000C3B
:10108000000C000C000C000C000C000C000C000C00
:10109000000C000C000C000C000F000F00000018EA
:1010A00000180018000C000C000C000C00060006D4
:1010B000000600060003000300030000000000001B
:1010C000001E001E000600060006000600060006C0
:1010D00000060006000600060006000600060006E0
:1010E000001E001E0000000C000C001E0012003349
:1010F00000338061806100000000000000000000FB
:1011000000000000000000000000000000000000DF
:1011100000000000000000000000000000000000CF
:101120000000000000000000E0FF000000000038A8
:101130000018000C0000000000000000000000008B
:10114000000000000000000000000000000000009F
:1011500000000000000000000000001F803F8061D0
:101160008001801F803F80618063807FC0380000E5
:101170000000000000000060006000600060006E81
:10118000007F807380618061806180618073007FF7
:10119000006E0000000000000000000000000000E1
:1011A0000000001E003F807380610060006080616D
:1011B0008073003F001E000000000000000080015E
:1011C000800180018001801D803F8073806180618B
:1011D000806180618073803F801D000000000000FE
:1011E00000000000000000000000001E003F00732F
:1011F0008061807F807F00608071003F001E000062
:10120000000000000000C007C00F000C000C807F31
:10121000807F000C000C000C000C000C000C000C7B
:10122000000C0000000000000000000000000000B2
:10123000801D803F807380618061806180618073E8
:10124000803F801D80018063007F003E00000060C1
:10125000006000600060006F807F8071806180614D
:101260008061806180618061806100000000000019
:1012700000000006000600000000003E003E0006E0
:101280000006000600060006000600060006000034
:10129000000000000006000600000000003E003EC6
:1012A000000600060006000600060006000600060E
:1012B00000060046007E003C000000600060006008
:1012C0000060806100630066006C007C0076006353
:1012D00000638061C0600000000000000000003E6C
:1012E000003E000600060006000600060006000696
:1012F00000060006000600060006000000000000D0
:101300000000000000000000000080DDC0FFC0CE33
:10131000C0CCC0CCC0CCC0CCC0CCC0CCC0CC0000F9
:101320000000000000000000000000000000006F4E
:10133000807F807180618061806180618061806177
:1013400080610000000000000000000000000000BC
:101350000000001E003F80738061806180618061B9
:101360008073003F001E000000000000000000002D
:1013700000000000006E007F8073806180618061EA
:1013800080618073007F006E00600060006000601C
:101390000000000000000000801D803F807380611D
:1013A0008061806180618073803F801D8001800149
:1013B00080018001000000000000000000000067C4
:1013C000803F003900300030003000300030003005
:1013D00000300000000000000000000000000000DD
:1013E0000000001E803F80610060007F803F800120
:1013F0008061007F001E000000000000000000006F
:10140000000800180018007F007F0018001800185E
:10141000001800180018801F800F00000000000056
:101420000000000000000000000080618061806119
:1014300080618061806180618063807F803D000089
:101440000000000000000000000000000000C0607C
:10145000803180318031001B001B001B000E000E0C
:101460000006000000000000000000000000000076
:10147000000080DD80DD80DD0055005500550077DF
:1014800000770022002200000000000000000000A1
:10149000000000000000806100330033001E000CDB
:1014A000000C001E003300338061000000000000CB
:1014B0000000000000000000806180618031003386
:1014C0000033001B001B001B000E000E000E001C52
:1014D000007C007000000000000000000000C07FE1
:1014E000C07F800100030006000C00180030C07FA0
:1014F000C07F0000000000000000000000000000AD
:10150000006380F780FF80FF80FF007F007F003E48
:10151000001C0008000000000000000000000000A7
:10152000000080C180FF80FF80F780F780C180F7D6
:1015300080F780FF007F001C000800000000000012
:10154000000000000008001C003E003E0000003EBD
:10155000003E003E003E003E003E001C003E0000FB
:101560000000000000000000001C003A0076008E21
:1015700000EE00EE00EE00EE00EE00EE00EE00ECFD
:1015800000E800F00000000003E00B780370491C45
:10159000401C13005A1E002BF7D17047130000D1D6
:1015A000704700B50A00190000F004FF00BDF8B54F
:1015B00005000F00EC6ABC422ED0287900281DD00F
:1015C0000123220029003031687800F035FF00281F
:1015D0001FD12871286AE969401884420ED2EE783A
:1015E00009E0E869241801232200290030316878D5
:1015F00000F022FF761EF6B2022EF2DA002F0BD098
:1016000001233A0029003031687800F00BFF0028F0
:1016100001D00120F2BDEF620020F2BD891E826977
:10162000921E914201D30020704782785143806A14
:1016300008187047F1B50C00022C02D3806984426F
:1016400001D30120F2BDB14E00980078012804D0EA
:101650005AD303283DD029D356E0600827180098B4
:10166000006A790A41180098FFF7A1FF00284BD1C2
:101670003000384000990818303005787F1C086A1F
:10168000790A41180098FFF792FF00283CD13E40AC
:101690000098801930300078000228430500E007E8
:1016A00001D52809F2BD2805000DF2BD0098006A99
:1016B000090A41180098FFF77AFF002824D160003A
:1016C00006400098811930314878000209780843B3
:1016D000F2BD0098006AC90941180098FFF767FF3A
:1016E000002811D1A0000640009881193031C87837
:1016F00000068A78120402434878000210430978F1
:10170000014308010009F2BD0020C043F2BDF0B55D
:1017100083B007000C0015000220022C74D3B969B5
:101720008C4271D2794E3978012904D06AD30329C9
:101730004ED03CD366E0600820180090386A0099CB
:10174000490A41183800FFF732FF00285AD10098A3
:1017500030403A183032E007C00F01900F240028C3
:1017600004D0117821402801084300E028001070BF
:101770000098401C009001203871386A0099490A8D
:1017800041183800FFF713FF00283BD100990E40A5
:10179000BA1930320199002901D02C0905E01178DD
:1017A000F0230B40290A0C401C4314702AE0386ACD
:1017B000210A41183800FFF7FAFE002822D1610003
:1017C0000E40BA19303215702904090E517019E013
:1017D000386AE10941183800FFF7E9FE002811D105
:1017E000A1000E40BA193032D1780906090F090755
:1017F00029430D0011700904090E5170290C9170D4
:10180000290ED17001213971FEBDF8B507000E0017
:10181000022E0BD3B869864208D200253100380069
:10182000FFF708FF04001DD0012C01D1022519E0AB
:101830000020C043844201D1012513E00022310081
:101840003800FFF764FF05000CD138690021C94357
:10185000884203D0401C3861012078712600B869A5
:101860008642DBD32800F2BDF8B505000F0007D192
:10187000EE68002E02D0A86986420BD3012609E04B
:10188000FFF7D8FE022801D20120F2BDA9698842E3
:101890003AD33E003400641CA869844202D3022477
:1018A000022E28D321002800FFF7C4FE00281AD1F9
:1018B000174A21002800FFF72AFF002806D1002F31
:1018C00006D0220039002800FFF721FF002814D19C
:1018D000EC6028690021C943884214D0401E286169
:1018E000012068710FE00021C94388420CD0012813
:1018F0000AD0B442CFD10020F2BD012802D1002489
:10190000E44300E001242000F2BD0000FF010000DC
:10191000FFFFFF0F70B504000D00E580A1680129ED
:1019200029D020688269914225D2002903D101780B
:10193000032902D1416A002906D10021E160018911
:101940008D4218D2406A1BE08078060100E0AD1B92
:101950002068ADB2B54210D3FFF76CFE0100002045
:10196000C043814201D1012070BD022903D3206808
:1019700080698142EBD3022070BDE160FFF74EFE2B
:101980002909401820612807C00D21680818303047
:101990006061002070BDF8B504000D00E7887F1C71
:1019A000BFB2002F22D0206900281FD0390760D194
:1019B000401C2061E1682068002903D1008987422A
:1019C00057DB13E03A0983785B1E134051D1FFF7D0
:1019D00031FE0600022E14D30020C04386423DD0C3
:1019E000206881698E423ED3002D01D10420F2BDD2
:1019F000E168FFF739FF060001D10720F2BD012E93
:101A000001D10220F2BD0020C043864226D0002131
:101A10002068FFF7CCFD002820D180229200002111
:101A200020683030FFF7BAFD31002068FFF7F6FD7F
:101A30002168C862002504E02068C16A491CC162AF
:101A40006D1C20688178EDB28D4209D201210171AF
:101A500000212068FFF7ABFD0028EDD00120F2BD8A
:101A6000C16A491BC162E66031002068FFF7D6FDFC
:101A70002061E7803807C00D2168081830306061A8
:101A80000020F2BD70B505000021FFF743FF040000
:101A900011D129692868FFF78AFD04000BD1686914
:101AA0000078E52809D0002807D001212800FFF799
:101AB00072FF0400EDD0002C13D129692868FFF7CC
:101AC00076FD04000DD16E69202200213000FFF761
:101AD00065FD0B22A9693000FFF756FD286801213A
:101AE0000171200070BD0000F2B584B080690090E3
:101AF0000B222021FFF752FD0023002000210822A5
:101B0000049C2468029404E0082A67D108200B2270
:101B10003300029C645C491C9E00F6B2029D6D1865
:101B20000327212C03DB2F2C01D05C2C05D1049939
:101B30000D60212C4FDA04244EE02E2CE4D090428C
:101B40004CD2802C03DB1E0003233343DBB2009E08
:101B500036182700813F1F2F03D32700E03F1D2F9A
:101B600012D22D78491C2F00403F3F2F03D32F0066
:101B7000803F7D2F32D2571EB8422FD23470401C86
:101B8000009C2554401CC4E7039400BF22A501E03B
:101B9000019D6D1C0195019D2D78002D02D0039FA4
:101BA000BD42F5D1019D2D78002D17D12500413D75
:101BB0001A2D04D21D0002232B43DBB209E02500BD
:101BC000613D1A2D05D21D0001232B43DBB2203CC1
:101BD000E4B23470D6E70024002801D1062019E0D1
:101BE00000980078E52802D1009805210170082AA4
:101BF00000D133001F40012F02D1200010240443E4
:101C00000C201840042802D1200008240443009826
:101C1000C472002005B0F0BD222A2B2C3A3B3C3D7B
:101C20003E3F5B5D7C7F0000F2B5040008782F2802
:101C300001D05C2801D1481C00900020A0600098D1
:101C40000078202811D200212000FFF763FE002138
:101C50006161F2BD417D0902027D11430904C27E2A
:101C60001202807E02431143A16069462000FFF703
:101C70003BFF00283CD100212000FFF74BFE04254C
:101C8000002824D121692068FFF791FC00281ED18B
:101C900061690A78002A01D1042018E0CA7A120783
:101CA0000FD40B23A26900261F007B1E002F06D035
:101CB0000E781778F61B521C491C002EF4D0002E0B
:101CC00005D000212000FFF766FE0028DAD0A169C8
:101CD000C97A0D40002804D0042809D1002D07D16D
:101CE00005E0002D04D16069C17AC906B2D405208F
:101CF000F2BD10B5040001230A00210030316078E4
:101D000000F090FB002801D0032010BDC748201828
:101D100041780902007801430E48814201D0022037
:101D200010BD6634C248A1780904627812020A43E1
:101D300021781143814208D0A17F0904627F1202F9
:101D40000A43217F1143814201D1002010BD0120AF
:101D500010BD000055AA0000FEB5150002681378FA
:101D6000303B0A2B08D254783A2C05D1921C0260E1
:101D7000002B01D00B20FEBDAE4844680C60002C47
:101D800001D10C20FEBD0426207800280AD06078FE
:101D900000F044FBC10705D4002D01D030420ED124
:101DA0000020FEBD00202070607000F033FBC107F2
:101DB00001D50320FEBD002D03D0304201D00A2002
:101DC000FEBD0020009000212000FFF792FF0500DB
:101DD000012D15D1F72040002018017900290FD0DE
:101DE000C17A0906827A12040A43417A0902114330
:101DF000007A0843009000992000FFF77AFF050061
:101E0000032D01D10120FEBD002D24D13C20205CFA
:101E100000023B21615C0843F10188421BD147204D
:101E2000205C06024620205C06430DD15720205C32
:101E300000065621615C090401435520205C000224
:101E400008435421665C0643E6614020205CE07054
:101E5000012801D0022877D146433D20205C0100B3
:101E6000A07071D0411E01406ED14220205C07025B
:101E70004120205C07432781380765D14420205C3E
:101E800000024321615C08430DD15320205C000611
:101E90005221615C090401435120205C02020A4383
:101EA0005020205C10433F21615C09023E22A25C6D
:101EB0001143029148D089193A0989180191884241
:101EC00042D3401AA17800F0D9FA00283CD001256D
:101ED0006B49884200D302256A49884200D3032512
:101EE000801CA061009801994018A0620098029996
:101EF00041182162032D12D1002F25D15F21615C91
:101F000009065E22A25C12040A435D21615C0B0299
:101F100013435C21615C1943A26992000DE0002F1C
:101F200012D08919A269022D01D1520005E0530097
:101F30009B185B08D607F60F9A196162E169524B4C
:101F4000D218520A914201D20D20FEBD0021C94390
:101F500021610021E160032D5DD161710098612153
:101F6000615C09026022A25C114342186261012394
:101F700021003031607800F055FA00284BD14348F9
:101F8000205C00022949615C08434149884242D1F2
:101F90003320205C00063221615C090401433120BA
:101FA000205C000208433021615C014339488142D2
:101FB00031D13948205C00063849615C090401438D
:101FC0003748205C0002084385218900615C014399
:101FD000344881421FD13448205C00063349615C9B
:101FE000090401433248205C00020843872189002C
:101FF000615C0143E1602F48205C00062E49615C72
:10200000090401432D48205C000208438621890011
:10201000615C01432161257006480088401C054928
:102020000880E0800020E0622071FEBD2E020000EA
:1020300046415400300D002080B5002805D00278BC
:10204000002A02D0C2888A4201D0092002BD40780D
:1020500000F0E4F9C00701D5032002BD002002BD55
:10206000002801D00B207047154842680023002A41
:1020700000D01370002900D00B7041600020704721
:10208000F60F0000F6FF0000FF0100002F02000025
:1020900055AA0000525261411702000016020000CA
:1020A00015020000727241611F0200001E02000052
:1020B0001D0200001B0200001A02000019020000AD
:1020C000300D0020F3B58BB000210160D006C00EAA
:1020D0006946087068460078FE22024001A90CA8F3
:1020E000FFF73AFE060008A8079004D10C9901A852
:1020F000FFF79AFD0600069D002E02D1002D00D1AB
:1021000006260420694609781C22114200D190E07D
:10211000002E4BD0042E03D101A8FFF7B3FC06001C
:10212000684600780821014368460170069D002E2C
:1021300046D0002E37D168460078000705D568469E
:10214000007820210143684601700B980199C96A03
:10215000C1610B9805620B98694609788171687DA9
:102160000002297D08430004E97E0902AA7E11438A
:1021700008430B990861E87F0006A97F0904014321
:10218000687F00020843297F01430B98C1600B98C8
:10219000002181600B9881610B98019901600B9877
:1021A0000199C988818030000DB0F0BD6946097879
:1021B000014201D00826F6E7E87A1121084246D10B
:1021C000684600780007C0D500F040F90700A87302
:1021D0000004000EE873380C2874380E6874002070
:1021E000E87228776877A877E877687D0002297D0C
:1021F00008430404E87E0002A97E0843044300204B
:10220000A876E87628756875019801210171002C7F
:1022100091D00198C76A2100FFF7F7FA060088D12C
:102220000198641EC46039000198FFF7C0F90600E8
:102230007FE7002EFCD1E97ACA0601D50426B2E771
:1022400068460078800700D5C80700D473E70726E2
:10225000A9E7F8B584B004001600009104980021A5
:102260000160A1882068FFF7E7FE002805D1A0796A
:1022700001064DD4C00701D4072099E0E068A168A9
:10228000401AB0421ED806001CE0A561A068C00537
:10229000C00D80218900091A35008E4200D90D0039
:1022A0002A00211824310098FFF76EF90098401990
:1022B0000090A0684019A060049800684019049933
:1022C0000860761B002E72D0A168C805DED1206898
:1022D0004A0A83785B1E1340DBB2002B01930DD1B9
:1022E000002901D1206902E06169FFF7A3F9022802
:1022F0000AD30021C943884253D0606161692068D4
:10230000FFF78CF9050005D1A07980210143A17167
:1023100002204DE001982D18770A23D02068029002
:1023200080780199C919884201D20199471AFBB2F4
:102330002A0000990298407800F074F8002830D103
:10234000A07940060CD5A069401BB84208D2802273
:102350009200210024314002009B1818FFF714F965
:102360007D02A3E7A07940060DD50123A2692100D3
:1023700024312068407800F05FF8002811D1A0795E
:10238000BF210140A171A069A84208D001232A0001
:10239000210024312068407800F044F8002800D162
:1023A00073E7A07980210143A171012000E00020A2
:1023B00005B0F0BD1206130A1A43130C1A4300BFEE
:1023C000094205D083070BD00270401C491EF9D189
:1023D000704700001206130A1A43130C1A4300BF79
:1023E000130030B414001500103902D310393CC06A
:1023F000FCD2490700D30CC000D504C0890002D329
:102400000280801C002900D5027030BC704700009B
:102410000022E5E780B500F05DF802BD002800D09D
:102420000120704780B50800110080229200490207
:1024300000F060F8002002BD80B508001100802285
:102440009200490200F07EF8002002BD004870476B
:10245000C0B34934CA0F00D0494203105A400DD0CE
:1024600004B500D3404200F009F8009AD20701D326
:102470004942124200D5404204BD0000094210D03A
:1024800088420BD30122002300185B418B4200D30A
:102490005B1A5241F8D31900100070470100002068
:1024A000704708B500F028F908BD38B401210022B2
:1024B0000368001D002B0BD00468001D0C4202D0E5
:1024C0004D466D1E64192260241D1B1FF0D0FAE7D3
:1024D00032BC704710B500F011F92021344800F0EB
:1024E000B0F90A24FF2000F0D3F8641EFAD100F0FE
:1024F0009FF810BDF7B505000024FF262D4F2021C1
:10250000380000F0A0F9FF220199112000F054F8E2
:10251000002000F07CF8002813D1FE2000F077F8AE
:1025200000280ED104E000F0CAF828706D1C641C6D
:10253000684600898442F6D300F0C1F800F0BFF885
:1025400000262BE0F7B505000024FF26184F2021B8
:10255000380000F078F9FF220199182000F02CF8DB
:10256000002000F054F8002818D1FF2000F090F867
:10257000FE2000F08DF804E0287800F089F86D1C4A
:10258000641C684600898442F6D300F098F800F095
:1025900096F800F027F8052800D100262021380001
:1025A00000F04FF9FF2000F073F83000FEBD00008E
:1025B000001400480014004830B583B000246D4674
:1025C000402303432B70080E6870080CA870080A9B
:1025D000E87029716A71285D00F05AF8641C062CB5
:1025E000F9D337BD38B5412400F069F8C506ED0EC2
:1025F0002800052D05D00B2D08D00D2D06D0641E0A
:10260000F2D100F05CF80028FBD0280032BD38B5CC
:102610000400374D02E0002D06D06D1E00F04FF88B
:10262000A042F8D1002D01D1FF2032BD002032BDE3
:1026300010B52E4C2021200000F005F99522002134
:102640000020FFF7B9FF0120FFF7E1FF002801D0CC
:10265000FF2010BD2021200000F0F3F8FF2000F043
:1026600017F82021200000F0EEF8FF2200210120C1
:10267000FFF7A2FF0020FFF7CAFF0028EAD12021C0
:10268000200000F0DEF8FF2000F002F8002010BD6E
:1026900038B50400174D0221280000F02DF900285C
:1026A000F9D02100280000F012F90121280000F0E3
:1026B00023F90028F9D0280000F00BF932BD10B53D
:1026C0000C4C0221200000F017F90028F9D0FF215E
:1026D000200000F0FCF80121200000F00DF9002896
:1026E000F9D0200000F0F5F810BD000000140048FB
:1026F000FF0F0000003001407047FEE7F0B587B0E3
:1027000001218420C00300F0E5F90121080300F055
:10271000EBF9202000906D4602202871032068719B
:102720000026AE710127EF719024E4056946200070
:1027300000F04AF8402000906946200000F044F87C
:10274000802000906946200000F03EF82020009094
:102750002F71AE71EF71032068716946194800F05E
:1027600033F800220521200000F06FF80022062136
:10277000200000F06AF800220721200000F065F830
:1027800002A80680822149004180E021C9008180A1
:102790000221C180078109024181C66007210182AF
:1027A000074C02A9200000F061F8A10C200000F005
:1027B0008BF80121200000F07DF807B0F0BD00008B
:1027C0000030014000140048F0B5002301229A4077
:1027D0000C681440944228D15C000326A640F543BF
:1027E0000E79012E01D0022E0FD186682E40866010
:1027F00086684F79A74037438760868896438680EE
:1028000082888E799E401643868002682A40026044
:1028100002680E79A64016430660C2681540C5607E
:10282000C268CD79A5401543C5605B1C102BCDD384
:10283000F0BD02000020128AFFE70A4200D001200A
:102840007047816170470185704710B5CB089B00C8
:10285000C0184907C90E036A0F248C40A3430362C2
:10286000036A8A401A43026210BDFEE70288C12350
:102870009B0113400A881A43CB891343CA881A4321
:102880000B8913434A891A438B8913430380828837
:10289000114B13408A881A4382800A8A0282028876
:1028A0000E4B1340498819430180818B0C4A0A4022
:1028B000828370470029018802D040220A4301E048
:1028C000084A0A40028070478288074B0EE0017375
:1028D0007047007B70470000FFF00000FBFF000026
:1028E000FFF70000BFFF0000FFEF000013408380F0
:1028F00082881143818070470200002012890A42B9
:1029000000D001207047FEE710430860704713496C
:102910000028086800D000E003E0012202430A60BA
:102920007047012290430860704769490028086891
:1029300000D0F2E7F5E75F490A687A4B13400B6075
:102940000A6883B213430B60CA6A7C4B1340CB62A4
:10295000CA6A000C1043C86270470000341002407D
:10296000F0B504000020534D2968804E0C220A4027
:10297000082A02D00C2A17D018E02868296880029B
:10298000070FBF1CC0204002084003D13800710867
:10299000484307E0A96A30000907090F491CFFF7FF
:1029A0006DFD7843010002E0714900E031002160D3
:1029B0002B68704922681B061B0FCB5CDA406260F3
:1029C0002B685B055B0FC95CCA40A260E96AC90558
:1029D00001D4694905E02968490401D4510800E09F
:1029E0009108E16080210902EA6A520601D4634A33
:1029F00000E00A002261EA6AD20601D4320000E057
:102A0000226862610322EB6A134001D1A26804E0EC
:102A1000EB6A1340012B02D12268A2610AE0EB6A43
:102A20001340022B01D1A16104E0EB6A1A40032A92
:102A300000D1A661C0229202EB6A134001D1A268C4
:102A400005E0EB6A13404F00BB4202D12268E2610D
:102A50000BE0EB6A13408F00BB4201D1E16104E05F
:102A6000EB6A1340934200D1E661C0221203EB6A85
:102A7000134001D1A1680BE0EB6A1340CF00BB42C9
:102A800001D1216804E0EB6A13400F01BB4201D180
:102A9000216204E0E96A1140914200D12662E96AAC
:102AA000090600D432486062F0BD000034490A686B
:102AB0002AE700000410024031490028086803D0CA
:102AC00080221202024301E02E4A02400A6070474F
:102AD000241002402C4A0029116802D008431060DB
:102AE0007047814311607047284A0029116802D05D
:102AF000084310607047814311607047244A0029E1
:102B0000116802D00843106070478143116070471C
:102B1000204A0029116802D00843106070478143A1
:102B200011607047FFBFFFFF1B4A0029116802D0E8
:102B3000084310607047814311607047FFFEFFFF3C
:102B40004109164A002901D1116808E0012901D183
:102B5000116A04E0022901D1516A00E0516BC006FC
:102B6000C00EC140C807C00F7047000000127A00B5
:102B7000006CDC02B4080020809FD50012800000A9
:102B800020100240FF7FFFFF141002401810024087
:102B90001C1002400C1002401010024000100240B5
:102BA00030B585B0050001210804FFF79DFF01A89D
:102BB00000F0E8FA01AC6B482900FFF75FFC2080C9
:102BC00000206080684902912081684C01A92000A2
:102BD00000F0ACFA68461421017003214170012114
:102BE000817000F099FC01220121200000F00DFC11
:102BF0000121200000F027FC0021200000F0DAFA7B
:102C000005B030BD80B50021594841718181012254
:102C10008271642303718160062303700A23437069
:102C2000C170C17103218170B9491E23CB808B8192
:102C300004230B814B8109230B7196239B00CB81CD
:102C40008A740A8200F001F801BD00220A6002784D
:102C50009200C37813431A010B7913431A020A60D6
:102C600040781043800208607047000010B5A84CFF
:102C7000A08900281AD02021A648FFF7DAFD0128F4
:102C800014D13B488078032810D1207E01280DD133
:102C9000206800F0E6FCA089401EA081002020767C
:102CA0000121324800F086FA32A000E0B64800F078
:102CB000CBFF10BD38B5B448954C618900290CD0C4
:102CC0002B4DA978032908D100F0BEFF208A0621E8
:102CD0004843E8740520A87031BD00F0B5FF31BD50
:102CE00023488178052900D0704780B5C17C002930
:102CF00002D0491EC17401BD0321817084484189FD
:102D0000491E4181C18881819F4800F09DFF01BD1E
:102D100010B57F4CA08900281CD001219020C0054F
:102D2000FFF787FD012815D1A07C002807D00128D6
:102D300010D110217748FFF77CFD01280AD12068C7
:102D400000F08FFCA089401EA08100BF09A000F008
:102D50007BFF10BD0021854800F02CFA0120207671
:102D600010BD000060EA000080BB00000040014090
:102D70001C0D00202F53484F542E57415600000081
:102D8000F8B504000D000021AC4B1982002699749F
:102D9000E81F2200C2402000E8405ED16846027071
:102DA000280009382200C2409207920F28000D38EF
:102DB0002700C7403807000F152D02DB153DEC40FA
:102DC0002600DC78A2420AD16D462D781F78BD42DC
:102DD00005D1F6B2002E3CD05D78AE4239D09D7957
:102DE000002D01D1A24234D001220F282AD801A4FB
:102DF000245CA7440E12161A1E22262A2E32363AB8
:102E00003E42464A01201EE002201CE004201AE057
:102E1000052018E0072016E00A2014E00F2012E039
:102E2000112010E014200EE019200CE01E200AE012
:102E3000232008E0282006E0322004E04B2002E0B6
:102E4000642000E000201C79251A012D02DA197196
:102E50009A70F1BD201A1871F1BD00BF81A728003A
:102E600017382100C140C9B2E8291FD129000F3904
:102E70002000C840D2B2803A09D0521E0BD0921E18
:102E80000DD0521F0FD0921E022A0CD90EE0C0B2F4
:102E900000F06EF80AE0C0B200F05BF806E0C0B2E5
:102EA00000F03AF802E0380000F0CEFE04210020E5
:102EB00001F0CBF8624E0122310000BF6CA001F09E
:102EC0006FF90421042001F0C0F801233200002131
:102ED000280001F005F9012231005AA001F060F943
:102EE000012332000021A0B201F0FAF810210420E1
:102EF00001F0ABF801F0C7F901233200002180B2E4
:102F000001F0EEF801F025F8380000F09DFEF1BD6B
:102F1000840800200004004880B5002802D005285D
:102F200003D001BD00F004F801BD00F009F801BDB7
:102F300080B5424800210171817000F027F801BD81
:102F400080B53E4803218170FFF75CFE00F01EF85B
:102F500001BD80B53C490A894B891B189A4200DAA9
:102F60001000488100F012F801BD0000004001404F
:102F700080B532490A791218652A00DB642008718D
:102F800000F004F801BD00006430000870B50020B6
:102F900001F032F82D4D2900012001F09CFA0421A6
:102FA0006A2001F052F8264C012322000321A87860
:102FB00001F096F80F21712001F047F81F4D012311
:102FC00022000221A87801F08BF819210E2001F0CF
:102FD0003CF81F4C012221001EA001F0E1F8012362
:102FE00022000321287901F07BF8012221001AA098
:102FF00001F0D6F8144E012322000321B08901F01C
:103000006FF82D210E2001F020F80122210013A0DD
:1030100001F0C6F8012322000321687901F060F86D
:10302000012221000EA001F0BBF8012322000321A0
:10303000708901F055F800F08CFF70BD1C0D002068
:10304000D00800202000000084080020580D002037
:10305000D80800207B000000207D00007C000000DC
:10306000207E00002F434C49434B2E574156000011
:1030700020202020202020202020202000000000D0
:1030800010B55249884201D1CC0C46E08021C905D7
:10309000884206D101210120FFF746FD00210120D1
:1030A00027E06D49884206D101210220FFF73CFD4F
:1030B000002102201DE06949884206D1012110202B
:1030C000FFF732FD0021102013E06549884206D148
:1030D00001212020FFF728FD0021202009E061497F
:1030E000884209D18C0D01212000FFF71DFD002130
:1030F0002000FFF719FD10BD5B49884202D18024F2
:1031000064020AE05949884202D18024A40204E002
:103110005949884209D18024E40201212000FFF7A7
:10312000F7FC00212000FFF7F3FC10BD10B5038869
:10313000264A904206D08024E405A04202D0464CA4
:10314000A04203D14A4C1C404B882343434CA0422D
:1031500003D0484C1C400B89234303804B68C36257
:103160000B880385904208D03F4A904205D03F4AE1
:10317000904202D0404A904201D1897A01860121D1
:10318000818210BD0021C94341600021018001817D
:10319000418081727047018582827047C1627047A9
:1031A0000029018802D004220A4301E03C4A0A4077
:1031B000028070470029018802D001220A4301E001
:1031C000324A0A400280704700000000002C014093
:1031D000002907D04421415A802212020A43443078
:1031E000028070474421415A4904490C443001800F
:1031F000704770B5028C254B13400384048C828881
:10320000038B284D1D400B882B43244D25408E8970
:103210002E434C883443244DA84208D0124DA84276
:1032200005D0124DA84202D0134DA8420DD11F4D1A
:103230002540CC892C431A4D25408C882C430D4DBC
:1032400015400E8A2E434A8A32438280038389685E
:103250004163048470BD0000000400400010004081
:1032600000140040002000400040014000440140A4
:103270008FFF0000FFFC000000480140028B554B0F
:10328000134007E0028B0A4B134003E0FEFF0000EF
:10329000134009021943018370470000FDFF00003D
:1032A000FBFF00008CFF0000002C0140F7FF000036
:1032B000F7FF0000F8B504000D006988AA882B8983
:1032C0002888002807D1200000F0DCF8E9882000D9
:1032D00000F079F8F1BD042807D1200000F0ECF8E7
:1032E000E988200000F078F8F1BD0828208C17D17B
:1032F0006F4E06402684A68B208C7A4F37403A4387
:103300001B011343A3836B4A024008021043802130
:10331000490001432184E988200000F066F8F1BDEE
:10332000714E06402684A78B208C704E3E401202C0
:1033300032431B031343A3836D4A02400803104327
:103340008021490101432184E988200000F054F8DC
:10335000F1BD0000F8B505000C00002701266188CA
:10336000002900D10227A288012A00D10226238940
:103370002088002811D1280000F084F8E188280076
:1033800000F021F8238932003900280000F094F879
:10339000E188280000F020F8F1BD280000F08CF84A
:1033A000E188280000F018F823893200390028004D
:1033B00000F068F8E188280000F005F8F1BD406BE6
:1033C0007047806B7047028B4A4B13400383028B1C
:1033D00008E000008FFF0000028B474B134003837F
:1033E000028B0902114301837047828B414B1340CA
:1033F0008383828B06E00000828B3F4B13408383E4
:10340000828B0902114381837047002A828902D08E
:103410001143818170478A438281704702000020F6
:10342000128A0A4200D001207047CA4302827047C4
:1034300002000020138A92890A400B4202D0002A1F
:1034400000D001207047CA430282704702892C4B8A
:1034500013401943018170478288294B13408380B0
:1034600082881143818070470289244B1340038175
:1034700002891143018170470289224BF6E75030DF
:103480000180704770B5048C1F4D25400584058B65
:10349000048C144E2E4032431B01134303831B4AFA
:1034A0002240114301220A43028470BD0000000043
:1034B000FFFE0000FFF5000070B5048C144D2540A0
:1034C0000584058B048C094E2E401B0333431202E6
:1034D0001A4302830F4A22400901114310220A4372
:1034E000028470BD0CFF0000FFEF0000FF0C000025
:1034F000FF5F0000F3FF0000FFF30000F8FF000093
:103500008FFF00007FFF0000FEFF0000F5FF0000BE
:10351000EFFF00005FFF0000F0B5010008781F22F8
:1035200001238C78002C16D004000325AC430C4DED
:103530002C1925688007C60EFF27FF20B040854361
:10354000487880010740B7402F4327600878024041
:103550009340044802E00240934003480360F0BDFA
:1035600000E400E000E100E080E100E0F0B58BB0B5
:1035700001214804FFF7B8FA01218804FFF7B4FAE3
:1035800080208000019001A8022101710321417176
:103590000024C480C84D01A92800FFF715F90022B6
:1035A00009212800FFF751F9C44F3800FFF768FDE3
:1035B000C348049003AE3460348103A93800FFF798
:1035C000B5FD012200213800FFF7E5FD06AD6020C2
:1035D000288001206880FF20AE300890AC812C82CA
:1035E00006A93800FFF705FE08213800FFF74AFE5C
:1035F00001213800FFF7DEFD01213800FFF7E8FD6B
:10360000B04F3800FFF73CFD3460D7480490348158
:10361000B47203A93800FFF789FD2C80012068806F
:103620000420A880D0480890EC602C6106A93800DE
:10363000FFF7DFFD6846152101704470012181709C
:10364000FFF76AFF01213800FFF7C2FD00220121C8
:103650003800FFF7DAFE00213800FFF7ABFD0BB0B2
:10366000F0BD10B500210022012354000200CA4021
:103670001A402243491C2029F7D3C5488260437071
:103680008E4C08212000FFF7FDFD01212000FFF7EF
:1036900091FD01212000FFF79BFD8A4C01212000B4
:1036A000FFF796FD012201212000FFF7AEFE012168
:1036B0002000FFF77FFD10BDF8B50026814C0127E3
:1036C000B34D687800281DD02878E978884219D34E
:1036D000AE70287900280DD140212000FFF7CEFDE3
:1036E000E878A968C140394000D002272F71401CFA
:1036F000E870F1BD50212000FFF7C0FD2879401E81
:103700002871F1BD40212000FFF7B8FDEE700420C4
:103710002871AE60AF706E70002201212000FFF7AB
:1037200074FE00212000FFF745FD644C00212000BD
:10373000FFF7A8FD00212000FFF73CFDF1BDF0B52B
:1037400091B001210120FFF7D9F901218804FFF789
:10375000C1F908200190022701A807710124847192
:10376000C47103214171544D01A92800FFF72CF8C1
:10377000022203212800FFF768F80F26684606702A
:1037800044708470FFF7C8FEA50701222F2128008E
:10379000FFF701FD03A804210180478084800021F8
:1037A000C180068103A92800FFF7D4FD06A8FFF712
:1037B000D7F878480268089830215205520F042A39
:1037C00000D34000FEF75AFE734CFA26B6003100D3
:1037D000FEF754FE206260212800FFF737FE042127
:1037E0002800FFF741FE80212800FFF745FE012158
:1037F0002800FFF7D5FC206AB10048433100FEF7EE
:103800003DFEA083A08BE862012201212800FFF782
:10381000FCFD01212800FFF708FE012204212800F9
:10382000FFF7F3FD04212800FFF70DFE012128001A
:10383000FFF7C0FC256A8720000168433100FEF7CE
:103840001DFEA082A520000168433100FEF716FE90
:10385000E082524868433100FEF710FE2083504852
:1038600068433100FEF70AFE6083AF20C000684362
:103870003100FEF703FEA081C820400068433100FC
:10388000FEF7FCFD60819620800068433100FEF762
:10389000F5FDE081C82068433100FEF7EFFD20828E
:1038A0009620C000454328003100FEF7E7FD608206
:1038B00000F05CF811B0F0BD000400480048014081
:1038C000590300000044014038B5334A54780123BD
:1038D000012C2AD15489A0421FD3948984421CD33D
:1038E000108A548A251AA94204D325188D4201D37F
:1038F000002008E0D5896419251AA9420DD32018A3
:1039000088420AD3012011781F2906DA5368184328
:1039100040005060491C117031BD1372117850681D
:10392000FFF72EFA00F022F831BD022C0CD1948A58
:10393000A04209D3D48A844206D3108B814203D398
:10394000508B884200D3537031BD13484178012910
:1039500000D0704780B5017201784068FFF710FA17
:1039600000F004F801BD00007F70000010B50020D9
:103970000949087002224A7048605407012120005A
:10398000FFF753FD04212000FFF75DFD10BD00008F
:10399000C408002004100240E00C00208C0A000043
:1039A000E40C0000F0B593B001210120FFF792F87C
:1039B00001213048FFF7A2F810200190032701A849
:1039C00047710025C571077101A99020C005FEF758
:1039D000FBFE6C461120207067700120A0706846C5
:1039E000FFF79AFDA548FFF74BFB234E300000F090
:1039F00071FE2248039093480490102005904001E6
:103A0000069007958020089009950A950B958001EE
:103A10000C900D9503A9300000F0ABFE01220221AD
:103A2000300000F0CBFE0A20207067700120A070EB
:103A30006846FFF771FD0121300000F0B5FE00F08F
:103A4000EDFE0EA800F007FF04200E9011950EA9C0
:103A5000002000F0EFFE0121002000F002FF012114
:103A6000002000F00AFF20218448FFF7F5FC13B086
:103A7000F0BD000010000020300002401074004033
:103A800070B5050000267E4CB34821180020FEF7D3
:103A9000E7FA0122290020002C30FEF713FB9520C5
:103AA00080002518001F2318802292002900200082
:103AB0002C30FEF7CEFB012304220021280000F069
:103AC0006BF9A649884201D0012070BD0023042271
:103AD0000421280000F060F960600123042208211D
:103AE000280000F059F99E49884201D0022070BD9B
:103AF000012304220C21280000F04EF99949884244
:103B000001D0032070BD002304221021280000F002
:103B100043F9102800D00126002302221421280096
:103B200000F03AF920812089012801D0042070BDDD
:103B3000002302221621280000F02EF960816089FE
:103B4000012801D0052070BD00230422182128007F
:103B500000F022F9E060FA214901884209D0824947
:103B6000884222D04900884221D04900884221D091
:103B700023E07E48A083002304221C21280000F0BB
:103B80000BF92061002302222021280000F004F913
:103B9000A082002302222221280000F0FDF8E0820A
:103BA000E08A08280BD0072070BD7148E2E7882022
:103BB0000001DFE78820C000DCE7062070BD24207C
:103BC0006062002E1ED0002302222421280000F073
:103BD000E3F8002801D0092070BD0123042226212A
:103BE000280000F0D9F86349884201D00A2070BD4E
:103BF000002304222A21280000F0CEF8616A0A304E
:103C00000818606201230422616AC9B2280000F02A
:103C1000C3F8616A091D61625749884201D00820D2
:103C200070BD00230422616AC9B2280000F0B4F814
:103C3000A061606A001D6062606A504908600020EF
:103C400070BD00005402002038B50D4C2100283111
:103C5000FFF716FF2070207800280CD1A0692062A1
:103C6000474DA18B2800FFF799FA01212800FFF7A3
:103C7000A1FA002032BD012032BD0000001000403A
:103C800000000020F0B583B03E4D6F0D314C206A2E
:103C9000002813D12F60E86200213948FFF78AFA23
:103CA000E86A02218843E8620020206260702A48A6
:103CB00021180020FEF7D4F9FFF768F9952080005D
:103CC000201801909420800023182F48201800907D
:103CD00002262E482E496278002A1AD1EA622F6302
:103CE00069630099A963E8622F603A000199200096
:103CF0002C30FEF7AEFA206A002803D0206A25494E
:103D000040182062206AB84201D2002020620120BF
:103D10001AE00022EA622F6369630199A963E862ED
:103D20002F603A00009920002C30FEF792FA206AAA
:103D3000002803D0206A174940182062206AB84240
:103D400001D2002020620020E96A0E43EE6260701A
:103D5000F7BD00000000002054060000464649520E
:103D60004556415720746D66112B000070170000F6
:103D7000011100007463616661746164500D00207C
:103D80000010004004000240540400009120000094
:103D90001074004000FEFFFFF0B504000020002575
:103DA00006E04E19A65DEF00BE40064330006D1CD4
:103DB0009542F6D3012B00D100BAF0BD38B505000D
:103DC00072B6C44CE10B200000F0C4FD0128F9D00C
:103DD000600C0090030302227821200000F0A0FD77
:103DE0000221200000F0B6FD0028F9D000212000BB
:103DF00000F0AEFD0121200000F0ACFD0028F9D05C
:103E00002900200000F0A4FD2021200000F0A2FDE8
:103E10000028F9D02021200000F0A3FD62B631BDBA
:103E200070B58AB001218804FEF754FE012188058F
:103E3000FEF764FEA84C01220A212000FEF705FDD2
:103E400001220B212000FEF700FDC02000010090A0
:103E5000684603214171022101710126C6718671F4
:103E600069462000FEF7B0FC0024039404940694F5
:103E70000594F0030790994802900894954D02A983
:103E8000280000F00BFD0121280000F033FD642024
:103E900000F0B6F9AE20FFF791FF2020FFF78EFF6C
:103EA0001020FFF78BFFB020FFF788FFC820FFF737
:103EB00085FF0020FFF782FF1020FFF77FFF4020E3
:103EC000FFF77CFF8120FFF779FFFF20FFF776FFE8
:103ED000A120FFF773FFA620FFF770FFA820FFF7D0
:103EE0006DFF3F20FFF76AFFA420FFF767FFD32095
:103EF000FFF764FF0020FFF761FFD520FFF75EFFAB
:103F0000F020FFF75BFFD920FFF758FF2220FFF7D3
:103F100055FFDA20FFF752FF1220FFF74FFFDB209B
:103F2000FFF74CFF2020FFF749FF8D20FFF746FFEA
:103F30001420FFF743FFAF20FFF740FF002000F001
:103F40005BF800F006F893480460467101200AB05F
:103F500070BDF8B500265F4C30005038C0B2FFF796
:103F60002DFF0020FFF72AFF1020FFF727FFF001A9
:103F700089490F1872B6E10B200000F0EBFC012814
:103F8000F9D0600C0090030381227821200000F01A
:103F9000C7FC0221200000F0DDFC0028F9D0402100
:103FA000200000F0D5FC0121200000F0D3FC002807
:103FB000F9D00025EDB2795D200000F0C9FC0121A7
:103FC000200000F0C7FC0028F9D06D1CE8B2802862
:103FD000F0D30121200000F098FC2021200000F007
:103FE000B9FC0028F9D02021200000F0BAFC62B60C
:103FF000761C082EB0DBF1BD00B5002801D10022EF
:1040000000E0FF228021C9006348FEF7E3F900BD0C
:10401000802813DA402911DACB08DB01C0185E4B87
:10402000181801234907490F8B405A49097900297B
:1040300005D0002A05D00178994301707047012A04
:10404000F9D101780B4303707047524A10805180B8
:104050007047F7B54F48078808783818802805DA80
:104060004C48408849784018402801DB0020FEBDBC
:10407000002600E0761C01984078864222D26946EC
:1040800009782039414388194000019949680D5A3F
:10409000002408E0137A5A1E9241D20F89B280B2EE
:1040A000FFF7B6FF641C019800788442E2D23948D9
:1040B0004088811938192A00A24012046A46E9D5BD
:1040C000127AEBE701980078381832490880684680
:1040D0000078FEBD00580040000400480D0A312061
:1040E000FEB582B004002D4E6D463100FEF7B2F9E8
:1040F000287028787043261AB6B23000FA21890059
:10410000FEF7A8F968706C78FA2080006043371ACF
:10411000BFB238006421FEF79DF9A870AE78642024
:1041200070433F1ABFB238000A21FEF793F9E870D6
:10413000E8780A214143791A2971297830312970A8
:1041400030346C703036AE703030E87028793030F2
:1041500028710024285D302803D1641CE4B2052CAA
:10416000F8DB6846007A00280FD06846007A0628F7
:104170000BDA05206946097A441A06E069460A7C8A
:104180000399285DFFF765FF641CE4B2052CF5DB9D
:1041900005B0F0BD380D0020E00800201027000019
:1041A00070B504000E00150000E0641C20780028A3
:1041B00006D02A003100FFF74CFF21788842F4D066
:1041C000207870BD30B502009007C50EFF24FF2097
:1041D000A840C34388010440AC40100006D5100736
:1041E000000F083880088000594902E090088000DC
:1041F0005849081801680B401C43046030BD00009A
:1042000082B055490A68009200E000BF0A68009B2E
:10421000D21A8242F9D302B0704780B500F015F887
:1042200000F00AFC00F0A7FBFFF7FAFDFFF7BAFB6E
:10423000FEF7E8FC4948C089FEF7B2FCFFF796F9A3
:10424000FFF77DFA00F092FCFEE738B544480068BD
:10425000FA21C900FEF712F9401E80214904884264
:1042600010D2404C60600025ED4303212800FFF789
:10427000A9FF0020A0600720206000212800FFF790
:10428000A1FF31BDFEE770B586B08026B6000121E2
:104290003000FEF729FC0020FEF74DFB0120FEF761
:1042A00036FB6120FEF74CFC0028FAD02E4C200093
:1042B00000F09AFC002568460571049500950420DD
:1042C0000590029503956946200000F09CFC0120B2
:1042D00000F0B4FC0121200000F0A7FC23492000DD
:1042E00000F0C5FC0028F9D0A5620022F1012000F1
:1042F00000F0B0FC01214020FEF7ECFB0825200077
:1043000000F0ADFC0421200000F0B1FC0028F9D041
:10431000200000F0A9FC00F0C5FC0421200000F002
:10432000BFFC6D1EEBD10021200000F07EFC0021BF
:104330003000FEF7D9FB0E4800F0B4FC06B070BDAB
:104340000C480168002902D00168491E01607047CD
:104350001CED00E000E400E04C0D0020840800208B
:10436000B008002010E000E000240140010000013E
:10437000E555DABA480D002070B504000025664EF8
:10438000CA20F0615320F06100F017F8002813D024
:1043900030684021884330603068216801433160D3
:1043A000A068B060B068616809040143B1607068DA
:1043B00080218843706001253CE018B50020009002
:1043C000402056490A68024010D10022D2430A60B8
:1043D00004020A68009B5B1C0093009BA34201D06F
:1043E0000240F6D008684106C80F12BD012012BD78
:1043F00018B50020009020206E490A68024001D0C4
:10440000012012BDCA22CA615322CA614A68A02390
:104410009A434A6084024A68009B5B1C0093009B9D
:10442000A34201D00240F6D048688206D00FFF2296
:10443000CA6112BDFF20F061280070BDF8B50F0001
:1044400000216A461170334C40220028A0682CD10C
:10445000024000D1F970387800F029F90500787829
:1044600000F025F90600B87800F021F9290432029D
:104470000A431043F9780D040543CA2060625320B3
:104480006062FFF79AFF002820D063482840206030
:10449000E06880218843E0600125A068800613D48D
:1044A000FFF7A6FF002811D00EE0024001D1F970FD
:1044B00002E0387800F006F93878000479780902CB
:1044C0000143B8780843D5E768460570FF2060626D
:1044D00068460078F2BD10B50C000E490A684E49D6
:1044E00011400A0C93069B0E23700B0A6370A17097
:1044F00040210A40E27000280BD1207800F0E2F859
:104500002070607800F0DEF86070A07800F0DAF8D3
:10451000A07010BD00280040082800400C28004072
:10452000F8B514004021002200282AD12148006853
:10453000014000D1E270207800F0B9F807006078FF
:1045400000F0B5F80500A07800F0B1F80600207B77
:1045500000F0ADF839042A020A431643E178090451
:10456000314300060843A1680143606808431149CC
:10457000CA22CA615322CA6148610846FF21C1614B
:10458000F1BD0C480068014003D0207800F09AF893
:1045900000E0E270207B00F095F82078000461785C
:1045A00009020143A0780843E17809040143207B14
:1045B000D7E700000828004078B5020000200090EE
:1045C000184BCA24DC615324DC61002903D018682D
:1045D00002431A6010E0196891431960110A1E0C19
:1045E0005A68009D6D1C0095009DB54201D00A409F
:1045F000F6D05A68114000D00120FF21D96172BD68
:104600000948CA2303605323036012060A43026267
:10461000FF210160704700007F7F7F00FF20D06195
:1046200010BD0000082800402428004010B5174A9B
:10463000CA23D3615323D361042303400424A0433A
:104640000029116805D008431060906B0343936301
:1046500004E081431160906B98439063DEE70000B3
:1046600030B501000020094CA26B236865680C0975
:104670002C400B408D0CE940C90B11400422114025
:10468000194302D0210400D0012030BD0828004089
:104690008021014A02E000BF0C2800400003000C0A
:1046A0000843C3431068014019431160704700215B
:1046B00001E0491C0A38C0B20A28FADA09010843A5
:1046C000C0B2704701090A2251430007000F0818C1
:1046D000C0B27047F0B50168434A0A400260002149
:1046E000016041608160C1600F21404A404B9842A7
:1046F0001FD0F0233F4CA04222D00C023E4DA842D6
:1047000025D00D033D4EB04228D00E043C4FB84298
:104710002BD01437B84202D1106809050AE01437CB
:10472000B84202D11068090604E0364A364FB84252
:1047300003D1106801431160F0BD3449884203D1B0
:10474000106803431360F0BD1431884203D1106830
:1047500004431460F0BD1431884203D1106805434E
:104760001560F0BD1431884202D11068064316600E
:10477000F0BD0268264B13408A681A430B6A134344
:104780000A691A434B6913438A691A43CB69134375
:104790004A6A1A438B6A13430360CA6842600A6814
:1047A00082604968C16070470029016802D0012217
:1047B0000A4301E00C4A0A4002607047002A02687E
:1047C00002D01143016070478A430260704700BF06
:1047D00001000020CA0001D50E4A00E00E4A12680E
:1047E000114000D001207047FEFF0000040002408D
:1047F000080002401C000240300002404400024019
:104800005800024004040240080402401C04024014
:104810000F80FFFF000402400000024010B580241A
:10482000A40501212000FEF77FF900212000FEF7FA
:104830007BF910BD30B5174A1368174C8440A34369
:104840000C684D6825438C682C43C968214381401E
:104850001943116030BD0021016041608160C16079
:104860007047012282400B480029016802D00A43A8
:10487000026070479143016070478022520182407C
:1048800004480029016802D00A430260704791433E
:104890000160704700740040FE0F000002680123B1
:1048A0009A4302600268254B13404A681A438B689A
:1048B0001B02134303600A68214B13400361026823
:1048C00001231343036000228260C2608A690B697E
:1048D00013438360826880231B0213438360026852
:1048E000CB68134303604268164B13404969194370
:1048F000416070470029016803D001220A43026029
:10490000704701229143016070470029416803D03C
:104910008022D2010A4301E00B4A0A4042607047FC
:1049200070B5049C4568094E2E408905890D3143B8
:1049300012040A4313431C43446070BDFFE0CF00E0
:10494000FFFFFFF0FF7FFF07FFBFFFFF009800FCA6
:1049500081627047020000209269114000D001205E
:104960007047C1617047FEE70121C006C00E81405B
:10497000434801607047F0B585B001219C20C00319
:10498000FEF7A8F801210120FEF7AEF800266C46DC
:104990002671E671012500959027FF0569463800CC
:1049A000FDF712FF2671E57102200090694638007C
:1049B000FDF70AFF2671E57110200090314F69461E
:1049C0003800FDF701FF2671E5712020009069464F
:1049D0003800FDF7F9FE0021002000F069F90121FF
:1049E000002000F065F9039503AC26710820607182
:1049F000A57103A800F070F90220039026710C2025
:104A00006071A57103A800F067F9052702AC277053
:104A100003266670A57002A8FEF77EFD0520FFF74D
:104A2000A3FF27706670A57002A8FEF775FD05202C
:104A3000FFF79AFF05B0F0BD1CB501219C20C00313
:104A4000FEF748F8E02080000090684601210171DF
:104A50000021C180032141710B4C69462000FDF704
:104A6000B3FE69462000FDF7AFFE69462000FDF762
:104A7000ABFE8020A0618000A0614008A06113BD52
:104A800000E100E00004004800080048828A51402C
:104A90008182704770B590B001210807FEF72EF8AB
:104AA000012000F05DF90120FDF73FFF4120FEF7F6
:104AB00047F80028FAD080208000FDF7F7FF01209A
:104AC000FDF7FAFFFFF794FC002501A8056001A996
:104AD0000120FFF7B3FC01210802FEF70FF83E4E5C
:104AE0003000FEF7CDFA012200213000FEF753FB23
:104AF00001213000FEF7C3FC02A805600124848078
:104B00000C21C180058102A93000FEF7D3FB684665
:104B10001321017045708470FEF7FEFC0121300006
:104B2000FEF748FB3582012202213000FEF76DFCC2
:104B30002A4C20690228FCD13000FEF7A1FA05A812
:104B4000FDF70EFF07986169FDF798FCC000E06073
:104B500063206060E0686421FDF790FC401EA06067
:104B600025602000FFF708FC10B070BD30B587B09D
:104B7000FFF790FF8024A402200000F0E9F80194E0
:104B8000002401A80471082141710125857100F0FC
:104B9000A3F868460221017044708570FEF7BCFCE2
:104BA0002C0200212000FFF707FD0D48049003AA06
:104BB00021000120FFF7B4FC06220A492000FFF77C
:104BC0001FFD01210803FFF731FD01212000FFF740
:104BD000F3FC07B030BD000000200040040D0020B1
:104BE00080808080FF7F00002849884200D0704785
:104BF00010B54C0D01212000FDF78AFF0021200097
:104C0000FDF786FF10BDC268214B13400A681A43A6
:104C10000B795B0313438A681A43CB6813430A6911
:104C20001A4349691143C16070470029816801D066
:104C3000012200E002220A438260704716490028E0
:104C4000086803D080221204024301E0114A0240A6
:104C50000A607047836A19438162426170478168C4
:104C600004220A4382607047006C80B270470200E1
:104C70000020CB0103D59368084A1A4000E012686F
:104C8000114000D0012070470000000000240140C6
:104C900003D2FFFFFFFF7FFF08270140FFFFFFFE5A
:104CA00001607047014908600868704700300240A1
:104CB00010B50A0003239A43064B9A188907090F77
:104CC00013680F248C40A343136013688840184373
:104CD000106010BD0800014030B50168CC431E498A
:104CE0008279002A25D00A4613681C401460536854
:104CF0000468A343536003795B181C680568254367
:104D00001D6093680468A3439360D3680468A34359
:104D1000D36043790468102B07D191680C439460E9
:104D2000D16800680843D06030BD5B181868044340
:104D300003E000794318186804401C6030BD00BFD0
:104D400001000020054A1268114000D00120704780
:104D5000024908607047000000040140140401404B
:104D600005490028086802D08A0D024301E0034A81
:104D700002400A607047000000700040FFFEFFFF25
:104D80007047FEE77047704780B56448027801219C
:104D900051400170012903D161480168491C01603B
:104DA000FFF7CEFA01BD10B59024E4050120FFF70E
:104DB000C6FF00280DD00520FFF722FA01212000B0
:104DC000FDF737FD012801D1FDF750FF0120FFF766
:104DD000BFFF0220FFF7B3FF00280DD00520FFF72B
:104DE0000FFA02212000FDF724FD002801D1FDF774
:104DF00061FF0220FFF7ACFF10BD704770B5494D51
:104E000002212800FEF714FB002827D002212800E9
:104E1000FEF719FB444E454C2068002805D12800B8
:104E2000FEF7CDFA3060012017E02068012815D187
:104E30002800FEF7C4FA7060002202212800FEF765
:104E4000E4FA706831683A4A814201D2401A02E0BD
:104E5000384B591A081810600220206070BD10B538
:104E6000802464012000FFF7FBFB00280BD0FDF736
:104E700037FFE1083048FFF709FE2000FFF708FC84
:104E80006001FFF765FF10BD80B501212B48FEF7DB
:104E9000DAFAFDF73DFF01BD80B5FEF70DFC0121FB
:104EA0002748FEF7D0FA01BD38B58025ED05012170
:104EB0002800FEF7B3FA002805D001212800FEF7EC
:104EC000B4FAFEF742FD02212800FEF7A7FA0028F7
:104ED0000ED002212800FEF7B6FA1A4C2800FEF781
:104EE0006EFA20602068002802D12068401C2060F3
:104EF00004212800FEF792FA00280DD00421280092
:104F0000FEF7A1FA2800FEF75CFA04002800FEF77D
:104F100056FA2100FEF7D8FC31BD00005C0D0020E0
:104F20004C0D002000200040400D0020140D0020FA
:104F3000180D0020FFFF000000080048004001405D
:104F400000440140540D002080B580208000FFF710
:104F50003EFC002801D0FEF795FE01BD83B033482A
:104F6000016801220A4302604168314A0A404260F6
:104F70000168304A0A40026001682F4A0A40026014
:104F800041682E4A0A404260C16A0F229143C162C1
:104F9000016B2B4A0A400263416B0122914341633A
:104FA0000021816001910091016812040A430260AE
:104FB000016880229202114000910199491C0191DF
:104FC0000099002904D10199A022D2019142EFD188
:104FD00001688903CA0F00920099012924D1194957
:104FE00011220A6041684160416841604168164A87
:104FF0000A4042604168882252030A4342600168C5
:10500000802252040A43026001688901FCD541688C
:10501000032291434160416802220A434260416891
:105020000C220A40082AFAD103B07047001002404F
:105030000CB8FFF8FFFFF6FEFFFFFBFFFFFFC0FF0E
:10504000ACFEFFFF00200240FF7FC0FF816807E049
:105050000268116851185368CB18C36008320260A7
:10506000C2689142F4D04A1C826008787047F0B55B
:1050700087B001000831029101684908C900029A0D
:105080005118039100250495059501684908C90048
:105090004418083440686946C307DB0F4B7040086A
:1050A000C00020180190002725E002A8FFF7CEFFDE
:1050B00046B202A8FFF7CAFF69460870BD4210D188
:1050C0000198844201D100F01EF8256868464078B6
:1050D000002801D048462D1860682F180834BD42BA
:1050E000EED06846007828706D1C002E08D5761C1E
:1050F000E4D1BD42D9D101988442D6D107B0F0BDE8
:10510000761ED6D5F5E780B5012000F001F801BD87
:1051100080B5C046C046024A11001820ABBEFBE76E
:105120002600020010B5074979441831064C7C442A
:10513000163404E0081D0A68891888470100A14256
:10514000F8D110BD08000000300000005FD3FFFF61
:1051500080040000E00800200000000013FFFFFFB3
:1051600002000000020000007A000000630000005E
:1051700000000020E008000000F009F8002801D03D
:10518000FFF7D0FF0020FFF748F800F002F80120F9
:10519000704780B500F002F801BDFEE707463846CB
:1051A000FFF7B6FFFBE7FEE70148804701480047ED
:1051B0005D4F0008B9510008C046C046C046C04611
:1051C000FFF7DAFFFEE7FEE7FEE7FEE7FEE7FEE7B2
:1051D000FEE7FEE7FEE7FEE7FEE7FEE7FEE7FEE7A7
:1051E000FEE70001E5000170178100810081008168
:1051F00000810081008100810081008100810081A7
:105200000081008100810081008100F1000001F532
:10521000000B0102030406070809006CDC02FC0015
:10522000100102030401020304060708092000011B
:105230000004F9000F070A0000C00000080B12006C
:08524000002C0800080000002A
:04000005080051B9E5
:00000001FF
