:020000040800F2
:10000000C81300205D5F0008155B0008175B00083F
:1000100000000000000000000000000000000000E0
:10002000000000000000000000000000195B000854
:1000300000000000000000001B5B00081D5B0008C2
:10004000071B0008831C0008FD5B00081B1D00083F
:10005000AF3A00083F5B00084B580008975B000868
:10006000135B0008F15C0008F35C00080B5D0008FE
:100070004F5F00085B5F0008795F00084F5C000875
:100080007B5F00087D5F000800000000995B0008AE
:10009000275C00083B5C00087F5F0008815F000868
:1000A000835F0008855F0008875F0008895F00089C
:1000B0008B5F0008000000008D5F0008000000005A
:1000C000F0B581B006000F00F46ABC4230D0307940
:1000D00000281FD00123220031003031707801F058
:1000E00097FA002821D13071306AF16940188442B2
:1000F00010D2F078050002280CDBF06924180123E7
:10010000220031003031707801F082FA6D1EEDB2BC
:10011000022DF2DA002F0BD001233A0031003031EA
:10012000707801F069FA002801D0012001E0F7623F
:10013000002001B0F0BD891E8269921E914201D358
:100140000020704782785143806A08187047F2B5E2
:1001500082B004000846022802D3A169884201D374
:10016000012021E12078012807D000D21AE10328DC
:1001700000D1D0E000D28FE014E10298410840188D
:100180000090206A0099490A4718E56ABD422FD0BD
:10019000207900281FD001232A0021003031607807
:1001A00001F036FA002800D0FCE02071206AE169F5
:1001B000401885420FD2E678022E0CDBE0692D183C
:1001C00001232A0021003031607801F021FA761EE7
:1001D000F6B2022EF2DA002F0AD001233A002100F3
:1001E0003031607801F008FA002800D0DAE0E762E8
:1001F0000098C005C00D2018303007780098401CCA
:100200000090206A0099490A40180190E56A8542E9
:1002100031D0207900281FD001232A00210030315D
:10022000607801F0F5F9002800D0BBE02071206A69
:10023000E169401885420FD2E678022E0CDBE069B6
:100240002D1801232A0021003031607801F0E0F9F7
:10025000761EF6B2022EF2DA019800280BD00123A6
:10026000024621003031607801F0C6F9002800D044
:1002700098E00198E0620098C005C00D2018303069
:1002800000780002384307000298C00701D53809FA
:100290008AE03805000D87E0206A0299090A4718AC
:1002A000E56ABD422DD0207900281ED001232A0006
:1002B00021003031607801F0ABF9002872D1207153
:1002C000206AE169401885420FD2E678022E0CDBE5
:1002D000E0692D1801232A0021003031607801F0F7
:1002E00097F9761EF6B2022EF2DA002F09D001231A
:1002F0003A0021003031607801F07EF9002851D1B8
:10030000E76202980006C00D2118303148780002DB
:100310000978084348E0206A0299C9094718E56A44
:10032000BD422DD0207900281ED001232A002100B3
:100330003031607801F06CF9002833D12071206AE7
:10034000E169401885420FD2E678022E0CDBE069A5
:100350002D1801232A0021003031607801F058F96E
:10036000761EF6B2022EF2DA002F09D001233A00EF
:1003700021003031607801F03FF9002812D1E762A6
:1003800002984006C00D21183031C87800068A78DE
:10039000120402434878000210430978014308011F
:1003A000000901E00020C04303B0F0BDF2B584B005
:1003B000040017000846022802D3A169884203D32B
:1003C0006846022101724AE12078012807D000D254
:1003D00040E1032800D1EAE000D2A2E03AE104982B
:1003E000410840180190206A0199490A401800907C
:1003F000E56A854232D02079002820D001232A00E6
:1004000021003031607801F003F9002800D005E1C7
:100410002071206AE1694018854210D2E078060018
:1004200002280CDBE0692D1801232A00210030315D
:10043000607801F0EDF8761EF6B2022EF2DA00983E
:1004400000280BD00123024621003031607801F0F2
:10045000D3F8002800D0E1E00098E062002668466A
:1004600006720198C005C00D211830310120049A90
:100470000240039205D00A7813071B0F3A011A4372
:1004800000E03A000A700199491C01912071206A2C
:100490000199490A40180090E56A85422FD001234E
:1004A0002A0021003031607801F0B2F8002800D035
:1004B000B4E02671206AE1694018854210D2E078E4
:1004C000060002280CDBE0692D1801232A00210018
:1004D0003031607801F09CF8761EF6B2022EF2DA26
:1004E000009800280BD001230246210030316078AB
:1004F00001F082F8002800D090E00098E0620198B6
:10050000C005C00D211830310398002801D03809EA
:1005100005E00878F02202403805000F104308700B
:100520009BE0206A0499090A40180090E56A854218
:1005300030D0207900281FD001232A00210030313B
:10054000607801F065F8002868D12071206AE169BF
:100550004018854210D2E078060002280CDBE069E2
:100560002D1801232A0021003031607801F050F865
:10057000761EF6B2022EF2DA009800280AD0012385
:10058000024621003031607801F036F8002845D16C
:100590000098E06268460021017204980006C00DD0
:1005A000211830310F703804000E487055E0206A71
:1005B0000499C90940180090E56A854233D0207932
:1005C00000281FD001232A0021003031607801F07B
:1005D0001FF8002822D12071206AE1694018854265
:1005E00010D2E078060002280CDBE0692D18012308
:1005F0002A0021003031607801F00AF8761EF6B248
:10060000022EF2DA009800280DD0012302462100C4
:100610003031607800F0F0FF002802D068460121F8
:100620001AE00098E06268460021017204984006D2
:10063000C00D21183031C8780006000F000738437C
:10064000070008700004000E4870380C8870380EDF
:10065000C87002E0684602210172012020716846DC
:10066000007A05B0F0BDF0B581B004000D00022D98
:100670000CD3A069854209D2002629002000FFF78B
:1006800066FD070000D182E0012F01D102267EE045
:100690000020C043874201D1012678E0022D65D3B6
:1006A000A069854262D2207801282DD05AD3032830
:1006B00001D018D356E0206AE90941182000FFF75D
:1006C000FFFC00284FD1A900C905C90D61183031C0
:1006D000CA781206120F120700230B704B708B7032
:1006E000120ECA703FE0206A290A41182000FFF765
:1006F000E7FC002837D16900C905C90D6118303100
:1007000000220A704A702EE068082E18206A710ACA
:1007100041182000FFF7D4FC002824D1F005C00DBB
:10072000211830310120054003D00A781207120F3A
:1007300000E000220A70761C2071206A710A4118BC
:100740002000FFF7BDFC00280DD1F105C90D61188F
:100750003031002D01D0002202E00B78F0221A4047
:100760000A7000E002200121217100E00220060051
:100770000DD120690021C943884203D0401C20616B
:10078000012060713D00A069854200D275E7F0B29A
:1007900001B0F0BDF0B581B005000F0007D1EE68E3
:1007A000002E02D0A86986420BD3012609E0FFF78C
:1007B000CEFC022801D201203DE0A96988423AD34B
:1007C0003E003400641CA869844202D30224022E35
:1007D00028D321002800FFF7BAFC00281AD1174AB5
:1007E00021002800FFF7E2FD002806D1002F06D0E7
:1007F000220039002800FFF7D9FD002814D1EC6051
:1008000028690021C943884214D0401E2861012074
:1008100068710FE00021C94388420CD001280AD03A
:10082000B442CFD1002006E0012802D10024E443E5
:1008300000E00124200001B0F0BD0000FFFFFF0F29
:10084000F0B581B004000D00E580A168012929D030
:1008500020688269914225D2002903D101780329B9
:1008600002D1416A002906D10021E16001898D424F
:1008700018D2406A1BE0807806010027FF4300E0A1
:10088000AD1B2068ADB2B5420ED3FFF760FC01008E
:10089000B94201D1012014E0022903D32068806904
:1008A0008142EDD302200CE0E160FFF744FC29090E
:1008B000401820612807C00D216808183030606199
:1008C000002001B0F0BDF1B582B00021FFF7B8FF04
:1008D000040000D037E1FDE03071306AF169401862
:1008E000844210D2F078050002280CDBF06924184D
:1008F0000123220031003031707800F089FE6D1E36
:10090000EDB2022DF2DA002F0AD001233A003100B5
:100910003031707800F070FE002800D0EFE0F76210
:10092000029840690078E52800D1ECE0002800D169
:10093000E9E00298C088401C80B20028019015D0E0
:1009400002980069002811D00199090700D0B5E08C
:100950000299401C08610298C168002908D10198D9
:10096000029909680989884200DAA7E00424EAE0CC
:100970000068019A120983785B1E134000D09DE045
:10098000FFF7E5FB0090022800D2BAE00024E44320
:10099000A04200D1B3E002980068009982699142B8
:1009A00000D281E00299C968FFF7F4FE00900028A8
:1009B00001D10724C7E0012800D1A2E0A04200D164
:1009C0009DE002980668F46A002C23D03079002854
:1009D00020D00123220031003031707800F018FE61
:1009E000002800D08BE03071306AF16940188442F1
:1009F00010D2F078050002280CDBF06924180123DE
:100A0000220031003031707800F002FE6D1EEDB230
:100A1000022DF2DA8021890002980068303000F05F
:100A200035FE009902980068FFF785FB0299096876
:100A3000C86200272FE00121017102980668F46A5C
:100A4000002C22D0307900281FD001232200310051
:100A50003031707800F0DCFD002850D13071306A00
:100A6000F1694018844210D2F078050002280CDBAE
:100A7000F06924180123220031003031707800F031
:100A8000C7FD6D1EEDB2022DF2DA02980068C16A50
:100A9000491CC1627F1C029800688178FFB28F42B6
:100AA000C9D3C16AC91BC16202980099C16000998B
:100AB00002980068FFF73FFB0299086102980199CC
:100AC000C18001980007C00D0299096808183030EC
:100AD00002994861029807690668F46ABC4200D12D
:100AE0001EE73079002800D10DE7012322003100F4
:100AF0003031707800F08CFD002800D1ECE6012444
:100B000021E002241FE0029801690068FFF7D8FA8B
:100B1000040018D1029845692021280000F0B6FD94
:100B20000298806901782970401C6D1C05210278AB
:100B30002A7042786A70801CAD1C491EF7D1029859
:100B4000006801210171200003B0F0BDF2B582B050
:100B50008069009020220B2100F06AFD0021002313
:100B600000220820029C2468019405E0082871D125
:100B700008230B208906090E019CA45C521C212C21
:100B800003DB2F2C01D05C2C07D1019DAA18029DFC
:100B90002A60212C5BDA04245AE02E2CE6D0834212
:100BA00058D2802C03DB0D0003212943C9B2250054
:100BB000813D1F2D03D32500E03D1D2D14D2019D45
:100BC000AD5C521C2E00403E3F2E03D32E00803ED3
:100BD0007D2E3FD2461EB3423CD2009EF4545B1C95
:100BE000009CE5545B1CC7E72AA600E0761C37781A
:100BF000002F13D0A74211D0761C3778002F0DD0CC
:100C0000A7420BD0761C3778002F07D0A74205D01B
:100C1000761C3778002F01D0A742E7D13578002D18
:100C200018D12500413D1A2D04D20D00022129437F
:100C3000C9B209E02500613D1A2D05D20D00012140
:100C40002943C9B2203CE4B2009DEC54CAE7002419
:100C5000002B01D106201AE0009A1278E52A02D171
:100C6000009A05231370082800D189008807800F97
:100C7000012802D12000102404430C20084004283D
:100C800002D12000082404430098C472002003B05D
:100C9000F0BD0000222A2B2C3A3B3C3D3E3F5B5DE1
:100CA0007C7F0000F2B5040008782F2801D05C2872
:100CB00001D1481C00900020A060009800782028F6
:100CC00011D200212000FFF7BBFD00216161B8E0D7
:100CD000417D0902027D11430904C27E1202807E19
:100CE00002431143A16069462000FFF72FFF00284F
:100CF00000D0A6E00025E080A168012930D020685E
:100D0000826991422CD2002903D10178032902D1B2
:100D1000416A002905D1E5600189002920D0406A97
:100D20001BE08078060106E0022919D3206880695B
:100D3000814215D2AD1B2068ADB2B54208D3FFF792
:100D400006FA01000020C0438142EDD1012067E096
:100D5000E160FFF7F0F92909401820610F2608E04B
:100D600002205DE0E06001001000FFF7E4F920617F
:100D7000E5803540680121680818303060612169DC
:100D80002068FFF79DF900284AD161690A78002A96
:100D900045D0CA7A12071DD4A5690A220B782F788C
:100DA000DB1B6D1C491C002B12D117007A1E002F73
:100DB0000ED00B782F78DB1B6D1C491C002B07D144
:100DC000521E0B782F78DB1B6D1C491C002BECD0BE
:100DD000002B25D0E5886D1CADB2002D1FD02069F9
:100DE00000281CD03542C3D1401C2061E168206836
:100DF000002903D100898542BADB10E02A098378F3
:100E00005B1E1340B4D1FFF7A2F90228A8D300213A
:100E1000C94388429AD0226891698842A2D30420AB
:100E2000A169C97A002804D004280AD1490708D446
:100E300006E0490705D46069C17AC90600D547E7CD
:100E4000052001B0F0BD10B5040001230A00210007
:100E50003031607800F0D0FB002801D0032010BDB5
:100E6000C048201841780902007801430E488142A9
:100E700001D0022010BD6634C548A178090462780B
:100E800012020A4321781143814208D0A17F09044C
:100E9000627F12020A43217F1143814201D1002067
:100EA00010BD012010BD000055AA0000F0B583B0B0
:100EB000150002681378303B0A2B08D254783A2C7C
:100EC00005D1921C0260002B01D00B205EE1B148DD
:100ED00044680C60002C01D10C2057E120780028D8
:100EE0000AD0607800F084FBC10705D4002D01D042
:100EF00040070ED4002049E100202070607000F00F
:100F000071FBC10701D5032040E1002D03D040074C
:100F100001D50A203AE10020009000212000FFF7CF
:100F200092FF0500012D15D1F7204000201801790E
:100F300000290FD0C17A0906827A12040A43417A45
:100F400009021143007A0843009000992000FFF73E
:100F50007AFF0500032D01D1012017E1002D00D0FB
:100F60009FE03C20205C00023B21615C0843802123
:100F70008900884200D094E04720205C0602462089
:100F8000205C06430DD15720205C00065621615C91
:100F9000090401435520205C000208435421665C8B
:100FA0000643E6614020205CE070012801D0022861
:100FB00077D146433D20205C0100A07071D0411ED6
:100FC00001406ED14220205C07024120205C074393
:100FD0002781380765D14420205C00024321615CF1
:100FE00008430DD15320205C00065221615C0904A6
:100FF00001435120205C02020A435020205C104330
:101000003F21615C09023E22A25C1143029148D05B
:1010100089193A0989180191884242D3401AA17866
:1010200000F04CFB00283CD001256F49884200D3DA
:1010300002256E49884200D30325801CA0610098D8
:1010400001994018A0620098029941182162032D6D
:1010500012D1002F25D15F21615C09065E22A25CBE
:1010600012040A435D21615C0B0213435C21615C45
:101070001943A26992000DE0002F12D08919A269CC
:10108000022D01D1520005E053009B185B08D607E2
:10109000F60F9A196162E169554BD218520A9142D2
:1010A00001D20D2072E00021C94321610021E160DD
:1010B000032D61D1617100986121615C0902602298
:1010C000A25C114342186261012321003031607833
:1010D00000F092FA00284FD14648205C00022149D6
:1010E000615C08434449884246D13320205C0006B5
:1010F0003221615C090401433120205C0002084375
:101100003021615C01433D48814235D13C48205C3F
:1011100000063C49615C090401433B48205C000235
:10112000084385218900615C01433848814223D10D
:101130003748205C00063749615C090401433648A2
:10114000205C0002084387218900615C0143E16063
:101150003248205C00063249615C09040143314891
:1011600002E000BF2E020000205C0002084386213E
:101170008900615C01432161257006480088401C9C
:1011800004490880E0800020E062207103B0F0BDD7
:1011900046415400980F002000B581B0002805D0CA
:1011A0000278002A02D0C2888A4201D0092007E0D2
:1011B000407800F01DFAC00701D5032000E00020B0
:1011C00001B000BD002801D00B20704716484268CE
:1011D000002A01D000231370002901D000220A70D8
:1011E0004160002070470000F60F0000F6FF00008D
:1011F000FF0100002F02000055AA00005252614179
:101200001702000016020000150200007272416110
:101210001F0200001E0200001D0200001B02000051
:101220001A02000019020000980F0020F3B58DB0DB
:1012300000210160D006C00E69460870684600783B
:10124000FE22024003A90EA8FFF730FE04000AA800
:10125000099004D10E9903A8FFF724FD0400089D0E
:10126000002C02D1002D00D10624684600781C21F4
:10127000084200D1CFE0002C4BD0042C03D103A8AE
:10128000FFF721FB04006846007808210143684607
:101290000170089D002C47D0002C37D1684600789B
:1012A000000705D568460078202101436846017093
:1012B0000D980399C96AC1610D9805620D98694638
:1012C00009788171687D0002297D08430004E97E68
:1012D0000902AA7E114308430D990861E87F0006C0
:1012E000A97F09040143687F00020843297F014365
:1012F0000D98C1600D98002181600D9881610D9855
:10130000039901600D980399C988818020000FB06E
:10131000F0BD68460078400701D50824F6E7E87A72
:101320001121084200D086E0684600780007BFD54A
:1013300000F07AF90190A87301980004000EE87398
:101340000198000C28740198000E68740020E8725F
:1013500028776877A877E877687D0002297D0843B9
:101360000604E87E0002A97E084306430020A87612
:10137000E87628756875039801210171002E8DD0DB
:101380000398C06A019031000398FFF76CF90400DC
:1013900082D10398761EC660039FF86A0290019975
:1013A000884200D17AE73879002822D00123029AB6
:1013B00039003031787800F02BF9002829D13871C4
:1013C0000298396AFA698918884212D2F8780600B8
:1013D00002280EDB0298F9694018029001230246A8
:1013E00039003031787800F013F9761EF6B2022E0B
:1013F000F0DA0198002800D150E7012302463900B5
:101400003031787800F0F8F8002802D10198F862BD
:1014100044E701247AE7002C00D03DE7E87AC106D2
:1014200001D5042472E769460978890700D435E7B5
:10143000C00700D432E7072468E7F8B582B004009B
:1014400016000191029800210160A1882068FFF731
:10145000A3FE002800D0C3E0A07901066BD4C0072A
:1014600001D40720BCE0E068A168401AB04234D83B
:10147000060032E00098A061A068C205D20D80206D
:101480008000801A864200D830000199A2182432C8
:10149000002816D083079B0F05D015780D70521CBD
:1014A000491C5B1EF9D183080BD015780D70557857
:1014B0004D7095788D70D578CD70121D091D5B1E0D
:1014C000F3D1019909180191A1680918A160029945
:1014D00009680918029A1160361A002E00D17EE0C0
:1014E000A168C805C8D120684A0A83785D1E1540E6
:1014F000EDB2002D0DD1002901D1206902E0616912
:10150000FEF725FE022812D30021C943884260D08D
:10151000606120686269921E030018331F68BF1E55
:10152000BA4204D281784A431B69D21805D1A07906
:1015300080210143A171022052E052190092770AE2
:1015400027D0EA19914200D24F1BFBB2009A0199B1
:10155000407800F051F800283BD1A079400616D51C
:10156000A0690099401AB84211D2400201990918A5
:1015700022002432802013780B7053784B709378BC
:101580008B70D378CB70121D091D401EF3D17802E9
:1015900097E7A17949060CD50123A26921002431DE
:1015A000407800F035F8002813D1A079BF21014020
:1015B000A171A0690099884200D15BE701230A4626
:1015C000210024312068407800F016F8002800D16E
:1015D00050E7A07980210143A171012000E00020A3
:1015E00003B0F0BD00B581B000F094F801B000BDCB
:1015F000002800D00120704700B581B0080011001C
:1016000080229200490200F0A8F8002001B000BD3D
:1016100000B581B00800110080229200490200F05C
:1016200019F9002001B000BD00487047C0B349342B
:101630001206130A1A43130C1A4300BF094205D0BD
:1016400083070BD00270401C491EF9D1704700007F
:101650001206130A1A43130C1A4300BF130030B4C6
:1016600014001500103902D310393CC0FCD24907D0
:1016700000D30CC000D504C0890002D30280801CB6
:10168000002900D5027030BC704700000022D5E769
:101690000022E3E7CA0F00D0494203105A400DD0A0
:1016A00004B500D3404200F009F8009AD20701D3F4
:1016B0004942124200D5404204BD0000094210D008
:1016C00088420BD30122002300185B418B4200D3D8
:1016D0005B1A5241F8D31900100070470100002036
:1016E000704708B500F00EFA08BD38B40121002299
:1016F0000368001D002B0BD00468001D0C4202D0B3
:101700004D466D1E64192260241D1B1FF0D0FAE7A0
:1017100032BC704730B581B000F0F6F920214B485B
:1017200000F09AFA0A244A4D0221280000F0EEFA4D
:101730000028F9D0FF21280000F0DAFA0121280062
:1017400000F0E4FA0028F9D0280000F0D3FA641E73
:10175000EAD100F036F901B030BDF4B584B007002D
:101760000C00FF25684605702021384800F076FA05
:1017700001A851210170210E4170210C8170210AB4
:10178000C1700471457101AE0624314D684631784F
:1017900041700221280000F0B9FA0028F9D068460B
:1017A0004178280000F0A4FA0121280000F0AEFAE8
:1017B0000028F9D0280000F09DFA761C641EE5D1BF
:1017C0005F4E340002E0002C34D0641E00F07DF93E
:1017D0000028F8D1002C2DD002E0002E2AD0761E51
:1017E00000F073F9FE28F8D1002E23D06846008A55
:1017F000002818D06846048A0221280000F086FAE2
:101800000028F9D0FF21280000F072FA01212800F9
:1018100000F07CFA0028F9D0280000F06BFA38704C
:101820007F1C641EE8D100F050F900F04EF96846C4
:10183000002101702021054800F00EFAFF2000F081
:101840002BF96846007805B0F0BD00000014004890
:1018500000300140F5B583B00C00FF2568460570E7
:101860002021394800F0FAF901A858210170210E11
:101870004170210C8170210AC1700471457101AE63
:101880000624304D37780221280000F03FFA002866
:10189000F9D03900280000F02BFA0121280000F0CF
:1018A00035FA0028F9D0280000F024FA761C641ECE
:1018B000E8D1234C02E0002C37D0641E00F005F97B
:1018C0000028F8D1002C30D0FF2000F0E5F8FE20F1
:1018D00000F0E2F86846008A00281BD06846048AB7
:1018E000039806780221280000F010FA0028F9D0A9
:1018F0003100280000F0FCF90121280000F006FA70
:101900000028F9D0280000F0F5F90398401C039056
:10191000641EE5D100F0D9F800F0D7F800F016F811
:10192000052802D16846002101702021064800F0F8
:1019300093F9FF2000F0B0F86846007805B0F0BDDC
:10194000FF0F00000030014000140048F0B581B0E6
:1019500041261F274F4C0221200000F0D7F9002814
:10196000F9D0FF21200000F0C3F90121200000F090
:10197000CDF90028F9D0200000F0BCF905003D4069
:101980002800052D05D00B2D19D00D2D17D0761E52
:10199000E1D10221200000F0B9F90028F9D0FF219F
:1019A000200000F0A5F90121200000F0AFF9002887
:1019B000F9D0200000F09EF90028EAD0280001B0FC
:1019C000F0BD70B54C4C2021200000F047F94020BC
:1019D00000F062F8002000F05FF8002000F05CF8F2
:1019E000002000F059F8002000F056F8952000F093
:1019F00053F8424E350002E0002D06D06D1E00F077
:101A000064F80128F8D1002D01D1FF2070BD2021FC
:101A1000200000F021F91F4D0221280000F076F986
:101A20000028F9D0FF21280000F062F901212800E8
:101A300000F06CF90028F9D0280000F05BF92021B3
:101A4000200000F00BF9412000F026F8002000F003
:101A500023F8002000F020F8002000F01DF80020FE
:101A600000F01AF8FF2000F017F8350002E0002D12
:101A7000CDD06D1E00F029F80028F8D1002DC6D079
:101A80002021200000F0E8F8FF2000F005F80020F9
:101A900070BD00000030014030B581B00400184D29
:101AA0000221280000F032F90028F9D02100280096
:101AB00000F01EF90121280000F028F90028F9D0D3
:101AC000280000F017F901B030BD10B50C4C022110
:101AD000200000F01BF90028F9D0FF21200000F0C1
:101AE00007F90121200000F011F90028F9D02000A9
:101AF00000F000F910BD000000140048FF0F0000C6
:101B0000003001407047FEE7F0B587B00121842026
:101B1000C00300F0CBF90121080300F0D1F9202027
:101B200000906D4602202871032068710026AE7176
:101B30000127EF719024E4056946200000F04AF87F
:101B4000402000906946200000F044F8802000907A
:101B50006946200000F03EF8202000902F71AE7101
:101B6000EF71032068716946194800F033F80022CC
:101B70000521200000F074F800220621200000F06A
:101B80006FF800220721200000F06AF802A8068002
:101B9000822149004180E021C90081800221C18069
:101BA000078109024181C66007210182074C02A911
:101BB000200000F067F8A10C200000F091F801214E
:101BC000200000F083F807B0F0BD000000300140B5
:101BD0000014004870B481B0002300220124944016
:101BE0000D682540A54229D10D79012D01D0022D86
:101BF00011D1856803269E40B543856085684E797E
:101C00009E402E4386608588A543858084888D7993
:101C100095402543858003259D40EC43056825407C
:101C2000056005680E799E402E430660C5682C400D
:101C3000C460C468CD799D402543C560521C9B1C7F
:101C4000102ACBD301B070BC704702000020128A6A
:101C50000A4200D0012070478161704701857047BA
:101C600010B4CB089B00C0184907C90E036A0F24A3
:101C70008C40A3430362036A8A401A43026210BC89
:101C80007047FEE70288C1239B0113400A881A436C
:101C9000CB891343CA881A430B8913434A891A43D1
:101CA0008B89134303808288134B13408A881A431D
:101CB00082800A8A02820288104B134049881943A5
:101CC0000180818B0E4A0A40828370470029018877
:101CD00002D040220A4301E00A4A0A4002807047CB
:101CE0008288094B1340838082881143818070472A
:101CF00001737047007B7047FFF00000FBFF00009E
:101D0000FFF70000BFFF0000FFEF0000020000200F
:101D100012890A4200D001207047FEE75949002885
:101D2000086803D0012202430A60704701229043F1
:101D30000860704770B505000020804E31680C22A5
:101D40000A40082A02D00C2A17D018E030683268FE
:101D50000F21840C0C40A41CC0204002104003D171
:101D600020007749484306E0B26A76481140491C92
:101D7000FFF7A4FC6043010002E0734900E07149F1
:101D800029603468714A0F212B6824092140515C75
:101D9000CB406B6031684905490F515CCB40AB606B
:101DA000F16AC90501D46A4905E03168490401D4E2
:101DB000590800E09908E960F16A490601D46549CB
:101DC00001E0802109022961F16AC90601D45D4957
:101DD00000E0296869610321F26A0A4001D1A9681B
:101DE00011E0F26A0A40012A01D129680BE0F26A87
:101DF0000A40022A02D18021090204E0F26A11405D
:101E0000032901D14F49A961C0218902F26A0A4020
:101E100001D1A96813E0F26A0A4080235B029A426A
:101E200001D129680BE0F26A0A405B009A4201D1B5
:101E3000990804E0F26A0A408A4201D14149E96105
:101E4000C0210903F26A0A4001D1A96813E0F26ACD
:101E50000A408023DB029A4201D129680BE0F26A32
:101E60000A405B009A4201D1190904E0F26A0A4073
:101E70008A4201D133492962F16A090600D4324805
:101E8000686270BD2410024033490A68104308603C
:101E90007047000030490028086803D080221202F1
:101EA000024301E02D4A02400A6070472C4A002993
:101EB000116802D008431060704781431160704779
:101EC000284A0029116802D00843106070478143F6
:101ED00011607047244A0029116802D0084310603D
:101EE0007047814311607047204A0029116802D071
:101EF0000843106070478143116070471C4A0029F5
:101F0000116802D008431060704781431160704728
:101F10004109184A002901D1116808E0012901D1BD
:101F2000116A04E0022901D1516A00E0516BC00638
:101F3000C00EC140C807C00F704700000410024027
:101F400000093D0000127A00006CDC02E408002069
:101F5000809FD5001280000020100240FF7FFFFF0D
:101F600014100240181002401C1002400C100240D5
:101F700010100240001002400000000000000000AD
:101F80000000000000000000000000000010001031
:101F900000100010001000100000001000000000F1
:101FA00000280028002800000000000000000000B9
:101FB0000000000000240024007C00240048007C75
:101FC000004800480000000000380054005000386D
:101FD0000014005400540038001000000020005489
:101FE00000580030002800540014000800000000D1
:101FF0000010002800280010003400480048003479
:1020000000000000001000100010000000000000A0
:102010000000000000000000000800100020002068
:1020200000200020002000200010000800200010E8
:102030000008000800080008000800080010002040
:102040000010003800100028000000000000000010
:10205000000000000000000000100010007C0010D4
:102060000010000000000000000000000000000060
:102070000000000000000010001000100000000030
:102080000000000000000038000000000000000018
:102090000000000000000000000000000000001030
:1020A00000000000000800080010001000100010E0
:1020B00000200020000000000038004400440054CC
:1020C00000440044004400380000000000100030CC
:1020D0000050001000100010001000100000000060
:1020E0000038004400440004000800100020007C78
:1020F0000000000000380044000400180004000440
:1021000000440038000000000008001800280028E3
:102110000048007C0008000800000000007C00402F
:102120000040007800040004004400380000000073
:102130000038004400400078004400440044003867
:1021400000000000007C00040008001000100020C7
:102150000020002000000000003800440044003847
:1021600000440044004400380000000000380044EF
:1021700000440044003C000400440038000000001B
:10218000000000000010000000000000000000102F
:10219000000000000000000000000010000000002F
:1021A000000000100010001000000000000C0030C3
:1021B00000400030000C00000000000000000000A3
:1021C0000000007C0000007C000000000000000017
:1021D000000000000060001800040018006000000B
:1021E0000000000000380044000400080010001047
:1021F000000000100000000000380044004C0054B3
:10220000005C004000400038000000000010002882
:10221000002800280028007C004400440000000042
:1022200000780044004400780044004400440078F2
:102230000000000000380044004000400040004022
:1022400000440038000000000070004800440044D2
:10225000004400440048007000000000007C004082
:102260000040007C004000400040007C0000000076
:10227000007C0040004000780040004000400040EA
:10228000000000000038004400400040005C0044B2
:102290000044003800000000004400440044007C7A
:1022A00000440044004400440000000000380010D6
:1022B0000010001000100010001000380000000096
:1022C000000400040004000400040004004400387A
:1022D000000000000044004800500060005000482A
:1022E0000048004400000000004000400040004062
:1022F000004000400040007C000000000044006CF2
:10230000006C0054004400440044004400000000FD
:1023100000440064006400540054004C004C00442D
:102320000000000000380044004400440044004421
:1023300000440038000000000078004400440044DD
:1023400000780040004000400000000000380044D9
:1023500000440044004400440054003800040000DD
:1023600000780044004400440078004800480044DD
:102370000000000000380044004000300008000465
:102380000044003800000000007C00100010001025
:102390000010001000100010000000000044004475
:1023A00000440044004400440044003800000000A1
:1023B00000440044004400280028002800100010B9
:1023C0000000000000440044005400540054006C1D
:1023D0000028002800000000004400280028001009
:1023E00000100028002800440000000000440044C1
:1023F000002800280010001000100010000000004D
:10240000007C000400080010001000200040007C48
:102410000000000000180010001000100010001054
:102420000010001000100018002000200010001004
:10243000001000100008000800000000003000102C
:1024400000100010001000100010001000100030EC
:1024500000100028002800440000000000000000D8
:10246000000000000000000000000000000000006C
:1024700000000000000000FE00200010000000002E
:10248000000000000000000000000000000000004C
:1024900000380044003C0044004C003400000000C0
:1024A00000400040005800640044004400640058AC
:1024B0000000000000000000003800440040004020
:1024C0000044003800000000000400040034004C08
:1024D00000440044004C00340000000000000000F4
:1024E00000380044007C0040004400380000000038
:1024F000000C0010007C00100010001000100010F4
:1025000000000000000000000034004C00440044C3
:10251000004C003400040078004000400058006483
:10252000004400440044004400000000001000008B
:1025300000700010001000100010001000000000DB
:1025400000100000007000100010001000100010BB
:10255000001000E0004000400048005000600050C3
:10256000004800440000000000700010001000103F
:10257000001000100010001000000000000000001B
:10258000007800540054005400540054000000002F
:10259000000000000058006400440044004400446F
:1025A0000000000000000000003800440044004427
:1025B00000440038000000000000000000580064E3
:1025C0000044004400640058004000400000000047
:1025D0000034004C00440044004C0034000400046B
:1025E000000000000058006400400040004000402F
:1025F0000000000000000000003800440030000827
:102600000044003800000000002000200078002076
:102610000020002000200018000000000000000042
:102620000044004400440044004C0034000000001A
:10263000000000000044004400280028002800108A
:102640000000000000000000005400540054006C22
:1026500000280028000000000000000000440028BE
:1026600000100010002800440000000000000000DE
:1026700000440044002800280010001000100060F2
:1026800000000000007C0008001000200040007CDA
:1026900000000000001800100010001000200020B2
:1026A00000100010001000180010001000100010A2
:1026B000001000100010001000100010003000107A
:1026C000001000100008000800100010001000307A
:1026D0000000000000000074004C0000000000003A
:1026E00000000000000000000000000000000000EA
:1026F00000000000000000000000000000000000DA
:1027000000000000000000000000000C000C000CA5
:10271000000C000C000C000C000C000C000C000C59
:102720000000000C000C0000000000000000001B76
:10273000001B001B001B001B00000000000000002D
:102740000000000000000000000000000000000089
:1027500000008019801980198019C07FC07F8019FE
:102760000033C07FC07F00330033003300330000EC
:10277000000000000000001E003F807580650074AE
:10278000003C001E00078005806580658075003F65
:10279000001E0004000400000000007000D840D8B3
:1027A000C0D880D900730006000C801BC036C066FC
:1027B000C046C00680030000000000000000001EAC
:1027C000003F003300330033001E000CC03CC066E5
:1027D000806380618063C03E801C000000000000B8
:1027E0000000000C000C000C000C000C00000000AD
:1027F00000000000000000000000000000000000D9
:102800000000000080000001000300060006000434
:10281000000C000C000C000C000C000C0004000666
:102820000006000300018000002000100018000CCA
:10283000000C000400060006000600060006000664
:102840000004000C000C0018001000200000000C18
:10285000002D003F001E00330000000000000000BB
:102860000000000000000000000000000000000068
:10287000000000000000000C000C000C000CC0FF69
:10288000C0FF000C000C000C000C00000000000059
:102890000000000000000000000000000000000038
:1028A0000000000000000000000000000000000C1C
:1028B000000C0004000400080000000000000000FC
:1028C00000000000000000000000001E001E0000CC
:1028D00000000000000000000000000000000000F8
:1028E00000000000000000000000000000000000E8
:1028F000000000000000000C000C000000000000C0
:1029000000000003000300030006000600060006A6
:10291000000C000C000C000C00180018001800003F
:10292000000000000000001E003F00338061806155
:102930008061806D806D8061806180610033003FC7
:10294000001E00000000000000000006000E001E37
:1029500000360026000600060006000600060006F7
:102960000006000600060000000000000000001E37
:10297000003F807380618061800100030006000CCD
:10298000001800300060807F807F000000000000A1
:102990000000001C003E006300630003000E000EF8
:1029A00000038001800180618073003F001E0000F1
:1029B0000000000000000006000E000E001E001EB9
:1029C0000016003600360066807F807F0006000615
:1029D00000060000000000000000007F007F006093
:1029E00000600060006E007F806380018001806174
:1029F0008073003F001E0000000000000000001E69
:102A0000003F803380610060006E007F80738061D2
:102A1000806180618033003F001E000000000000E4
:102A20000000807F807F8001000300030006000615
:102A3000000C000C000C0008001800180018000022
:102A4000000000000000001E003F80638061806184
:102A50000021001E003F8061806180618061003F35
:102A6000001E0000000000000000001E003F007378
:102A70008061806180618073803F801D8001806102
:102A80000073003F001E0000000000000000000076
:102A9000000000000000000C000C0000000000001E
:102AA000000000000000000C000C0000000000000E
:102AB000000000000000000000000000000C000CFE
:102AC00000000000000000000000000C000C0004EA
:102AD00000040008000000000000000080008003E7
:102AE000000E003800600038000E800380000000F7
:102AF00000000000000000000000000000000000D6
:102B00000000807F807F00000000807F807F0000C9
:102B100000000000000000000000000000000000B5
:102B20000000000000400070001C0007800100074A
:102B3000001C0070004000000000000000000000C9
:102B40000000001F803FC071C060C000C001800352
:102B50000007000E000C000C0000000C000C000030
:102B6000000000000000001E003F80318071806383
:102B7000806F806D806D806F806700600032003EE6
:102B8000001C0000000000000000000E000E001BF2
:102B9000001B001B001B80318031803F803F803153
:102BA000C060C060C0600000000000000000007C49
:102BB000007E0063006300630063007E007E0063AC
:102BC000806180618063007F007E00000000000063
:102BD0000000001E003F80318061006000600060E6
:102BE00000600060006080618031003F001E0000D6
:102BF000000000000000007C007F006380638061B3
:102C00008061806180618061806100630063007E1B
:102C1000007C0000000000000000807F807F0060DA
:102C2000006000600060007F007F00600060006066
:102C30000060807F807F0000000000000000807F37
:102C4000807F0060006000600060007F007F0060A7
:102C50000060006000600060006000000000000094
:102C60000000001E003F8031806100600060006055
:102C700080638063806180618031803F001E00003E
:102C800000000000000080618061806180618061DF
:102C90008061807F807F80618061806180618061F0
:102CA00080610000000000000000003F003F000CB9
:102CB000000C000C000C000C000C000C000C000CB4
:102CC000000C003F003F00000000000000008001F9
:102CD00080018001800180018001800180018001EC
:102CE000806180618073003F001E000000000000D2
:102CF0000000C0608061006300660066006C0078C0
:102D0000007C00660066006380618061C060000036
:102D100000000000000000600060006000600060D3
:102D20000060006000600060006000600060807F04
:102D3000807F0000000000000000C071C071C07BF7
:102D4000C07AC06AC06AC06EC064C060C060C06043
:102D5000C060C060C0600000000000000000807122
:102D60008071807980798079806D806D806D8065DB
:102D700080678067806780638063000000000000D8
:102D80000000001E003F003380618061806180612F
:102D900080618061806180610033003F001E00001F
:102DA000000000000000007E007F80638061806181
:102DB00080618063007F007E0060006000600060D2
:102DC00000600000000000000000001E003F003313
:102DD00080618061806180618061806180658067E1
:102DE0000033803F401E0000000000000000007E15
:102DF000007F8063806180618063007F007E006669
:102E00000063006380618061C0600000000000001A
:102E10000000000E001F8031803100300038001E9D
:102E200000078003806180618031003F001E000048
:102E3000000000000000C0FFC0FF000C000C000CF0
:102E4000000C000C000C000C000C000C000C000C22
:102E5000000C0000000000000000806180618061C3
:102E6000806180618061806180618061806180615A
:102E70008073003F001E0000000000000000C060E2
:102E8000C060C060803180318031001B001B001B9E
:102E9000001B000E000E000E0004000000000000E9
:102EA0000000C0C0C0C0C0C0C0C0C0C0C0CC804C4A
:102EB000804C805E8052805280738061806100000F
:102EC000000000000000C0C0806080610033003B53
:102ED000001E000C000C001E001F003B8071806172
:102EE000C0C00000000000000000C0C08061806120
:102EF00000330033001E001E000C000C000C000C00
:102F0000000C000C000C0000000000000000803FDE
:102F1000803F8001000300030006000C000C001835
:102F2000001800300060807F807F000000000000FB
:102F3000000F000F000C000C000C000C000C000C2B
:102F4000000C000C000C000C000C000C000C000C21
:102F5000000F000F0000001800180018000C000CF3
:102F6000000C000C0006000600060006000300032B
:102F70000003000000000000001E001E0006000606
:102F80000006000600060006000600060006000611
:102F90000006000600060006001E001E0000000CD1
:102FA000000C001E001200330033806180610000BD
:102FB0000000000000000000000000000000000011
:102FC0000000000000000000000000000000000001
:102FD00000000000000000000000000000000000F1
:102FE000E0FF0000000000380018000C00000000A6
:102FF00000000000000000000000000000000000D1
:1030000000000000000000000000000000000000C0
:103010000000001F803F80618001801F803F806131
:103020008063807FC0380000000000000000006066
:10303000006000600060006E007F807380618061CE
:10304000806180618073007F006E000000000000DE
:1030500000000000000000000000001E003F807320
:1030600080610060006080618073003F001E00008E
:103070000000000000008001800180018001801DAF
:10308000803F807380618061806180618073803F58
:10309000801D000000000000000000000000000093
:1030A0000000001E003F00738061807F807F006011
:1030B0008071003F001E0000000000000000C007FB
:1030C000C00F000C000C807F807F000C000C000CF7
:1030D000000C000C000C000C000C000000000000B4
:1030E0000000000000000000801D803F80738061B0
:1030F0008061806180618073803F801D800180637A
:10310000007F003E00000060006000600060006F13
:10311000807F807180618061806180618061806179
:1031200080610000000000000000000600060000B2
:103130000000003E003E00060006000600060006F5
:103140000006000600060000000000000006000661
:1031500000000000003E003E0006000600060006DB
:10316000000600060006000600060046007E003C41
:103170000000006000600060006080610063006625
:10318000006C007C0076006300638061C06000001A
:10319000000000000000003E003E000600060006A1
:1031A00000060006000600060006000600060006EF
:1031B0000006000000000000000000000000000009
:1031C000000080DDC0FFC0CEC0CCC0CCC0CCC0CC25
:1031D000C0CCC0CCC0CC000000000000000000004B
:1031E000000000000000006F807F807180618061BE
:1031F000806180618061806180610000000000006A
:1032000000000000000000000000001E003F80736E
:1032100080618061806180618073003F001E0000DA
:10322000000000000000000000000000006E007FB1
:10323000807380618061806180618073007F006E37
:1032400000600060006000600000000000000000FE
:10325000801D803F807380618061806180618073A8
:10326000803F801D800180018001800100000000FE
:103270000000000000000067803F0039003000308F
:10328000003000300030003000300000000000004E
:1032900000000000000000000000001E803F806170
:1032A0000060007F803F80018061007F001E000081
:1032B0000000000000000000000800180018007F57
:1032C000007F001800180018001800180018801F50
:1032D000800F00000000000000000000000000005F
:1032E00000008061806180618061806180618061B7
:1032F0008063807F803D000000000000000000002F
:10330000000000000000C060803180318031001B6F
:10331000001B001B000E000E000600000000000055
:103320000000000000000000000080DD80DD80DD86
:10333000005500550055007700770022002200005C
:10334000000000000000000000000000000080619C
:1033500000330033001E000C000C001E003300334D
:10336000806100000000000000000000000000007C
:1033700080618061803100330033001B001B001B23
:10338000000E000E000E001C007C0070000000000B
:10339000000000000000C07FC07F80010003000625
:1033A000000C00180030C07FC07F0000000000004B
:1033B0000000000000000000006380F780FF80FF35
:1033C00080FF007F007F003E001C0008000000001E
:1033D0000000000000000000000080C180FF80FFAE
:1033E00080F780F780C180F780F780FF007F001CA6
:1033F0000008000000000000000000000008001CA1
:10340000003E003E0000003E003E003E003E003E0A
:10341000003E001C003E0000000000000000000014
:10342000001C003A0076008E00EE00EE00EE00EE8A
:1034300000EE00EE00EE00EC00E800F000000000FE
:1034400070B582B0050072B6D34CE60B3100200097
:1034500000F024FB0128F9D0600C00900303022245
:103460007821200000F0FEFA0221200000F016FB77
:103470000028F9D00021200000F00EFB01212000DF
:1034800000F00CFB0028F9D02900200000F004FB1C
:103490002021200000F002FB0028F9D0202120008C
:1034A00000F003FB62B602B070BD70B58AB00121B6
:1034B0008804FEF7FBFC01218805FEF70BFDBE4CDE
:1034C00001220A212000FEF7CBFB01220B21200064
:1034D000FEF7C6FBC0200001009068460321417141
:1034E000022101710126C671867169462000FEF72E
:1034F00071FB00240394049406940594F003079050
:10350000AE4802900894A44D02A9280000F068FA81
:103510000121280000F090FA642000F0C9FAAE20E2
:10352000FFF78EFF2020FFF78BFF1020FFF788FFAB
:10353000B020FFF785FFC820FFF782FF0020FFF7CC
:103540007FFF1020FFF77CFF4020FFF779FF8120ED
:10355000FFF776FFFF20FFF773FFA120FFF770FF53
:10356000A620FFF76DFFA820FFF76AFF3F20FFF7B7
:1035700067FFA420FFF764FFD320FFF761FF00205F
:10358000FFF75EFFD520FFF75BFFF020FFF758FF46
:10359000D920FFF755FF2220FFF752FFDA20FFF76F
:1035A0004FFF1220FFF74CFFDB20FFF749FF2020E1
:1035B000FFF746FF8D20FFF743FF1420FFF740FF82
:1035C000AF20FFF73DFF290D7F48FEF761F800F0BF
:1035D00006F87E480460467101200AB070BDF0B55F
:1035E00083B000200190784802906B4CE70B019D5E
:1035F000503D72B63900200000F050FA0128F9D091
:10360000600C0090030302227821200000F02AFAC7
:103610000221200000F042FA0028F9D00021200009
:1036200000F03AFA0121200000F038FA0028F9D021
:10363000E9B2200000F030FA2021200000F02EFA3C
:103640000028F9D02021200000F02FFA62B672B6CF
:103650003900200000F022FA0128F9D0600C009017
:10366000030302227821200000F0FCF9022120004F
:1036700000F014FA0028F9D00021200000F00CFA24
:103680000121200000F00AFA0028F9D000212000D2
:1036900000F002FA2021200000F000FA0028F9D002
:1036A0002021200000F001FA62B672B63900200035
:1036B00000F0F4F90128F9D0600C00900303022215
:1036C0007821200000F0CEF90221200000F0E6F978
:1036D0000028F9D00021200000F0DEF901212000AF
:1036E00000F0DCF90028F9D01021200000F0D4F916
:1036F0002021200000F0D2F90028F9D0202120005C
:1037000000F0D3F962B672B63900200000F0C6F9B5
:103710000128F9D0600C0090030381227821200059
:1037200000F0A0F90221200000F0B8F90028F9D03B
:103730004021200000F0B0F90121200000F0AEF996
:103740000028F9D0029E80253178200000F0A4F9ED
:103750000121200000F0A2F90028F9D0761C6D1E8E
:10376000F2D10121200000F072F92021200000F0A8
:1037700095F90028F9D02021200000F096F962B6D2
:103780000198401C0190029880300290019808280E
:1037900000DA2CE703B0F0BD0058004000B5002867
:1037A00001D1002200E0FF228021C9008048FDF7FE
:1037B0004FFF00BD00000000000400480D0A31204A
:1037C0007C4A10805180704710090020A00F002013
:1037D000F0B481B005B482B0764800880A788018C9
:1037E000802809DA4878734A52886B469A80714A71
:1037F00052881218402A01DB002064E000221B7A64
:10380000203B0093002856D000984B7858438018EE
:1038100040004B681B5A00240878002847D06846AF
:1038200080888018634D2D882D191E00A64036040F
:103830006E461CD5367BADB2802D34DA80B240287E
:1038400031DA5C4F3F79002F02D0002E02D01EE00B
:10385000012E1CD1C608F601AD19554E75192E78EA
:1038600001274007400F874037432F701BE0377B0D
:103870007E1EB641F60FADB2802D14DA80B240281C
:1038800011DA4C4F3F79002F20D0002EE2D0C6082D
:10389000F601AD19464E75192E7801274007400FE5
:1038A0008740BE432E70641C08788442B7D3521CF4
:1038B00048788242A8D33F480088097840183D499B
:1038C00008806846007A05B0F0BC7047012EDED152
:1038D000C0E7FCB583B006000C0001AD3649FDF72A
:1038E000EDFE2870287834494843361AFA218900B9
:1038F000B0B2FDF7E3FE68706F786846B6B2FA21A1
:1039000089007943711A418040886421FDF7D6FE11
:10391000A870AE7868466946498864227243891A5D
:10392000018000880A21FDF7C9FEE870E878694641
:103930000988820012185200891A297129783031B9
:10394000297030376F703036AE7030300100E9705A
:103950002A7930322A7100202B78302B10D10120A7
:10396000FFB2302F0CD10220F6B2302E08D1032046
:10397000C9B2302904D10420D2B2302A00D10520A6
:10398000002C03D0062C01DA0520001BC4B2052C44
:103990000CDA01A90D196846027C03992878FFF713
:1039A00017FF641C6D1CE4B2052CF4DB05B0F0BD00
:1039B00010090020A00F00201027000070B504009F
:1039C0000E00150000E0641C2078002806D02A00B4
:1039D0003100FFF7FDFE21788842F4D0207870BDD9
:1039E000026801239A4302600268264B13404A682A
:1039F0001A438B681B02134303600A68224B13406F
:103A00000361026801231343036000228260C260E5
:103A10008A690B6913438360826880231B02134306
:103A200083600268CB68134303604268174B1340FE
:103A300049691943416070470029016803D0012298
:103A40000A430260704701229143016070470029D8
:103A5000416803D08022D2010A4301E00C4A0A40A7
:103A60004260704770B4039C45680A4E2E40890539
:103A7000890D314312040A4313431C43446070BC54
:103A800070470000FFE0CF00FFFFFFF0FF7FFF0760
:103A9000FFBFFFFF009800FC81627047020000201A
:103AA0009269114000D001207047C1617047FEE764
:103AB00082B034490A6800920A68009BD21A824296
:103AC00017D200BF0A68009BD21A824211D200BFEF
:103AD0000A68009BD21A82420BD200BF0A68009B80
:103AE000D21A824205D200BF0A68009BD21A8242D3
:103AF000E7D302B07047704710B521480068FA213B
:103B0000C900FDF7DBFD401E8021490488422ED20A
:103B10001D4948601D481E4A13680340C0242406FE
:103B20001C43146000238B6007230B60116808405E
:103B3000106000F09EF800F033F800F037F9FFF75E
:103B4000B4FC00F071F900F00DFC1248C08900F0DF
:103B5000D7FB00F017FE00F02FFF01F07BF8FA20F2
:103B60004000FFF7A5FF0CA000F0DEFDFEE7FEE73A
:103B70000A480168002902D00168491E01607047A7
:103B8000E0080020B40F002010E000E0FFFFFF007D
:103B900020ED00E0B408002047554E00B00F002093
:103BA000F0B585B001219C20C003FEF77FF901210B
:103BB0004804FEF77BF901218804FEF777F901211B
:103BC0000120FEF77DF900266C462671E67101257D
:103BD00000959027FF0569463800FDF7FBFF267129
:103BE000E5710220009069463800FDF7F3FF267169
:103BF000E57110200090324F69463800FDF7EAFF6A
:103C00002671E5712020009069463800FDF7E2FF3B
:103C10000021002001F0BEF80121002001F0BAF8D7
:103C2000039503AC267108206071A57103A801F00B
:103C3000C7F80220039026710C206071A57103A8BB
:103C400001F0BEF802AC0520207003276770A57054
:103C500002A801F0FBF81B4E2020306005202070E8
:103C60006770A57002A801F0F1F82020306005B05F
:103C7000F0BD10B582B001219C20C003FEF716F9FB
:103C8000E020800000906846012101710021C18080
:103C9000032141710C4C69462000FDF79BFF6946EA
:103CA0002000FDF797FF69462000FDF793FF802075
:103CB000A0618000A0614008A06102B010BD0000BA
:103CC0000004004800E100E000080048828A5140FA
:103CD0008182704770B590B001210807FEF7FAF8AD
:103CE000012001F0E1F80120FEF718F84120FEF76D
:103CF0000FF90028FAD080208000FEF7C5F80120D7
:103D0000FEF7C8F801F018F9002501A8056001A91F
:103D1000012001F036F901210802FEF7DBF83E4EE2
:103D2000300001F0F7FA01220021300001F080FBA1
:103D30000121300001F086FD02A805600124848085
:103D40000C21C180058102A9300001F001FC684608
:103D5000132101704570847001F078F80121300062
:103D600001F075FB358201220221300001F012FDC5
:103D70002A4C20690228FCD1300001F0CBFA05A8BA
:103D8000FDF7D8FF07986169FDF798FCC000E06077
:103D900063206060E0686421FDF790FC401EA06035
:103DA0002560200001F090F810B070BD30B587B0EC
:103DB000FFF790FF8024A402200001F03FF8019457
:103DC000002401A80471082141710125857100F0CA
:103DD000F7FF6846022101704470857001F036F8E3
:103DE0002C020021200001F016FA0D48049003AACD
:103DF0002100012001F096F906220A49200001F075
:103E000031FA0121080301F03DFA0121200001F0FF
:103E100002FA07B030BD0000002000406C0F002007
:103E200080808080FF7F0000F0B593B001210120E9
:103E3000FEF73CF801213048FEF74CF810200190C5
:103E4000032701A847710025C571077101A99020BA
:103E5000C005FDF7BFFE6C46112020706770012081
:103E6000A070684600F0F2FF244801F053FA244E97
:103E7000300001F0EBFC234803902348049010200D
:103E800005904001069007958020089009950A95B5
:103E90000B9580010C900D9503A9300001F03AFDBF
:103EA00001220221300001F05AFD0A2020706770C3
:103EB0000120A070684600F0C9FF0121300001F028
:103EC00044FD01F071FD0EA801F08CFD04200E9060
:103ED00011950EA9002001F073FD0121002001F0D1
:103EE00087FD0121002001F08FFD2021034801F012
:103EF0008BFC13B0F0BD000010000020001000404B
:103F00003000024010740040100D002070B5050014
:103F10000026954C964821180020FDF753F9012200
:103F2000290020002C30FDF781F9924D942080006B
:103F3000231880229200290020002C30FDF77DFA02
:103F4000012304220021280000F09EF98A498842BA
:103F500001D0012070BD002304220421280000F0BC
:103F600093F96060012304220821280000F08CF9F5
:103F7000B549884201D0022070BD28000C3001787C
:103F8000427812020A43817809041143C27812066A
:103F90000A4311BAAD4A914201D0032070BD0179A4
:103FA000427912020A43817909041143C279120647
:103FB0000A43102A00D00126027A417A09021143ED
:103FC0002181012901D0042070BD827AC17A0902C1
:103FD00011436181012901D0052070BD017B427B25
:103FE00012020A43817B0B041343C17B0906194368
:103FF000E160FA225201914209D0954A914221D0C2
:104000005200914220D05200914220D022E09149AA
:10401000A183017C427C12020A43817C0904114382
:10402000C27C12060A432261017D427D12020A43CC
:10403000A282827DC17D09021143E18208290BD051
:10404000072070BD8449E3E788210901E0E7882162
:10405000C900DDE7062070BD24216162002E26D054
:10406000017E427E12020A4301D0092070BD817E8A
:10407000C27E12020A43017F09041143427F1206E5
:104080000A4311BA754A914201D00A2070BD290035
:104090002C31626A837FC07F000218430B781B04B7
:1040A00003434878000618430A3010186062606ABB
:1040B000C0B228180178427812020A4381780904B4
:1040C0001143C0780006084300BA616A091D6162A5
:1040D0006349884201D0082070BD606AC0B22818C8
:1040E0000178427812020A43817809041143C078AA
:1040F00000060843A061606A001D6062606A594959
:104100000860002070BD000070B50600174C00214B
:10411000200001F09CF90021002001F069FC002141
:10412000002001F071FC504D290028313000FFF7CC
:10413000EDFE28702878002802D1A869286202E0E4
:104140006CA0FFF7D8FC0121002001F051FC0121F7
:10415000002001F059FCA98B200001F06CF901212D
:10416000200001F074F970BD000000200010004034
:1041700054040000100D002046464952F0B581B0AD
:104180003A4D6E0D0027384C206A00281AD12E6057
:104190006F600021364801F05AF9E86A022188432D
:1041A000E86227626770334821180020FDF70AF89B
:1041B0000021002001F01CFC0021002001F024FC63
:1041C00000F058FA942080002318001D2018009059
:1041D00029482A496278002AEF622E6317D1E960E4
:1041E0000099A963E8622E603200254920002C3036
:1041F000FDF723F9206A002803D0206A21494018DE
:104200002062206AB04200D22762012715E069636C
:104210001B49A963E8622E603200009920002C300F
:10422000FDF70BF9206A002803D0206A15494018D1
:104230002062206AB04200D22762E86A022101436C
:10424000E962677001B0F0BD4556415720746D6654
:10425000112B0000701700000111000074636166EB
:1042600061746164B80F0020000000200400024067
:104270000010004054040000912000001074004021
:10428000100D002000FEFFFFF0B481B00400150007
:1042900000200022002D27D06418AE07B60F09D0E9
:1042A00001002078D700B8400843521C761E641CD9
:1042B000002EF5D1A90817D02578D600B5400543C2
:1042C000521C6078D600B0402843521CA578D60016
:1042D000B5400543521CE078D600B0402843521C3C
:1042E000491E241D0029E7D1012B00D100BA01B0DD
:1042F000F0BC70476572726F72207761766500005E
:1043000030B585B0050001210804FDF7D9FD01A8ED
:1043100001F085F801AC6E482900FDF7CFF9208047
:10432000002060806B49029120816B4C01A9200024
:1043300001F046F868461421017003214170012103
:10434000817000F083FD01220121200001F022FA9A
:104350000121200001F03CFA0021200001F077F853
:1043600005B030BD00205D4A5071908101219171EE
:10437000642313719060062313700A235370D07066
:10438000D07103239370564A1E23D3809381042354
:10439000138153810923537196239B00D381917418
:1043A00011821060AE4810600A3010601620107143
:1043B0007047000010B54A4CA08900281CD020216D
:1043C000A848FDF742FC012816D14448807803280C
:1043D00012D1207E01280FD12179206800F086FAC1
:1043E000A089401EA0810020207601213A4801F0DA
:1043F0002EF800BF3BA000E09BA0FFF785FE10BD9C
:1044000030B581B0364C608900280ED0334DA87885
:1044100003280AD194A0FFF777FE208A41000818EC
:104420004000E8740520A87003E000BF8EA0FFF7ED
:104430006BFE01B030BD000028488178052900D00E
:10444000704700B581B0C17C002902D0491EC174FB
:104450000BE00321817022484189491E4181C188B6
:10446000818100BF02A0FFF74FFE01B000BD000038
:104470002F72656C6F61642E5741560010B5184C51
:10448000A08900281CD001219020C005FDF7DDFB8C
:10449000012815D1A07C002807D0012810D11021B7
:1044A0007048FDF7D2FB01280AD12179206800F07D
:1044B0001DFAA089401EA0810AA0FFF725FE10BDAD
:1044C0000021054800F0C3FF0120207610BD000048
:1044D00060EA000080BB000000400140840F002023
:1044E000B40800202F73686F74322E776176000055
:1044F000F0B581B0020000238A4C23820025A3740A
:10450000C84065D1C81F1600C6406846067008003E
:1045100009381600C640B607B60F08000D38170058
:10452000C7403807000F152902DB1539CA401500AE
:10453000E1788E420CD16A4612782778BA4207D1C8
:10454000EDB2002D00D188E06278954200D184E080
:10455000A279002A02D18E4200D17EE00F282BD80A
:1045600001A1095C8F4400BF1014181C2024282CC2
:104570003034383C4044484C01201EE002201CE00E
:1045800004201AE0052018E0072016E00A2014E0B5
:104590000F2012E0112010E014200EE019200CE092
:1045A0001E200AE0232008E0282006E0322004E054
:1045B0004B2002E0642000E0002021790A1A012A41
:1045C00003DA23710120A07047E0081A207144E04B
:1045D000080017381500C540EDB2E82D39D1CD1FC0
:1045E0001000E840C0B2803809D0401E11D0801EB3
:1045F0001BD0401F2AD0801E022827D929E00F395E
:10460000CA402079D2B28018652800DB642222716A
:1046100019E00F39CA40504801894389D2B29B182A
:10462000994200DA0A0042810DE00F39CA40D2B245
:10463000002A06D0052A0CD10320A070FFF792FEB5
:1046400001E02371A37000F015F802E006A0FFF767
:104650005BFD00BF04A0FFF757FD01B0F0BD0000F7
:1046600000890100000400482F656D7074792E5791
:104670004156000070B50020FFF790F8374D290033
:10468000012000F01DFD04216A20FFF799F8344C49
:10469000012322000321A878FFF71BF90F217120C5
:1046A000FFF78EF81F4D012322000221A878FFF7A3
:1046B00010F919210E20FFF783F82A4C012221005E
:1046C00029A0FFF77BF90123220003212879FFF7B6
:1046D00000F90122210025A0FFF770F91E4E0123E9
:1046E00022000321B089FFF7F4F82D210E20FFF7F7
:1046F00067F8012221001EA0FFF760F901232200C4
:1047000003216879FFF7E5F80122210019A0FFF7DE
:1047100055F90123220003217089FFF7DAF8FEF72B
:104720005EFF70BD840F002010B504000020FFF76D
:1047300035F819210A20FFF743F801220949200022
:10474000FFF73CF9FEF74BFFFA208000FFF7B0F9C6
:1047500009A0FFF7D9FC10BDB4080020C00F00204D
:1047600000090020080900207B000000207D0000D7
:104770007C000000207E00002F62757A7A2E57415F
:1047800056000000F0B581B001214804FDF798FB08
:104790008024E40201212000FDF792FB012120008A
:1047A000FDF784FB7F4E600A3060022030710320E9
:1047B00070710025B5710220F07131007A48FDF763
:1047C00009FA002209217848FDF74AFA774F3800A4
:1047D00000F0A0FD764C77486060256025812100BF
:1047E000380000F0EDFD01220021380000F020FE2D
:1047F0006020A0810120E081FF20AE3060610220B6
:10480000208321000C31380000F03FFE08213800E1
:1048100000F08EFE0121380000F019FE0121380061
:1048200000F022FECD4F380000F074FD2560CC482A
:1048300060602581A5722100380000F0C1FDA581CE
:104840000120E081C6486061258321000C313800D9
:1048500000F01BFE1520307201207072B072300023
:10486000083000F0F3FA0121380000F0FDFD0022CD
:104870000121380000F08EFF0021380000F0E7FD34
:1048800001210802FDF726FB0220306030717571AE
:10489000F58031004448FDF79DF90422012142488A
:1048A000FDF7DEF9AF4E300000F034FD2560D5484D
:1048B00060602581A5722100300000F081FD70202C
:1048C000A0810120E08163206061022020830C34FC
:1048D0002100300000F0D9FD0121300000F0B7FDCB
:1048E0000121300000F0C0FD01B0F0BD70B5C64A36
:1048F0001170002300240125002908D0660004005F
:10490000DC402C4034435B1CDBB28B42F6D394601A
:104910005570924C0121200000F099FD01220121E7
:10492000200000F037FF70BD30B581B0B64D68781B
:10493000002820D02878E97888421CD30020A8706D
:10494000864C287900280ED14021200000F0E6FD99
:10495000E8780121AA68C2400A4000D002212971EA
:10496000401CE8701CE05021200000F0D7FD2879A1
:10497000401E287114E0794C4021200000F0CEFD4B
:104980000020E87004212971A8600121A9706870D5
:104990000022200000F0FEFE0021200000F057FD64
:1049A00001B030BD100F0020000400480048014055
:1049B0004C0F002059030000F0B58BB001210120FD
:1049C000FDF788FA01218804FDF770FA9C4C082055
:1049D0002060022020710126A671E671032060711B
:1049E000984D21002800FDF7F5F802220321280048
:1049F000FDF736F90F2727726672A672200008307D
:104A000000F024FAB50701222F21280000F010FD44
:104A10000420208302206083A6830026E683278467
:104A200021001831280000F013FE6846FDF782F9D6
:104A30008548016802984905490F042900D34000C0
:104A40003021FCF73BFEFA218900FCF737FEA0631A
:104A50006021280000F0D2FE0421280000F0DCFED6
:104A60008021280000F0E0FE0121280000F0E5FC94
:104A7000A06BFA21090148438908FCF71FFEE08674
:104A8000E08EE86201220121280000F083FE01216E
:104A9000280000F08FFE01220421280000F07AFE99
:104AA0000421280000F094FE0121280000F0CFFC32
:104AB000A76B872000017843FA218900FCF7FEFDEF
:104AC000E085A52000017843FA218900FCF7F6FD76
:104AD00020865E487843FA218900FCF7EFFD608666
:104AE0005B487843FA218900FCF7E8FDA086AF20F7
:104AF000C0007843FA218900FCF7E0FDE084C8207B
:104B000040007843FA218900FCF7D8FDA084962064
:104B100080007843FA218900FCF7D0FD2085C82069
:104B20007843FA218900FCF7C9FD60859620C00012
:104B300047433800FA218900FCF7C0FDA0852673A1
:104B40000220607326610121280000F033FE042159
:104B5000280000F03DFE0BB0F0BD00000044014015
:104B60007F7000000020004010B5354C627B012AA8
:104B700037D1A28C90421FD3E28C82421CD3608D2D
:104B8000A28D131A994204D313188B4201D300202B
:104B900008E0238DD218131A99420DD310188842B9
:104BA0000AD30120217B1F2906DA22691043400025
:104BB0002061491C217310BD01202075217B2069D3
:104BC000FFF796FC002020730221617320614C07DF
:104BD0000121200000F0EEFD0421200000F0F8FD8E
:104BE00010BD022A0DD1E28D90420AD3228E82425C
:104BF00007D3608E814204D3A08E884201D3012066
:104C0000607310BDE7030000F408002010B50C4CE1
:104C1000607B012812D12075217B2069FFF768FC99
:104C2000002020730221617320614C0701212000C4
:104C300000F0C0FD0421200000F0CAFD10BD0000FE
:104C4000100F002000040048041002408C0A0000ED
:104C5000E40C000000B581B000F002F801B000BD26
:104C6000F0B589B08024A40201212000FDF71EF9CF
:104C700001212000FDF72EF901210120FDF716F991
:104C80009024E405012202212000FCF7E9FF012223
:104C900003212000FCF7E4FF01A802210171032198
:104CA0004171002585710127C7710420019001A978
:104CB0002000FCF78FFF0820019001A92000FCF7DD
:104CC00089FF962080010390049505950695089527
:104CD0000C2007902A4E03A9300000F0A7FE68467A
:104CE0000A21017002214170877000F0AFF8254C55
:104CF000E561256265618020A0616562E562012150
:104D0000300000F0E1FE204F380000F09FFD1F480A
:104D100060602078206120003030A0601020E060CA
:104D20004002A062211D380000F0F4FD0122802124
:104D3000300000F0E3FE4021300000F0E8FE0121E9
:104D4000380000F002FE1437380000F07FFD1048F4
:104D5000606060782061982040002018A060E560C5
:104D6000A562211D380000F0D5FD01224021300050
:104D700000F0C4FE0121380000F0E7FD09B0F0BDED
:104D800000440040840600204400024028440040C3
:104D90002444004010B40A0003239A43074B9A1896
:104DA0008907090F13680F248C40A343136013680D
:104DB00088401843106010BC704700000800014094
:104DC00030B481B00168CC431E498279002A25D0D5
:104DD0000A4613681C40146053680468A343536078
:104DE00003795B181C68056825431D609368046897
:104DF000A3439360D3680468A343D36043790468F2
:104E0000102B07D191680C439460D1680068084367
:104E1000D06008E05B181868044303E00079431889
:104E2000186804401C6001B030BC704701000020CD
:104E3000054A1268114000D00120704702490860FD
:104E4000704700000004014014040140F0B481B038
:104E5000010008781F2201238C78002C16D0040052
:104E60000325AC430D4D2C1925688007C60EFF277E
:104E7000FF20B0408543487880010740B7402F436A
:104E80002760087802409340054802E002409340C2
:104E90000448036001B0F0BC7047000000E400E08B
:104EA00000E100E080E100E005490028086802D048
:104EB0008A0D024301E0034A02400A607047000085
:104EC00000700040FFFEFFFF70B482B001000023BD
:104ED00000207A4ACA24D4615324D4610093402329
:104EE00054681C400FD10024E4435460140C5568EE
:104EF000009E761C0096009EA64201D01D40F6D072
:104F000053685B0613D510684023984310601068FF
:104F10000B680343136088689060906849680904CF
:104F20000143916050688021884350600120FF2137
:104F3000D16102B070BC704710B482B00020009004
:104F400020205E490A68024001D0012016E0CA22F2
:104F5000CA615322CA614A68A0239A434A60820206
:104F60004B68009C641C0094009C944201D0034058
:104F7000F6D048688206D00FFF22CA6102B010BC8A
:104F80007047F0B582B00E00002469460C71634D85
:104F90000028A86800D081E0400600D4F470307882
:104FA000070000210A2806DB0A21FCF773FB010039
:104FB000F62250433F18080107436846877170780E
:104FC000070000210A2806DB0A21FCF763FB010029
:104FD000F62250433F180801074368464771B078EE
:104FE000070000210A2806DB0A21FCF753FB010019
:104FF000F62250433F186846807900046A46527989
:105000001202024308010743FFB21743F07800047D
:105010003843CA21696253226A620094EB685B06D6
:105020000FD40023DB43EB602B0CEE68009F7F1C4A
:105030000097009F9F4201D07606F6D5EB685B068D
:1050400026D5374B03402B60E86880239843E860FF
:105050002020AB68034018D10094AB68034014D102
:1050600069626A62E968A0229143E9608102EA68A4
:10507000009B5B1C0093009B8B4201D00240F6D04A
:10508000E868FF216962800602D568460121017146
:10509000FF2068626846007902B0F0BD400600D487
:1050A000F47030780004717809020143B2780A4341
:1050B000F07800041043ACE700000000082800402E
:1050C00010B481B0154A1368154A1A40130C9C0697
:1050D000A40E0C70140A4C708A7040221340CB70DE
:1050E000002818D10A780F2013099C00E3185B00F0
:1050F00002409A180A704A7813099C00E3185B0072
:1051000002409A184A708A7813099C00E3185B00E1
:1051100010401818887001B010BC7047002800407B
:105120007F7F7F00F0B581B014004021534D0028EF
:1051300028685AD1014001D10020E0702078060093
:1051400000210A2806DB0A21FCF7A4FA0100F62256
:1051500050433618080106436846467060780600DA
:1051600000210A2806DB0A21FCF794FA0100F62246
:10517000504336180801064368460670A0780600BA
:1051800000210A2806DB0A21FCF784FA0100F62236
:105190005043361808010643207B070000210A28E7
:1051A00006DB0A21FCF776FA0100F62250433F188D
:1051B0006846407800046A46127812020243F6B24A
:1051C0001643E0780004304309010F4339060143D8
:1051D000A2680A4360681043CA21E9615321E9616A
:1051E0006861FF20E86101B0F0BD014001D10020FD
:1051F000E07020780004617809020143A078084338
:10520000E17809040143207B00060843A1680143BB
:1052100060680843E0E730B482B0020000200090EC
:10522000164BCA24DC615324DC61002903D01868C2
:1052300002431A6010E0196891431960110A1A0CB0
:105240005C68009D6D1C0095009D954201D00C404E
:10525000F6D05A68114000D00120FF21D96102B078
:1052600030BC70470648CA2303605323036012060C
:105270000A430262FF2101607047000008280040D5
:105280002428004010B481B0204ACA23D36153239C
:10529000D361042303400424A0430029116805D0EE
:1052A00008431060906B0343936304E081431160F3
:1052B000906B98439063FF20D06101B010BC7047A1
:1052C00030B481B001000020104CA26B23686568E7
:1052D0000C092C400B408D0CE940C90B11400422F5
:1052E0001140194302D0210400D0012001B030BC8C
:1052F000704700008021064A0003000C0843C343A6
:1053000010680140194311607047000008280040F0
:105310000C28004010B55349884201D1CC0C46E01E
:105320008021C905884206D101210120FCF7E6FD54
:105330000021012027E07049884206D10121022086
:10534000FCF7DCFD002102201DE06C49884206D1FB
:1053500001211020FCF7D2FD0021102013E0684944
:10536000884206D101212020FCF7C8FD0021202021
:1053700009E06449884209D18C0D01212000FCF725
:10538000BDFD00212000FCF7B9FD10BD5E4988423B
:1053900002D1802464020AE05C49884202D1802460
:1053A000A40204E05C49884209D18024E40201217E
:1053B0002000FCF799FD00212000FCF795FD10BDB1
:1053C00010B481B00388274A904206D08024E405B7
:1053D000A04202D0484CA04203D14D4C1C404B8807
:1053E0002343464CA04203D04A4C1C400B89234324
:1053F00003804B68C3620B880385904208D0424A01
:10540000904205D0414A904202D0434A904201D195
:10541000897A01860121818201B010BC7047002188
:10542000C943416000210180018141808172704740
:10543000018582827047C16270470029018802D0CD
:1054400004220A4301E03D4A0A40028070470029D5
:10545000018802D001220A4301E0344A0A40028056
:1054600070470000002C0140002907D04421415A18
:10547000802212020A434430028070474421415A7C
:105480004904490C44300180704770B481B0028CEB
:10549000264B13400384048C8288038B284D1D40C7
:1054A0000B882B43204D25408E892E434C88344356
:1054B000244DA84208D0144DA84205D0134DA8424F
:1054C00002D0154DA8420DD11F4D2540CC892C434B
:1054D0001A4D25408C882C430E4D15400E8A2E43C4
:1054E0004A8A32438280038389684163048401B01D
:1054F00070BC704700000000000400400010004035
:1055000000140040002000400040014000440140E1
:105510008FFF0000FFFC000000480140028B4B4B56
:105520001340194301837047FDFF0000FEFF000098
:10553000028B064B1340194301837047FBFF0000A9
:105540008CFF0000002C0140F7FF0000F7FF000077
:10555000F0B481B04B888C880A890D88002D18D151
:10556000058C894E2E400684068B058C874F37406C
:105570003C43120122430283854A2A4013430122FD
:105580001A430284C988028B934B13400383028B16
:105590001CE0042D1DD1058C904E2E400684078BF7
:1055A000058C8F4E3E401203324324021443048381
:1055B0008C4A2A401B01134310221A430284C988D3
:1055C000028B894B13400383028B09021143018331
:1055D00039E0082D058C19D1844E2E400684868B27
:1055E000058C6A4F37403C43120122438283804A34
:1055F0002A401B021343802252001A430284C988A6
:10560000828B754B13408383828B1AE0794E2E4038
:105610000684878B058C724E3E402402344312036D
:1056200022438283744A2A401B031343802252017F
:105630001A430284C988828B6B4B13408383828B0D
:1056400009021143818301B0F0BC70478FFF000055
:10565000F0B483B0002401254B88002B00D1022434
:105660008A88012A00D102250E896F463E800E8865
:10567000002E6E463ED136887A806A469380028C30
:10568000414B13400384078B028C404B3B406F46D9
:105690007F881F4333013B4303833D4B13406A46DE
:1056A00092881A43012313430384CA88038B4A4E0A
:1056B0001E400683038B1A4302830A89038C474EDC
:1056C0001E400684078B038C454E3E401203324336
:1056D0002D0215430583434A1A4023011343102228
:1056E0001A430284C988028B3F4B13400383028B09
:1056F000090240E03F88B780068C384F3740078466
:10570000068B6F463E80068C7E806E463788344E10
:105710003E406F46BF883F03374312023A4302833D
:105720006A4652882F4E16401A0132431023134303
:105730000384CA88038B2C4E1E400683038B1202FF
:105740001A4302830A89038C0F4E1E400684068B7F
:10575000038C0E4F37403D4312012A4302830C4A0B
:105760001A401443012222430284C988028B1A4B37
:1057700013400383028B1143018303B0F0BC7047D5
:10578000406B7047806B7047FEFF00000CFF00000D
:10579000F5FF0000002A828902D011438181704701
:1057A0008A438281704702000020128A0A4200D098
:1057B00001207047CA430282704702000020138A0A
:1057C00092890A400B4202D0002A00D00120704783
:1057D000CA43028270470000F3FF0000EFFF0000A1
:1057E000FF0C00005FFF0000FFF30000FFFE000061
:1057F000FFF50000FFEF0000FF5F000002890F4B84
:10580000134019430181704782880C4B13408380F9
:1058100082881143818070470289074B13400381BE
:1058200002891143018170470289054B13400381AE
:105830000289114301817047F8FF00008FFF0000CB
:105840007FFF0000503001807047FEE701684E4A3C
:105850000A4002600021016041608160C1604B49E3
:10586000884203D14A4801680F2250E0143188422F
:1058700003D147480168F02249E01431884204D13D
:1058800043480168F022120141E01431884204D1FA
:105890003F480168F022120239E01431884201D1F8
:1058A0003B4831E01431884204D139480168F02284
:1058B00012042CE01431884204D135480168F022EA
:1058C000120524E03349884203D1334801680F228E
:1058D0001DE01431884203D12F480168F02216E000
:1058E0001431884204D12C480168F02212010EE0E4
:1058F0001431884204D128480168F022120206E0DF
:105900001431884205D124480168F02212030A4369
:10591000026070470268214B13408A681A430B6A81
:1059200013430A691A434B6913438A691A43CB69C3
:1059300013434A6A1A438B6A13430360CA6842607E
:105940000A6882604968C16070470029016802D016
:1059500001220A4301E00C4A0A4002607047002A13
:10596000026802D01143016070478A4302607047A9
:1059700001000020CA0001D5094A00E0094A126866
:10598000114000D001207047FEFF000008000240D7
:105990000400024008040240040402400F80FFFF9C
:1059A000000402400000024010B58024A40501213B
:1059B0002000FCF7A3FA00212000FCF79FFA10BD9D
:1059C00030B4184A1368184C8440A3430C684D68DF
:1059D00025438C682C43C9682143814019431160D9
:1059E00030BC70470021016041608160C160704738
:1059F000012282400B480029016802D00A4302605C
:105A000070479143016070478022520182400548EF
:105A10000029016802D00A43026070479143016087
:105A20007047000000740040FE0F0000F0B58BB01E
:105A300004000D00206801218843206060682B4924
:105A40000140A868084360602068294901406868EF
:105A50000843E9680143286908432060A068254994
:105A6000014068690843A0606846FCF763F91C4878
:105A7000844201D1069E0AE01A48844201D1079E61
:105A800005E01948844201D1089E00E0029E2D687D
:105A90002068000400D5760030002900FBF70EFED8
:105AA000070030002900FBF709FE6808814200D397
:105AB0007F1C2068000404D50F48384039074F0F79
:105AC0000743A7810BB0F0BD0029016803D0012274
:105AD0000A43026070470122914301607047000051
